:020000040800F2
:10000000580A00202902000895310008E32D000855
:10001000A53000082D060008D93C000800000000AB
:10002000000000000000000000000000C1370008D0
:100030004D0C00080000000085330008DD37000883
:10004000430200084302000843020008430200087C
:10005000430200084302000843020008430200086C
:1000600043020008430200086D0C00084302000828
:10007000430200084302000843020008430200084C
:100080004302000843020008430200085506000826
:10009000310600083D06000849060008730C0008F8
:1000A000430200084302000843020008430200081C
:1000B000430200084302000843020008430200080C
:1000C00043020008430200084302000825350008E7
:1000D00043020008430200084302000843020008EC
:1000E00043020008430200084302000843020008DC
:1000F00043020008430200084302000843020008CC
:1001000043020008430200084302000843020008BB
:1001100043020008430200084302000843020008AB
:10012000850B0008910B0008430200089D0B000896
:10013000430200084302000843020008430200088B
:10014000430200084302000843020008430200087B
:10015000430200084302000843020008CD3C0008A7
:10016000430200084302000843020008430200085B
:100170004302000843020008430200080000000098
:10018000430200084302000800F002F800F03CF8C7
:100190000AA090E8000C82448344AAF10107DA45E2
:1001A00001D100F031F8AFF2090EBAE80F0013F0F8
:1001B000010F18BFFB1A43F0010318470C6700003A
:1001C0002C670000103A24BF78C878C1FAD85207CB
:1001D00024BF30C830C144BF04680C6070470000C1
:1001E0000023002400250026103A28BF78C1FBD840
:1001F000520728BF30C148BF0B6070471FB504F0DD
:100200004DFB1FBD10B510BD00F0E2F81146FFF721
:10021000F5FF03F0A1FF00F000F903B4FFF7F2FFD0
:1002200003BC00F003F90000094880470948004773
:10023000FEE7FEE7FEE7FEE7FEE7FEE7FEE7FEE796
:10024000FEE7FEE704480549054A064B70470000F3
:10025000753800088901000858040020580A002059
:10026000580600205806002053EA020C00F069806E
:100270002DE9F04B4FF00006002B1FBFB3FA83F5BA
:1002800003FA05F424FA05F65E4012BF1643B2FAEB
:1002900082F502FA05F4C5F120051EBF22FA05FC1D
:1002A00044EA0C04203556EA044C4FEA144418BFC3
:1002B000641C4FF000084FF00009904271EB030CF2
:1002C00039D3002919BFB1FA81F701FA07F6B0FA5C
:1002D00080F700FA07F6C7F120071EBF20FA07FCD7
:1002E00046EA0C062037B6FBF4FCA7EB0507103FE7
:1002F00007F01F0BCBF120060CFA0BFB2CFA06F6CD
:1003000044BFB3460026202FA4BF5E464FF0000B2B
:100310005BEA060C08BF4FF0010B19EB0B09ABFBB6
:10032000027C48EB0608C01B06FB02CC0BFB03CC8F
:1003300071EB0C01C1E70B46024641464846BDE859
:10034000F08B13B54FF000004FF00001AFF30080C9
:10035000BDE81C4070474FF0000200B513469446BC
:100360009646203922BFA0E80C50A0E80C50B1F10D
:100370002001BFF4F7AF090728BFA0E80C5048BF21
:100380000CC05DF804EB890028BF40F8042B08BFBF
:10039000704748BF20F8022B11F0804F18BF00F8BB
:1003A000012B704770477047704710B500F008F890
:1003B000006810BD10B5044600F002F8046010BDDE
:1003C00000487047F803002000487047F8030020F9
:1003D0007546FFF7F9FFAE4605006946534620F023
:1003E0000700854618B020B5FFF72CFFBDE8204078
:1003F0004FF000064FF000074FF000084FF0000BE1
:1004000021F00701AC46ACE8C009ACE8C009ACE893
:10041000C009ACE8C0098D46704710B50446AFF37B
:1004200000802046BDE81040FFF7F7BE01491820C4
:10043000ABBEFEE72600020070470000014890EDC9
:10044000090A704758000020014890ED020A7047E1
:100450005800002070B56A4D01221021284601F095
:1004600074FB684E01221146304601F06EFB0A20F3
:1004700001F030FA012300221021284604F016F979
:10048000012001F027FAB6237E221021284604F02D
:100490002AF9502001F01EFA0123002210212846DB
:1004A00004F004F9012001F015FA012300221021C3
:1004B000284604F0FBF8544C1E2801D0012099E096
:1004C00004237D221021284604F00DF9012001F0BB
:1004D00001FA00237C221021284604F004F90120AF
:1004E00001F0F8F9AB2340221021284604F0FBF874
:1004F000012001F0EFF9002341221021284604F0E9
:10050000F2F8012001F0E6F90823532210212846D1
:1005100004F0E9F8012001F0DDF90423582210214C
:10052000284604F0E0F8012001F0D4F9012341222B
:100530001021284604F0BAF808B103205AE0B62387
:10054000142201213546304604F0CDF8502001F048
:10055000C1F900231A460121284604F0A7F801201A
:1005600001F0B8F900231A460121284604F09EF84C
:100570000F2801D002203DE000230F220121284650
:1005800004F0B1F8012001F0A5F982231022012125
:10059000284604F0A8F8012001F09CF9002311225C
:1005A0000121284604F09FF8012001F093F98023EF
:1005B00015220121284604F096F8012001F08AF95D
:1005C000002316220121284604F08DF8012001F0B5
:1005D00081F9012318221946284604F084F80120E5
:1005E00001F078F900230F220121284604F05EF87B
:1005F00010B10420207070BD0020A07070BD0000FC
:1006000000000240000402405800002001484078E9
:10061000704700005800002003489FED020A80ED5B
:10062000020A70470000000058000020FEE70000AA
:10063000014800F018BD0000C4000020014800F08F
:1006400012BD0000C4000020014800F00CBD0000F5
:10065000C4000020014800F006BD0000C4000020D6
:1006600010B5322002F0FEFE58B1322002F0E2FE58
:1006700038B102F0F1FE20B102F0D6FE08B101203F
:1006800010BD002010BD000010B5094C607838B1D5
:10069000E07828B1FFF7BAFF10B1207910B104E07B
:1006A000002010BD012004F06BF8012010BD0000F7
:1006B0002800002070B59FED311AB1EE040A2DED2F
:1006C000028B9FED2F8A2F48F0EE480A02F02CFE95
:1006D0002C489FED2D1ADFED2D0A9FED2D0A2430B9
:1006E00002F022FEDFED2B8AB0EE480A2548F0EE3C
:1006F000680A02F035FE2348F0EE680AB0EE480AB8
:10070000243002F02DFE9FED248A1E48B0EE480AE8
:1007100002F084FD1B48B0EE480A243002F07EFD52
:100720001849002448311D484C70086114310125D6
:100730004D70086102F03CFE1248483002F033FE72
:1007400010485C3002F02FFE154880ED028A80EDE3
:10075000038A80ED048A80ED058A80ED068A80EDAB
:10076000078A046204708470C470047144718471D7
:1007700044624570BDEC028B70BD0000AE47E13DA8
:100780000000C842F40200208FC2F53C00002A435A
:10079000333393400000C8C200000000C4000020B2
:1007A0002800002010B5064C606A38B101F0D2F97B
:1007B000616A401A0A2801D8012010BD002010BD2E
:1007C00028000020014840797047000028000020E0
:1007D00070B5794C2DED068B82B06078002814D06E
:1007E0006079002811D0FFF73BFF60B1FFF7DAFF17
:1007F00048B1694601A803F06DFCA078DFED6F8A6F
:10080000012630B112E000F085F902B0BDEC068B94
:1008100070BD9DED010A84ED020A9DED000A84ED94
:10082000030AC4ED048AC4ED058AA67003F08CFAAD
:1008300005460078E0B3642003F09CFAC0B320784A
:1008400018B12869216A88424CD0B5F9020000EE3F
:10085000100AB8EEC00ADFED5A0AB5F9040030EE0E
:10086000200A00EE900AF8EEE00A9FED561A30EEEC
:10087000819ADFED550A30EE600A9FED548AF0EE62
:10088000480A03F0ABFAF0EE409AF0EE480A9FED0A
:10089000500A03F0A3FA39EEC08A9FED4EAAF0EE9B
:1008A0004A0A9FED4D0A03F099FAF0EE409A00E0F3
:1008B00018E09FED4A0AF0EE4A0A39EE400A03F0CA
:1008C0008DFADDED010A39EEC00A70EE880AC4ED3A
:1008D000020ADDED000A30EE800A84ED030A286981
:1008E0002062267094ED020ADDED010A30EE600A06
:1008F00003F08AFFB0EE401A94ED030ADDED000A22
:10090000B0EE418A30EE600A03F07EFFD4ED040AB7
:10091000DFED331A334838EE601A41EE210AC4ED98
:10092000040A94ED051A30EE410A00EE211AB1EEE8
:10093000600A84ED051A02F075FCB0EE409A94ED61
:10094000050A2848B1EE400A243002F06BFCB0EEF4
:10095000408A02F05DFDD4ED070A30EE600A03F034
:1009600053FFB5EEC08AF1EE10FA04DD10EE100A66
:10097000B0F17C5F09DAB5EEC08AF1EE10FA10D260
:1009800010EE100AB0F13F4F0BD39DED000A154851
:1009900084ED030AB0EE688A84ED058A243002F003
:1009A000E5FCDFED118A29EE280A02F00BFF28EEA4
:1009B000280A02F00DFF28E72800002000000000B0
:1009C00000005F4300005D437E179543F2394244C7
:1009D000F85D96C21DA61144208D1AC1D2A86643A7
:1009E0009A99993EF4020020EBC9184110B5034CC6
:1009F0000120A07101F0AEF8606210BD2800002057
:100A00001FB51E4C6078A8B3FFF700FE90B301A994
:100A1000684603F05FFBFFF7FFFDFFF70FFD84ED76
:100A2000060A02F0F5FC84ED070A0120E07003A934
:100A300002A803F04FFB2079C8B1A078B8B19DEDB2
:100A4000020ADDED000A30EE600AD4ED020A30EE53
:100A5000200A84ED020A9DED030ADDED010A30EE65
:100A6000600AD4ED030A30EE200A84ED030A012067
:100A700004B010BDFFE70020FAE7000028000020C6
:100A800010B5322002F0EEFC10B102F0E5FC10B916
:100A9000084802F088FC322002F0CCFC18B102F0C9
:100AA000C3FC002805D10348BDE81040143002F013
:100AB0007ABC10BD3C0300201CB5134C607808B311
:100AC000E078F8B1FFF7CCFDE0B101A9684603F08A
:100AD00001FB9DED000A0E4884ED020A9DED010A1E
:100AE00084ED030A9FED090A84ED040A84ED050AEA
:100AF00002F03CFC0648243002F038FC0120A070D3
:100B000060711CBD00201CBD2800002000000000FA
:100B1000F402002010B5104C2DED028B60780028F7
:100B200016D000209FED0D8A6071B0EE480A02F0E9
:100B300049FEB0EE480A02F04BFE094802F016FCEE
:100B40000748243002F012FC84ED048A84ED058A03
:100B5000BDEC028B10BD000028000020000000004A
:100B6000F402002006498879002808D0EFF31080AD
:100B700072B600228A7100B962B6FFF729BE7047CB
:100B800028000020014800F033BD0000A40100202F
:100B9000014800F02DBD000094020020014800F043
:100BA00027BD00004401002001681823CAB2103A92
:100BB000B2FBF3F2054B6FF30901032A9B5CC3659B
:100BC00000D9091D8165084670470000A648000845
:100BD00010B5014600208B698A6A4FF0C07453B18A
:100BE000B3F5005F15D072B1012A0CD0022A0AD0E9
:100BF000032A09D104E01AB1012A06D0022A03D13E
:100C0000C96AC90100D5012010BDC96AA142FAD044
:100C100010BD002AF7D0012AF2D0022AF3D0032A0D
:100C2000F3D010BD30B50468256825F48025256013
:100C3000046863608368402B036803D09960006890
:100C4000C26030BD9A600068C16030BD704700006E
:100C5000034804490068B0FBF1F00349086070479D
:100C60000C00002040420F00C0000020102000F0C7
:100C700063BE202000F060BE72B6FEE700F06ABFDF
:100C80002DE9F0414FF0E0256F69DFF83880D8F8A2
:100C9000000008B9FFF7DCFF00F05CFF0446AE6916
:100CA00000F058FF8442F7D1D8F80000B91BB1FB1F
:100CB000F0F004EB4401C1EBC41100EBC100BDE84E
:100CC000F0810000C000002010B5FFF7F3FCFFF733
:100CD00021FFFFF7BFFB054C08B1042003E000F043
:100CE00039FF60600120207010BD0000500000201E
:100CF00070B5FFF737FF124C02252078012803D08A
:100D000002280DD003280AD103F004FDFFF77EFC72
:100D1000002804D003F01EFD002800D0257070BD0F
:100D2000FFF79EFC30B1FFF73DFD18B1FFF74AFD1C
:100D30000028F4D1FFF7EEFE0320207070BD000004
:100D40005000002090F82020012A07D0022A05D068
:100D5000416A41F480214162012070470068426984
:100D60000A43426100207047F0B590F820500468B3
:100D7000A468012D05D0022D03D0416A41F48021E1
:100D800057E014F0406F01D1E5004FD5C4F3016482
:100D90000125A5401D608D684FF4C0739DB1CE68DC
:100DA00035434E6845EAC605066803EB0417F5515E
:100DB0004FF4C275076805EB04150E697E51097D75
:100DC000012905D009E00E88CD6845EA4655EBE7D4
:100DD00001684E5946F480764E511179D57956798D
:100DE00041EA056195792D0445EA062529434FF42A
:100DF000C676056806EB0416A9511178D57841EA44
:100E00000561957852782D0445EA022211434FF48A
:100E1000C475026805EB04155151006803EB041119
:100E2000425842F0010242500020F0BD416A41F4B4
:100E3000001141620120F0BD10B590F82020012A78
:100E400007D0022A05D0416A41F480214162012085
:100E500010BD3B48D0F8002242F00102C0F8002249
:100E6000D0F8002222F47C52C0F80022D0F80022F0
:100E70004B6A42EA0322C0F800220A7D02F01F03F7
:100E800001229A40D0F81C329343C0F81C32CB693F
:100E9000B3B9D0F80C329343C0F80C328C894B684C
:100EA00064F31F434C6900EBC404C4F840320C895E
:100EB0000B6864F31F434C6900EBC404C4F844326C
:100EC000CB69012B16D1D0F80C321343C0F80C3289
:100ED0000C884B6864F31F434C6900EBC404C4F8EE
:100EE00040320C89CB6864F31F434C6900EBC404A7
:100EF000C4F844328B69002BD0F804320ED013436F
:100F0000C0F804320B69002BD0F8143208D0134318
:100F1000C0F81432096A012904D008E09343EFE7CE
:100F20009343F5E7D0F81C121143C0F81C12D0F817
:100F3000001221F00101C0F80012002010BD0000D5
:100F400000640040704770B590F82040012C05D037
:100F5000022C03D0416A41F4802128E0046809B3DF
:100F60002469A40720D04FF4D874056804EB011459
:100F70002D5915F00405956005682D591AD0ED0816
:100F8000556005682C5904F00204D4604FF4DA74FB
:100F9000056804EB01142E5906F00F06082E0CD339
:100FA00008250DE0E468DCE7416A41F40011416284
:100FB000012070BD6D0D1560E3E72D5905F00F059B
:100FC000156105682D59C5F30725956105682C59EC
:100FD000240C54614FF4DC72046802EB0112A45833
:100FE0001C700468A458240A5C700468A458240C7B
:100FF0009C700468A258120EDA704FF4DE72046816
:1010000002EB0112A4581C710468A458240A5C71F4
:101010000468A458240C9C710468A258120EDA715A
:10102000006829B1016941F020010161002070BD13
:10103000C16841F02001C160F8E70246002092F843
:101040002010012901D002290CD111688A685201AF
:1010500000D501208A68120100D5401C8968C900AA
:1010600000D5401C70472DE9F05F0546006800245C
:101070004669D0F804908768D0F80CB0D0F810A07A
:10108000D0F81880F10748D0F90714D00121816009
:10109000B80703D5284600F04AFA0CE0780702D5D5
:1010A0004FF4006407E0380702D54FF4805402E0A3
:1010B000284600F03BFAF80516D529684FF48070F1
:1010C0008860B80503D5284600F033FA0CE07805AF
:1010D00002D544F4005407E0380502D544F48044B6
:1010E00002E0284600F024FAF80316D529684FF4E8
:1010F00080308860B80303D5284600F01CFA0CE065
:10110000780302D544F4004407E0380302D544F4E0
:10111000803402E0284600F00DFA300707D55FEA78
:10112000CB6004D52968102044F40074C8607007AF
:101130004FF0080707D55FEA0B7004D52868C76031
:10114000284600F06FF9B00706D52868C068800708
:1011500002D0284600F068F9700607D55FEACA6039
:1011600004D52968102044F480640861B00607D5CE
:101170005FEA0A7004D528680761284600F0A6F9DE
:10118000F00606D528680069800702D0284600F0DE
:101190009EF9B00308D55FEAC96005D5296810201B
:1011A0004860284600F094F9F00307D55FEA09701B
:1011B00004D528684760284600F0BEF9300446D5BB
:1011C0005FEA497040D5F00504D55FEAC87001D0E8
:1011D00044F00104B00504D55FEA887001D544F0FD
:1011E0000204700504D55FEA487001D544F0040498
:1011F000300529D518F0700F26D008F0700040286F
:1012000015D006DC102809D020280AD0302816D1A5
:101210000AE050280ED0602811D10EE044F00804F6
:101220000DE044F010040AE044F0200407E044F02C
:10123000400404E044F0800401E044F48074286831
:10124000816921F070018161296804204860002CC7
:1012500005D0686A204368622846FFF773FEBDE840
:10126000F09F70B5040003D094F8200010B104E0A2
:10127000012070BD204600F081F82068016841F02F
:101280000101016000F066FC0546052604E000F05F
:1012900061FC401B0A2811D820684068C007F6D0BE
:1012A0002068016821F00201016000F053FC05464E
:1012B0000BE000F04FFC401B0A2806D9606A40F49E
:1012C0000030606284F82060D2E7206840688007C0
:1012D000EFD4207E0128206801683DD021F08001F4
:1012E0000160607E01282068016838D021F040014B
:1012F0000160A07E01282068016833D021F0200120
:101300000160E07E0128206801682ED041F01001C4
:101310000160207F01282068016829D021F00801A0
:101320000160607F01282068016824D021F0040159
:101330000160D4E902010843D4E9041211430843CF
:101340006168491E08432168C8610020606201206D
:1013500084F82000002070BD41F08001C0E741F01A
:101360004001C5E741F02001CAE721F01001CFE7B5
:1013700041F00801D4E741F00401D9E710B586B087
:10138000044614216846FEF7E6FF23492068884298
:101390003FD122480021026842F0007202600068DA
:1013A00000F0007005901D481038026842F00802F5
:1013B00002600068022200F0080005900320CDE9D9
:1013C0000210CDE90002092004906946144800F09B
:1013D000BFFA00221146132000F02AFC132000F06F
:1013E00019FC00221146142000F022FC142000F009
:1013F00011FC00221146152000F01AFC152000F007
:1014000009FC00221146162000F012FC162000F004
:1014100001FC06B010BD00000064004040380240EE
:10142000000C02407047000030B5244989B0884262
:1014300035D16B4602AA0021FFF785FD00282ED189
:10144000049800282BD10598002828D10698082850
:1014500025D102984FF4A062904203D0A0F5A0617C
:1014600001391CD1BDF80610DFED150A00EE101A87
:101470009FED141A144CB8EE400A0125904260EE1C
:10148000200A80EE810A0CD184ED020A9DF800004A
:1014900000F00100A07000F05DFB2061257009B034
:1014A00030BD84ED030A9DF8000000F00100E070FB
:1014B00000F050FB60616570F1E70000C40000209F
:1014C000DB0FC94000FF7F471000002070477047C6
:1014D0007047000070B5044690F82000012804D041
:1014E000606A40F40020606218E0022084F8200066
:1014F0002068016821F00101016000F02BFB054626
:101500000EE000BF00F026FB401B0A2808D9606AE5
:1015100040F400306062052084F82000012070BD96
:1015200020684068C007EDD1606270BD70477047A9
:10153000704770477047704770472DE9F041044687
:10154000876D00F007FB064694F835000025022859
:1015500006D08020606584F834500120BDE8F08119
:101560002068016821F0160101602068416921F0BE
:1015700080014161206C08B9A06C20B1206801682D
:1015800021F0080101602068016821F0010101607B
:101590000CE000F0DFFA801B052807D920206065E9
:1015A000032084F8350084F83450D7E720680068B9
:1015B000C007EED194F85C103F208840B86001204D
:1015C00084F8350084F834500020C7E790F83510CF
:1015D000022903D08021416501207047052180F850
:1015E00035100068016821F001010160002070479A
:1015F0002DE9F84304464FF00009CDF80090634808
:101600004FF41651A56D0068B0FBF1F72E6894F801
:101610005C10082000FA01F131420FD021680A68FD
:1016200052070BD50A6822F004020A6094F85C1095
:101630008840A860606D40F00100606594F85C101F
:101640004FF0010808FA01F0304208D021684969DA
:10165000090604D5A860606D40F00200606594F84A
:101660005C1004208840304208D02168096889074E
:1016700004D5A860606D40F00400606594F85C10CB
:1016800010208840304218D021680968090714D515
:10169000A86020680168490304D50068000308D5E4
:1016A000A16C07E00168C90503D4016821F00801B5
:1016B0000160216C09B12046884794F85C10202015
:1016C0008840304231D021680968C9062DD5A8600C
:1016D00094F8350005282068016806D0490347D5ED
:1016E000006800031DD4616C1CE021F0160101604C
:1016F0002068416921F080014161206C08B9A06C2B
:1017000020B12068016821F00801016094F85C10A4
:101710003F208840A86084F8358084F83490216D9B
:101720001FE0E16B09B120468847606D00282BD08F
:10173000606DC00714D0052084F83500206801686A
:1017400021F0010101600098401C0090B84203D8CC
:1017500020680068C007F6D184F8358084F834909A
:10176000E16C002910D001B02046BDE8F0430847E5
:101770000168C905D5D4016821F01001016084F821
:10178000358084F83490CCE7BDE8F8830C00002065
:101790002DE9F041044600F0DDF906465CB1022077
:1017A00084F83500002584F834502068016821F061
:1017B000010101600DE00120BDE8F08100F0CAF9EF
:1017C000801B052805D920206065032084F835009A
:1017D000F2E720680068C007F0D12268116820484D
:1017E0000140D4E901031843D4E9033633431843D5
:1017F00063691843A3691843E3691843236A1843CC
:101800000843616A042903D1D4E90B13194308433F
:10181000106020684069666A20F0070130460E4378
:10182000012704280CD1A06A0643E06A40B1204693
:10183000FFF7CEF920B14020606584F83570BAE733
:10184000206846612046FFF7AFF994F85C203F21FD
:1018500091408160656584F835700020ACE7000038
:101860003F8010F02DE9F0410446866D90F8340079
:10187000002501280DD0012084F8340094F835703B
:101880000020012F07D084F8340002252846BDE847
:10189000F0810220FBE7022784F83570606520465E
:1018A000FFF7C0F994F85C103F208840B0602068D2
:1018B000016841F016010160206C20B120680168C8
:1018C00041F0080101602068016841F001010160F8
:1018D000DCE7000070B5044600F03CF90546601CEA
:1018E00002D004480078044400F034F9401BA042C0
:1018F000FAD370BD0000002010B5202814D10B4C85
:10190000A078002810D100220121094800F01DF91B
:101910000120A07004F14C02BDE810400723A2F1A1
:101920000801044800F0B8BE10BD000058000020B7
:1019300000040240EC000020044910B50A6802428D
:1019400002D00860FFF7D8FF10BD0000143C014032
:101950002DE9F84FDFF8BCA10022012503264FF046
:101960000F090AF1040BAAF1040E00BF0B6805FA77
:1019700002F42340A34270D10F7907F00307012F2F
:1019800001D0022F16D187684FEA420806FA08FCF8
:1019900027EA0C07D1F80CC00CFA08FC4CEA070C3B
:1019A000C0F808C04768A7430C79C4F300149440FA
:1019B0003C4344600C79E443A4070AD0C4684FEA6E
:1019C000420C06FA0CF7BC438F6807FA0CF7274362
:1019D000C7600C7904F00304022C12D1D40800EB88
:1019E000840CDCF820405707FF0E09FA07F824EAB8
:1019F0000804D1F8108008FA07F848EA0408CCF87F
:101A0000208004684FEA420C06FA0CF7BC430F79B9
:101A100007F0030707FA0CF7274307604C6814F434
:101A2000403F70D03C4C276847F4804727602468CB
:101A300022F0030704F480440094384C07EB040CB4
:101A4000DCF8084897074FEA177809FA08F7BC430B
:101A5000334FB84202D1002724E054E0314FB8425E
:101A600001D101271EE0304FB84201D1022719E011
:101A70002E4FB84201D1032714E02D4FB84201D1B7
:101A800004270FE02B4FB84201D105270AE02A4F67
:101A9000B84201D1062705E0284FB84201D10727F7
:101AA00000E0082707FA08F72743CCF80878DAF8A7
:101AB00000405746D1F804C09C435FEACC2C00D5C7
:101AC0001C433C60DBF800405F46D1F804C09C43F7
:101AD0005FEA8C2C00D51C433C60DEF80040774662
:101AE000D1F804C09C435FEA8C3C00D51C433C60A9
:101AF000084F083F3C68D1F804C09C435FEACC3CE7
:101B000000D51C433C60521C102AFFF42FAFBDE8E7
:101B1000F88F0000083C014044380240003001408A
:101B2000000002400004024000080240000C024095
:101B3000001002400014024000180240001C024045
:101B40000069084000D0012070470AB181617047E8
:101B50000904FBE70148806870470000000000208E
:101B600002488168027811448160704700000020BB
:101B70000B4810B5016841F400710160016841F43F
:101B800080610160016841F480710160032000F010
:101B90006FF80F2000F006F800F024F8002010BDC8
:101BA000003C024070B50D4D04464FF47A71287820
:101BB000B1FBF0F00A490968B1FBF0F000F06BFEF0
:101BC00048B9102C07D200222146501E00F030F8F0
:101BD00000206C6070BD012070BD0000000000207E
:101BE0000C0000200A4808B5016841F480410160FA
:101BF000006800F4804000900548001F016841F033
:101C000080510160006800F08050009008BD000025
:101C100044380240002809DB00F01F0201219140F6
:101C20004009800000F1E020C0F80011704700007A
:101C3000F0B40E4B1B680C46C3F30223C3F1070537
:101C4000042D00D90425191D072901D2002300E025
:101C5000DB1E012606FA05F1491E214099409E40EF
:101C6000761E16403143F0BC02F0A7B80CED00E040
:101C7000064900F0070208684FF6FF03184040EAE3
:101C80000220034A10430860704700000CED00E09A
:101C90000000FA052DE9F0470E46050065D0DFF893
:101CA0001481D8F80000F7B200F00700B04207D264
:101CB00088F80070D8F8000000F00700B04254D156
:101CC00028683D4C810712D5400703D5206840F4B1
:101CD000E05020602878000703D5206840F4604079
:101CE00020602068A96820F0F00008432060287870
:101CF000C0072DD0304968680839012812D0022861
:101D000013D0032811D00968890700292DDA21682A
:101D100021F0030101432160FFF71CFF814641F2DE
:101D2000883A0EE009688903EFE709688901ECE762
:101D3000FFF710FFA0EB0901514502D90320BDE8D0
:101D4000F0872068696800F00C00B0EB810FEFD1DC
:101D5000D8F80010404601F00701B14207D90770DA
:101D6000006800F00700B04201D00120E7E72878C2
:101D7000400705D52068E96820F4E050084320605A
:101D80002878000706D52068296920F4604040EAD9
:101D9000C100206000F038F82168084AC1F303113F
:101DA000515CC8400649086006480068FFF7FAFE23
:101DB0000020C4E7003C024008380240AE4800085A
:101DC0000C00002004000020044805490068096850
:101DD000044AC1F38221515CC84070470C000020C6
:101DE00008380240BE4800080448054900680968F0
:101DF000044AC1F34231515CC84070470C000020D6
:101E000008380240BE480008154810B5006810F0B8
:101E10000C02144813D01449042A0FD0082A0ED1FA
:101E20000F4C241F2268236802F03F025B0207D593
:101E30002068C0F38810A0FB010106E0084610BD31
:101E40002168C1F38811A1FB00010023FEF70CFA01
:101E50002168C1F30141491C4900B0FBF1F010BDFC
:101E6000083802400024F400001BB7002DE9F84FA9
:101E700004006ED02078DFF84C93C007A9F1040568
:101E80004AD009F104000168C1F38101012908D099
:101E90000068C0F3810002280AD1D9F8000040028E
:101EA00006D52868800337D560680028E1D033E084
:101EB0006068B0F5803F10D0B0F5A02F286810D032
:101EC00020F480302860286820F480202860606832
:101ED000A8B1FFF73FFE06460DE0286840F48030C9
:101EE000F4E740F480202860F7E700BFFFF732FEF8
:101EF000801B642873D828688003F7D50CE0FFF7AF
:101F000029FE064605E000BFFFF724FE801B64287B
:101F1000F0D828688003F7D42078DFF8AC828007F7
:101F20004FF0000A3ED5A748001D016811F00C0FC4
:101F300008D00068C0F3810002280BD1D9F8000056
:101F4000400207D42868800716D5E068012800D130
:101F500012E033E1E068B8B10120C8F80000FFF7F3
:101F6000F9FD064605E000BFFFF7F4FD801B0228DF
:101F7000C0D828688007F7D52868216920F0F800C4
:101F800040EAC10028600DE0C8F800A0FFF7E2FDBC
:101F9000064604E0FFF7DEFD801B02281FD82868F4
:101FA0008007F7D42078000722D5864F87486169DB
:101FB000703771B101210160FFF7CCFD064604E0E6
:101FC000FFF7C8FD801B022809D838688007F7D5BD
:101FD0000EE0C0F800A0FFF7BDFD064605E082E078
:101FE000FFF7B8FD801B02287DD838688007F7D43A
:101FF0002078400768D5DFF8CCB100270BF13C0B07
:10200000DBF80000C0000BD4DBF8001041F0805179
:10201000CBF80010DBF80000012700F080500090A2
:102020006B4E3068C00510D4306840F4807030606A
:10203000FFF790FD009005E0FFF78CFD0099401A36
:10204000022850D83068C005F6D55E4EA0686C36C0
:1020500001280FD00528306810D020F00100306032
:10206000306820F004003060A068B8B1FFF772FD5E
:1020700000900FE0306840F00100F4E740F0040009
:102080003060F7E7FFF766FD0099411A41F28830AA
:10209000814266D830688007F4D50EE0FFF75AFD1C
:1020A000009007E0FFF756FD0099411A41F2883091
:1020B000814256D830688007F4D42FB1DBF8001085
:1020C00021F08051CBF80010A069C8B33D49091D2B
:1020D0000968C1F3810102294AD00228504607D07D
:1020E000C8F8600000E03CE0FFF734FD04463BE048
:1020F0004746C8F86000FFF72DFD064605E000BF23
:10210000FFF728FD801B02282BD828688001F7D410
:10211000D4E907010843A16A2E4A490802EB0141AC
:10212000626A41EA8211084394F82C1040EA016186
:10213000C9F8001001203866FFF70CFD044606E0E0
:102140003EE000BFFFF706FD001B022809D8286803
:102150008001F7D534E000BFFFF7FCFC001B02282C
:1021600002D90320BDE8F88F28688001F4D427E065
:102170000128F7D0D9F80000E26900F4800191420B
:102180001CD1226A00F03F01914217D147F6C0717D
:10219000626A0140B1EB821F10D1A26A4FF0FF3397
:1021A00000F4403103EB5202B1EB024F06D194F838
:1021B0002C1000F07060B0EB016F01D00120D1E76E
:1021C0000020CFE70438024000004742800E47421B
:1021D000007000400000FFFF7047000038B5016844
:1021E00004464A688868C043430606D5C30704D13D
:1021F000D3435B0601D4216C05E0830708D4D343A5
:102200001B0605D4616C01B02046BDE8304008478C
:10221000830603D5430601D5C30551D4D3439B069A
:102220004ED443060AD494F85130032B49D0636D41
:1022300043F004036365CB688B680093830609D47D
:10224000636D43F0010363658B6800930B6823F0B3
:1022500040030B60C00506D4606D40F00800606567
:10226000206880680090606D002829D0206841684F
:1022700021F0E0014160012084F85100900701D471
:10228000D00722D02068416821F003014160114D40
:10229000E06C40B10565E06CFFF798F918B1606D2E
:1022A00040F040006065A06C002809D00565A06C76
:1022B000FFF78CF9002803D0606D40F040006065A6
:1022C00038BDC8688868009038BD2046FFF784FF95
:1022D00038BD00003135000870B5040009D0606ACF
:1022E000002540B125616561A56294F8510040B1B7
:1022F0000CE0012070BD6068B0F5827FF4D0E5612C
:10230000F2E784F85050204600F044F8022084F8A8
:1023100051002068016821F040010160A0882189F6
:1023200000F4827001F404410843A18901F40061C2
:102330000843217C01F002010843217D01F00101E5
:102340000843218B01F400710843217F01F038011B
:10235000084394F8201001F080010843218D01F416
:102360000051084321680860A069042101EA104077
:1023700094F8241001F01001084321684860206897
:10238000C16921F40061C1616565012084F85100D3
:10239000002070BD2DE9F04387B006461421684641
:1023A000FDF7D9FF3949306888426BD1384800249D
:1023B000016841F480510160006800F4805005908C
:1023C00033481438016841F002010160016801F0EE
:1023D00002010591016841F00101016000680225D8
:1023E00000F0010005901820CDE9000502AA03279E
:1023F0004FF0050882E8900169462648FFF7A8FAE1
:102400008020CDE9000502AA694682E890012248B1
:10241000FFF79EFA224D21487F06E5E8020740209B
:102420004FF48068A5E811014FF4003945F81449CC
:102430001B48AC61C5E907496C62FFF7A9F908B10F
:10244000FEF71AFCB564AE63154D14486035483884
:102450002860C5E90174C5E903486C61AC61C5E950
:10246000074928466C62FFF793F908B1FEF704FCB0
:10247000F564002211462320AE63FFF7D9FB232029
:10248000FFF7C8FB07B0BDE8F08300000030014053
:1024900044380240000402400000024058640240F8
:1024A00044010020704770472DE9FF4F81B01D4661
:1024B000934604464FF001090E9EFFF74BFB07467B
:1024C00094F851006168012806D0B1F5827F3CD1B3
:1024D000A168C9BB042838D10298002871D0BBF18B
:1024E000000FFBD0002DF9D094F8500001282CD01B
:1024F0004FF0010A84F850A094F85100042802D04B
:10250000052084F851004FF00008C4F85480C4F846
:1025100038B0E587A58702992163E586A586C4F8CA
:102520004080C4F8448020680168490603D40168EB
:1025300041F040010160E068B0F5006F606808D0CC
:10254000F0B3012D49D081E0FFE7022005B0BDE8DE
:10255000F08F08B1012D39D1206B21680088C86047
:10256000206B801C2063E08E401EE0862EE02068F9
:10257000816889070FD5E18E69B1B9F1010F0AD1E0
:10258000216B0988C160206B801C2063E08E401E97
:10259000E0864FF0000920688168C9070CD0E18F00
:1025A00051B1C068A16B0880A06B801CA063E08F54
:1025B000401EE0874FF00109FFF7CCFAC01B01E095
:1025C0000BE067E0B04201D3701C50D1E08E0028D0
:1025D000CDD1E08F0028CAD13EE0206B2168007881
:1025E0000873206B401C2063E08E401EE0862DE0C7
:1025F0002068816889070FD5E18E69B1B9F1010FB3
:102600000AD1216B09780173206B401C2063E08E96
:10261000401EE0864FF0000920688168C9070CD091
:10262000E18F51B1C068A16B0870A06B401CA06322
:10263000E08F401EE0874FF00109FFF78BFAC01BC7
:10264000B04202D3701C01D011E086B1E08E0028A8
:10265000CED1E08F0028CBD13A463146204601F05A
:102660001BF850B12020606584F8508012E084F897
:1026700051A084F85080032068E7A06818B920684A
:10268000C1688068009084F851A084F85080606D23
:102690000028F1D0012059E770B5044690F85100A8
:1026A0006568012806D0B5F5827F3AD1A568A5BB3B
:1026B000042836D191B38AB383B394F8500001282B
:1026C0002FD0012084F8500094F85100042802D043
:1026D000052084F85100002565652163A386E38603
:1026E000A263A387E3872564656494F851000428F6
:1026F00019D0E16C274808642748E16CC863E16C95
:102700002648C864E06C0565E38F2168A26B0C3134
:10271000E06CFFF7A7F800BB0AE002E0FFE701204A
:1027200070BD022070BDE16C1D4808641D48E4E7DF
:102730002068416841F001014160A06C0564A06C13
:10274000C563A06CC564A06C0565E38E2268216B2F
:102750000C32A06CFFF786F830B1606D40F01000CD
:10276000606584F85050DAE720680168490603D4B0
:10277000016841F04001016084F8505020684168D0
:1027800041F0200141602068416841F00201416050
:10279000002070BD6D350008E135000841350008A6
:1027A000633500087735000870B500683249884203
:1027B00060D1324CA078324D012843D0A078022855
:1027C00058D1012210212846FFF7BFF904F15C001F
:1027D000B0F9021000EE101AF8EEC00AB0EE080AC6
:1027E00020EE801ADFED270A61EE201A9FED261AEF
:1027F00061EE811AC4ED0A1AB0F9041001EE901AC4
:10280000F8EEE11A61EE801A61EEA01A61EE811A0B
:10281000C4ED0B1AB0F9060001EE900AF8EEE11AC9
:1028200021EE800A20EE200A20EE010A84ED0C0A37
:1028300002F004F801F0E6FD0020A070BDE8704051
:10284000FEF7D4B8012211461048FFF77EF901F0D7
:102850005FFD002210212846FFF777F90220A070C3
:10286000064ABDE8704008235C32A2F1080108481E
:10287000FFF712BF70BD000000300140580000207B
:10288000000002400AE81C41000000380004024039
:10289000EC000020704710B5401EB0F1807F01D3DE
:1028A000012010BD4FF0E02460610F21601701F09E
:1028B00084FA0020A06107202061002010BD38B5F7
:1028C000044690F84200202801D0022038BD51B1C2
:1028D0004AB10120206300206063204601F06CF9BA
:1028E000216B012901D0012038BD21680A6849689F
:1028F000009121680C3151E8002F42F0100241E8AC
:102900000023002BF5D138BD10B50068054A904270
:1029100006D1054801F048FCBDE8104001F062BF57
:1029200010BD00000014014064030020044A016847
:10293000914204D1002180F8401001F053BF70474C
:1029400000140140F8B5016804460868CA684B697C
:1029500010F00F0F4FF0000559D003F0010602F4FC
:102960009077374365D0C10705D0D10503D5616C99
:1029700041F001016164410705D5D90703D0616CBD
:1029800041F002016164810705D5D90703D0616C6C
:1029900041F004016164010707D502F020013143D1
:1029A00003D0616C41F008016164616C00293AD088
:1029B000800604D5900602D5204601F016F820685E
:1029C0004069616CC0F38010090700D460B32046F1
:1029D00000F0D6FF20684069400621D520681430F9
:1029E00050E8001F21F0400140E80012002AF5D114
:1029F000E06BA8B172490165E06BFEF7E7FD0028C6
:102A000011D0E06B016D01B0BDE8F04008478306CE
:102A10000FD593060DD52046BDE8F84000F0E5BF80
:102A20002046FFF783FFF8BD2046FFF77FFF656470
:102A3000F8BD266B2023012E7ED1C6067CD5D60696
:102A40007AD508684868009048694FF00206400649
:102A50004DD5E26B106840684FF480770004000C9D
:102A60003AD0A18D814237D9E085D069B8422DD0C6
:102A700020680C3050E8001F21F4807140E80012FB
:102A8000002AF5D12068143050E8001F21F0010120
:102A900040E80012002AF5D12068143050E8001FE9
:102AA00021F0400140E80012002AF5D184F84230BC
:102AB000256320680C3050E8001F21F0100140E829
:102AC0000012002AF5D1E06BFEF737FD6663A08D9A
:102AD000E18D401A81B206E0A18D8142A8D1D06972
:102AE000B842A5D166632046FFF70EFFF8BDA08D62
:102AF000E18D401A81B2E08D0028F7D00029F5D091
:102B000020680C3050E8002F22F4907240E8002733
:102B1000002FF5D12068143050E8002F22F0010278
:102B200040E80027002FF5D184F842302563206863
:102B30000C3050E8002F00E006E022F0100240E8E0
:102B40000023002BF3D1CDE705062BD5150629D59B
:102B500094F841002128C9D1A068B0F5805F01D167
:102B60002069B0B1206A411C216221680078486068
:102B7000E08C401E0004000CE084B7D12068C168DE
:102B800021F08001C1602068C16841F04001C1604E
:102B9000F8BD206A0088C0F308004860206A801CE5
:102BA0002062E5E74006F3D55006F1D5CA68204615
:102BB00022F04002CA6084F8413000F011F9F8BDFB
:102BC0008538000870B5040004D094F84100002551
:102BD00010B106E0012070BD84F84050204600F09E
:102BE00023F8242084F841002068C16821F40051B2
:102BF000C160204600F05AFF2068016921F490412D
:102C000001612068416921F02A0141612068C168A1
:102C100041F40051C1606564202084F8410084F8CB
:102C200042006563002070BDF0B587B006461421F0
:102C30006846FDF790FB3A49384B32680025384822
:102C40001439022403279A422AD1026842F0100262
:102C50000260006800F010000590086840F0020073
:102C60000860086800F002000590086840F0010064
:102C700008600868072600F001000590802004968F
:102C80008DE8B10069462748FEF762FE20020496EF
:102C90008DE8B10069462448FEF75AFE07B0F0BD42
:102CA000224B9A42FAD1026842F020020260006888
:102CB00000F020000590086840F0400008600868B7
:102CC000694600F0400005904FF484408DE8B10063
:102CD000082004901648FEF73BFE174C154820606C
:102CE0008005C4E901054FF48060C4E903506561C3
:102CF000A561E561256220466562FEF749FD08B1E0
:102D0000FDF7BAFFF463002211464720A663FEF7E1
:102D10008FFF4720FEF77EFFC0E700000010014054
:102D20004438024000040240000002400014014008
:102D30000018024028640240940200207047704747
:102D40002DE9F843044690F84100984616460D4692
:102D5000202802D00220BDE8F88385B17EB1002092
:102D60006064212084F84100FEF7F4FEA6848146C9
:102D7000E684A0682027B0F5805F02D003E0012040
:102D8000E9E7206910B12E4600250EE000260CE090
:102D90008021204600F060FFA8B9C6B116F8010BEB
:102DA00021684860E08C401EE084E08C4B464FF088
:102DB0000002CDF800800028EAD14FF04001204603
:102DC00000F04AFF40B184F841700320C3E735F8B2
:102DD000020BC0F30800E3E784F841700020BAE773
:102DE0007047FEE70F4810B50D49016003214160AF
:102DF00000214FF410228160C0E903124FF4001249
:102E00004261017641768176C17601774177FEF79E
:102E100028FA002803D0BDE81040FDF72DBF10BDF3
:102E200000640040C4000020114808B5016841F466
:102E3000800101600068002200F4800000901146CB
:102E40003820FEF7F5FE3820FEF7E4FE002211469A
:102E50003920FEF7EDFE3920FEF7DCFE0022114698
:102E60003B20FEF7E5FEBDE808403B20FEF7D2BE62
:102E7000303802402DE9F04F87B014216846FDF745
:102E80006AFA55480024016841F0020101600168B6
:102E900001F002010591016841F040010160016803
:102EA00001F040010591016841F0010101600168F4
:102EB00001F001010591016841F00801016001681C
:102EC00001F008010591016841F08001016001688D
:102ED00001F080010591016841F004010160006882
:102EE000DFF8F8B000F004000590012240F2011173
:102EF0005846FEF72AFEDFF8E8A04FF4807600225D
:102F000031465046FEF721FEDFF8D8804FF4E057F7
:102F1000002239464046FEF718FEDFF8CC90012229
:102F200010214846FEF711FE01250096CDE9015417
:102F3000694658460394FEF70BFD0096CDE901540F
:102F4000694650460394FEF703FD0097CDE901540E
:102F5000694640460394FEF7FBFCCDE90054694600
:102F600048460294FEF7F4FC1026CDE90065CDE951
:102F7000025469464846FEF7EBFC4FF48810009671
:102F8000CDE9010469465046FEF7E2FC202000909E
:102F90004FF40410CDE9010469465046FEF7D8FC11
:102FA000CDE902540095694658460195FEF7D0FCDC
:102FB000002211460A20FEF73BFE0A20FEF72AFEF9
:102FC000002211461720FEF733FE1720FEF722FEDF
:102FD00007B0BDE8F08F0000303802400004024026
:102FE00000080240001C024000000240104810B5DA
:102FF0000E4901604FF4827141600021022281601C
:10300000C0E9031201224261520282611022C0E92A
:103010000721416281620A21C162FFF75DF9002840
:1030200003D0BDE81040FDF727BE10BD00300140C1
:10303000EC0000200C4810B50A4901604FF4E13162
:103040004160002181600C22C160C0E904128161ED
:10305000C161FFF7B7FD002803D0BDE81040FDF7C0
:103060000BBE10BD00100140040200200C4810B53A
:103070000A4901604FF4E1314160002181600C2276
:10308000C160C0E904128161C161FFF79BFD0028A6
:1030900003D0BDE81040FDF7EFBD10BD00140140A6
:1030A0004C020020FEE70A680260898881800021C6
:1030B0008160C1604FF47A720161C0E90512C822D3
:1030C00002626422C26180F8241080F825108162B7
:1030D000C162016380F8341080F83C107047000032
:1030E0002DE9F0410446FDF7C9FD054694F8250099
:1030F000A0B3A06A0A30A84240D8A1882068FEF791
:103100001FFD70B15FF0000694F824000027B04264
:103110001FD046B1FDF7B2FDE062A068C8B180479C
:1031200017E00126F0E7FDF7A9FD2063E06800B194
:10313000804784F83470D4E90B01091AA0698142F0
:1031400005D294F83C00401C84F83C0001E084F86F
:103150003C7084F8246084F825700FE0FFE7A188B4
:103160002068FEF7EDFC88B15FF0000094F82410B1
:10317000814203D00120A56284F8250094F8241030
:103180002A462046BDE8F04100F005B80120EDE7F1
:1031900081607047FEE710B5044690F824000128CE
:1031A00013D194F8340040B3A06BE169101A88423F
:1031B0000BD9FDF763FDA06394F83400401CC0B246
:1031C00084F83400616901B1884794F83C00002814
:1031D00012D094F8240000280ED1FDF74FFD216B8A
:1031E000401A216A884207D9216911B194F83C003C
:1031F0008847002084F83C0010BDE06A0028E4D035
:10320000A169101A8842E0D9012084F8340061696C
:1032100001B18847FDF732FDA063D6E780ED030AD0
:103220007047000010B504462DED028BD0ED030A67
:1032300030EEC08AFDF724FD22690146801A00EEB7
:10324000100A9FED371AF8EE400A80EE810ADFED92
:10325000350AB0EE601A82B178B1D4ED051A78EE75
:10326000610A71EE881A80EE801A21EE800AD4ED90
:10327000060AF6EE001A40EE210A94ED012AB5EE98
:10328000C02AF1EE10FA24D094ED070AD4ED082AF2
:10329000C0EE021A82EE820AF4EEC01AF1EE10FAC3
:1032A00003DD00BFF0EE612A01E0F0EE402A01D21A
:1032B000B0EE610AF4EEE20AF1EE10FA02DDF0EE91
:1032C000620A06E0F4EEC00AF1EE10FA01D2F0EE66
:1032D000400A94ED000A62EE201A94ED022A20EED4
:1032E000080A22EE011A30EE210A30EE010A94EDAE
:1032F000071AB4EEC01AF1EE10FA06D394ED081ACC
:10330000B4EEC01AF1EE10FA01DDB0EE410A21610F
:1033100084ED058AC4ED060ABDEC028B10BD0000E9
:10332000002474490000000080EC030A00219FED96
:10333000090A80ED030A016180ED050A80ED060AA5
:103340009FED050A80ED070A9FED040A80ED080A4B
:103350007047000000000000E2A74A4FE2A74ACFF2
:1033600080ED070AC0ED080A7047000000219FEDBC
:10337000040A016180ED050A80ED060A704700002D
:10338000000000007047B4EEE00AF1EE10FA02D23D
:10339000B0EE600A7047B4EEC10AF1EE10FAF9DD42
:1033A000B0EE410A70470022012100F06DB8000024
:1033B00000B58BB028216846FCF7CDFF12490020EC
:1033C000087048708870C87001210590CDE9060129
:1033D00004900E20CDE9081069460C48FDF72CFD3D
:1033E00008B1FDF749FC0948FEF774F808B1FDF78C
:1033F00043FC02210548FDF7A5FC002801D0FDF79C
:103400003BFC0BB000BD000010000020C4000020F9
:10341000014890ED030A704710000020014890ED2C
:10342000020A7047100000200148C0787047000071
:103430001000002070B5074C0546607838B1FEF7E3
:1034400089FB6169401AA84201D8012070BD0020A3
:1034500070BD000010000020014880787047000017
:103460001000002070B5074C0546207838B1FEF7F3
:1034700071FB2169401AA84201D8012070BD0020CB
:1034800070BD00001000002010B50446114888B03F
:1034900006AB01704270110A817001200690002075
:1034A0000290039061780B4A01F580610091617888
:1034B0008DF8140001F580610191032004906946A4
:1034C0002069FDF751FC2069FDF7B7FD0028FAD00F
:1034D00008B010BD1400002010B504462DED028B7D
:1034E0009FED0D8ADFED0D0AB0EE481AFFF74BFF96
:1034F000C0EE080A9FED0A0A0421BDEC028B20EE03
:10350000800ABDEEC00A10EE100A02B22046BDE8E5
:103510001040FFF7B9BF000000007A4400007AC4F1
:1035200000FEFF460148FEF759BE0000EC000020F7
:1035300010B5806B0021C187C186FEF74DFE10BD1E
:1035400010B5806B01684A6822F003024A60416D41
:1035500041F010014165012180F85110FEF73CFE59
:1035600010BD10B5806BFEF79EFF10BD10B5806BCF
:10357000FFF790F910BD70B50546846BFEF7EAFAC7
:10358000024628680068C00526D42068416821F0FA
:1035900020014160A06818B96068B0F5827F16D03C
:1035A0002068416821F0010141606421204600F05B
:1035B00044F808B1202060650020E087012084F8ED
:1035C0005100606D40B12046FEF706FE70BD2068D8
:1035D000416821F00301E7E72046FEF763FF70BD75
:1035E00070B50546846BFEF7B5FA02462868006898
:1035F000C0051ED42068416821F02001416064218B
:10360000204600F049F818B1606D40F02000606578
:103610002068416821F0030141600020E086E087D6
:10362000012084F85100606D18B12046FEF7D4FDEA
:1036300070BD2046FFF7B8F870BDF8B50446406885
:103640004FF48273984221D1A0684FF48065B0F5A1
:10365000004F01D0A8420AD12068066826F0400633
:1036600006606068984211D1A068A8420ED000920E
:103670000B4600228021204600F044F8002804D0A8
:10368000606D40F0200060650320F8BD00920B469D
:1036900000220121EFE70000F8B515460E460B4663
:1036A000009204460122022100F02CF8A0B9134830
:1036B00013490068B0FBF1F04FF47A714843009071
:1036C0006068B0F5827F0DD133460022802120460C
:1036D000009500F017F870B1606D40F02000606553
:1036E0000320F8BD009830B1401E0090206880682B
:1036F000C0430006F6D50020F8BD00000C000020F5
:1037000000366E012DE9F8431E4691468846044670
:10371000089DFEF71FFA401B351AFEF71BFA0746F5
:1037200026480068C0F3CB3068430AE0701C09D01B
:10373000FEF710FAC01BA8420FD275B10098B8B3BB
:10374000401E00902068816838EA010033D00021D3
:103750004945EBD10020BDE8F8832068416821F09D
:10376000E00141606068B0F5827F0BD1A068B0F5E0
:10377000004F02D0B0F5806F04D12068016821F0BD
:1037800040010160A06AB0F5005F09D120680168BE
:1037900021F4005101602068016841F4005101608A
:1037A000012084F85100002084F850000320D2E763
:1037B000FFE70025C6E70121CAE700000C00002052
:1037C000704700000148FFF787BE00003C0300205F
:1037D0000148FFF781BE000050030020FEF7C0B98A
:1037E00030B593B030216846FCF7B5FD14210CA824
:1037F000FCF7B1FD1D480025016841F080510160D2
:10380000006800F0805011901948016841F480412F
:1038100001600068022400F48040119001200090B3
:10382000000401908001CDE9064006200890A82000
:10383000CDE9090404200B906846FEF717FB08B198
:1038400072B6FEE70CA90F2081E831004FF4A050BA
:103850000F904FF48050109005210CA8FEF71AFA33
:10386000002801D072B6FEE713B030BD40380240E8
:10387000007000400248016841F470010160704727
:1038800088ED00E010B5806B0021C185FFF74EF890
:1038900010BD70B5846B2068406994F84110C0F386
:1038A000C0100025212904D118B1E584204600F07C
:1038B0008EF82068406994F84210C0F380102229E5
:1038C00004D118B1E585204600F05AF8606C40F04C
:1038D000100060642046FFF729F870BD10B501465E
:1038E000806B096809684FF00002C9052ED4C285B3
:1038F00001680C3151E8003F23F4807341E8003443
:10390000002CF5D10168143151E8003F23F0010388
:1039100041E80034002CF5D10168143151E8003F32
:1039200023F0400341E80034002CF5D1202180F839
:103930004210016B012909D101680C3151E8003FA7
:1039400023F0100341E80034002CF5D14263016BF1
:10395000012902D0FFF7F2F910BD818DFEF7D4FFE7
:1039600010BD10B5806B01214163016B012902D0AC
:10397000FFF7E5F910BD818D4908FEF7C5FF10BDC1
:1039800001680C3151E8002F22F4907241E80023C5
:10399000002BF5D10168143151E8002F22F001020B
:1039A00041E80023002BF5D1016B012909D1016801
:1039B0000C3151E8002F22F0100241E80023002BC7
:1039C000F5D1202180F84210002101637047016881
:1039D0000C3151E8002F22F0C00241E80023002BF7
:1039E000F5D1202180F84110704708B590F84210B9
:1039F000222901D0022008BD82684FF480539A42E8
:103A000001D1016921B1816A9A421BD04AB10AE011
:103A10000268816A5268C2F308020A80816A891CBE
:103A200008E0026972B10268526802F07F020A700F
:103A3000816A491C8162C18D491E0904090CC18536
:103A400003D01BE002685268F1E70168CA6822F0FF
:103A50002002CA600168CA6822F48072CA600168E4
:103A60004A6922F001024A61202180F842100021B7
:103A70004163026B012A03D0FFF760F9002008BD03
:103A8000016301680C3151E8002F22F0100241E877
:103A90000023002BF5D101680A68D20602D50A6816
:103AA00049680091818DFEF72FFFE7E770B5044666
:103AB00000680169E26821F4405111430161216904
:103AC000A068E26908436169114308432168CA6834
:103AD00049F20C639A430243CA6020684169A269B3
:103AE00021F440711143416131492068884202D07C
:103AF0003049884202D1FEF777F901E0FEF764F918
:103B0000E2690023192164253226B2F5004F62686C
:103B100028D0A0FB0101930F9200FCF7A5FB014602
:103B2000B0FBF5F06FF01802504301EB800006EB9C
:103B30000010B0FBF5F000F0F002B1FBF5F002EB85
:103B40000012B1FBF5F06FF01803584301EB800051
:103B500006EB0010B0FBF5F000F00F0021681044F8
:103B6000886070BDA0FB010192185B41FCF77CFBF3
:103B70000146B0FBF5F00201B1FBF5F06FF0180360
:103B8000584301EB800006EBC000B0FBF5F000F0FD
:103B9000F80002EB4002B1FBF5F0584301EB800066
:103BA00006EBC000B0FBF5F000F00700D6E7000020
:103BB000001001400014014038B58162044682853E
:103BC000002013466064222284F84220E56B1F4ADD
:103BD000EA63E56B1E4A2A64E56B1E4AEA64E26BFF
:103BE00010650A462168E06B091DFDF73BFE30B108
:103BF00010206064202084F84200012038BD206835
:103C0000016840680090206948B120680C3050E895
:103C1000001F41F4807140E80012002AF5D12068AD
:103C2000143050E8001F41F0010140E80012002A62
:103C3000F5D12068143050E8001F41F0400140E801
:103C40000012002AF5D1002038BD0000DD38000840
:103C500063390008933800082DE9F8439846174661
:103C60000D460446089E24E0701C22D0FDF772FF2A
:103C7000A0EB0800B0421AD8CEB12068C16849074D
:103C800017D5802D15D0402D13D00168C9430907E1
:103C90000FD401680025406800902046FFF770FEB1
:103CA0000820606484F840500120BDE8F8830320B8
:103CB000FBE72068006835EA000004D00020B84225
:103CC000D2D00020F1E70120F9E700000148FEF71B
:103CD00039BE00004C020020FEE700001CB5094878
:103CE000009001200102019000220748FDF72DFFFE
:103CF00069460648FFF7D7F905490448FFF748FA2F
:103D00001CBD00000000024000080240B803002073
:103D1000153D00080749087820B10020087018B147
:103D2000012202E00120F9E700224FF480710248ED
:103D3000FDF70BBFBC000020000802400148FFF760
:103D4000CFB90000B803002000487047A40300204A
:103D5000064800219FED060A01704180818080EDB8
:103D6000020A80ED030A016100F03CBDA4030020BB
:103D70000000000010B50446FDF7ECFE0449096997
:103D8000401AA04201D8012010BD002010BD000043
:103D9000A40300204100080218BF04200A0E18BF27
:103DA00040F001004FF07F4232EA010108BF40F0CD
:103DB0000200012808BF052070470907090E0028E6
:103DC00004DB00F1E02080F80014704700F00F00E1
:103DD00000F1E02080F8141D7047000070B54FF02E
:103DE00068422DED048BF0EE408A18EE900AB0EE9A
:103DF000608A18EE101A02EB4003B3F1654F3CBF26
:103E000002EB4102B2F1654F7DD200BFC0F3C75350
:103E1000C1F3C7529A1A1B2A09DD10F0004F14BFD4
:103E20009FED830A9FED830ABDEC048B70BD12F1F8
:103E30001A0F36DA11F0004F09D010F0004F0CBF06
:103E40009FED7D0A9FED7D0ABDEC048B70BD88EE71
:103E5000889A19EE100AFFF79DFF042808BF00F0AA
:103E600017F918EE900AFFF795FF054618EE100AAD
:103E7000FFF790FF044619EE100AFFF78BFF042DA1
:103E800018BF052D08D1042C18BF052C04D100281B
:103E900004BF0220FCF78EFAB0EE490ABDEC048B99
:103EA00070BD4200B2EB410F3AD910F0004F19BF7C
:103EB000DFED630A9FED630ADFED630A9FED630A9E
:103EC000B0EE481A0A46B1EE688A80F00041F0EE82
:103ED000418A10460A1A5200B2F1807F34D248401B
:103EE00010F0004FDFED5A1A9FED5A2A1DBFBEEEAB
:103EF000001A70EEE10A30EE420AB6EE001A08BF70
:103F000070EEA10A00E040E008BF30EE020AB0EE19
:103F1000682A01EE482A08EE818AC2EE081A15E0E6
:103F200011F0004F04BF9FED4C0AF0EE400AD1D0D3
:103F300010F0004F19BFDFED490A9FED490ADFED90
:103F4000490A9FED490AC5E7C8EE881A21EEA11A71
:103F50009FED462ADFED462A41EE022A9FED452AD3
:103F600001EE222ADFED442A41EE022A9FED432A88
:103F7000BDEC048B01EE222A21EE811A01EE020A29
:103F800030EE210A30EE200A70BD4FF07F42B2EBD6
:103F9000400F28BFB2EB410F09D2F0EE480AB0EE55
:103FA000680ABDEC048BBDE8704000F06DB840EAD3
:103FB00001035B0008BF41F0FF410BD0B2EB400FA3
:103FC00008BFB2EB410F08D120F0804008EE900A04
:103FD00021F0804108EE101A18E7B2EB400F12BF33
:103FE0005FEA410340F0FF4001F000413FF40EAFB3
:103FF000B2EB410F12BF5FEA400200F0004041F017
:10400000FF413FF403AF4A0092EA40033FF5FEAEA2
:10401000002AACBF9FED1A0A9FED1A0A68EE808A4B
:1040200028EE008A18EE900A18EE101AEEE600004C
:10403000DB0FC9BFDB0FC93FDB0F4940DB0F49C0B6
:104040000000C9BF22AAFDB90000C93F22AAFD395C
:104050000060ED3EC30ACE3700000000000049C0FA
:1040600022AA7DBA0000494022AA7D3A2DAD65BD45
:104070008FB8D53D0FB511BE61C84C3EA8AAAABEE7
:104080000000804F0000802F30EE200A70470000B3
:104090009FED020A20EE000A7047000000000010A9
:1040A00010B500220346491E89B20FE0501840089F
:1040B00003EB8004D4ED000AF4EEC00AF1EE10FA2E
:1040C00001DD411EF0E703D2421C92B28A42EDD9D3
:1040D00010BD000070B5144C06462DED028B0D4648
:1040E0002079B0B1FFF794F9B0EE408AFCF7ACF953
:1040F00086ED000AFCF7A2F9D4ED060A70EE608A9C
:1041000094ED070A38EE400A00F07EFB38EE800A94
:1041100005E0FFF783F986ED000AFFF779F985EDF1
:10412000000ABDEC028B70BD2800002010EE100AC2
:10413000F6EE000A074960EE200AA1EB600000EEEF
:10414000100A20EE801AF7EE080A41EE400A20EE2F
:10415000800A7047DF59375FFDF70AFDFFF740FB24
:10416000FEF788FEFEF760FEFEF73CFEFEF77EFFE0
:10417000FEF73CFFFEF75EFFFFF7EAFD6423062231
:1041800006A10848FEF7DCFDFFF7A8FDFCF79CFD43
:10419000FCF7AEFDFFF7D2FDFAE70000424F4F54A7
:1041A0000D0A00000402002070B505462DED048BB9
:1041B00084B000200C46ADF80000019002900390FE
:1041C00002E0521CADF80020BDF80020A24202D24D
:1041D000A85C2428F5D190B24FF0FF36A0422AD235
:1041E000521CADF8002001AB6A46284600F0D6F814
:1041F00008BBBDF80000A0421DD2295C2C291AD1B1
:10420000401CADF8000002AB6A462146284600F08B
:10421000C5F880B9BDF80000A0420CD2295C2C2959
:1042200009D1401CADF8000003AB6A462146284680
:1042300000F0B4F820B1304604B0BDEC048B70BD82
:10424000019808B1012200E00022274C2270029957
:1042500061800398A080D2B300EE101ADFED230A2C
:104260009FED231AB8EEC00ADFED238A30EE200A54
:1042700000EE900AF8EEE00A30EE818ADFED1D0ACA
:1042800030EE600AF0EE680A00F0D0F9B0EE409A25
:10429000F0EE680A9FED190A00F0C8F939EE400AFD
:1042A0009FED179A84ED020AF0EE490A9FED150A78
:1042B00000F0BCF9F0EE408A9FED130AF0EE490AD7
:1042C00038EE400A00F0B2F938EEC00A04E0FFE729
:1042D0009FED0E0A84ED020A84ED030AFDF73AFC15
:1042E00020610020A8E70000A403002000005F4335
:1042F00000005D437E179543F2394244F85D96C253
:104300001DA61144208D1AC1D2A8664300000000EA
:104310001D4931F9010F00EE100A1B48F8EEC00AE2
:104320009FED1A0A4C3820EE801ADFED190A61EE73
:10433000201A9FED181A21EE812ADFED171AC2EE1E
:10434000212AC0ED0D2AB1F9022002EE102AB8EEA2
:10435000C22A22EE002A22EE202A22EE012AC2EEF2
:10436000212AC0ED0E2AB1F9041002EE101AB8EE9F
:10437000C22A22EE000A20EE200A20EE010AC0EE38
:10438000210AC0ED0F0A7047A40000200000FA4483
:1043900000000038DB0F4940000034432DE9F043B2
:1043A00007461488002501202E464FF0FF3C8C4222
:1043B0000AD217F80480B8F12B0F03D0B8F12D0FF3
:1043C00002D16046641CA4B26FF02F098C4210D257
:1043D00017F80480B8F1300F0BD3B8F1390F08D8B3
:1043E00005EB850609EB4605641C4544A4B201268D
:1043F000ECE72EB16843186014800020BDE8F0831C
:104400006046FBE710B5614C2DED048B204694ED22
:104410000A0A94ED0D9AD4ED0E8A94ED0F8A90ED70
:104420000C1AD0ED0B0AB5EEC00AF1EE10FA09D164
:10443000F5EEC00AF1EE10FA04D1B5EEC01AF1EEB5
:1044400010FA3BD020EE000A00EEA00A01EE010AAD
:10445000FFF76CFE94ED0B1AD4ED0A0AD4ED052A91
:1044600021EE003A94ED0C1A60EE800A94ED074AB2
:1044700061EE003A94ED061A94ED080A22EE812AC4
:1044800061EE001AB6EE001A12EEA21A42EEC41A3B
:1044900004EE002A00EE001A63EEA12A40EEC12AC3
:1044A00023EE010A60EE820A03EEC20A43EE610ABD
:1044B00078EEA28A39EE009A38EE208A9FED340A0F
:1044C00004F11400D4ED083A69EE001A28EE802AAF
:1044D00068EE002A90EC030A20EEE13A01EE423A3F
:1044E00003EEE23A73EE004A20EE213AC4ED054AAB
:1044F00001EE223A03EEC23A33EE204A20EE023AAF
:1045000020EE220A84ED064A00EEE23A00EE820A2C
:1045100003EEA13A01EE610A33EE013A70EE230A8E
:1045200024EEA40A84ED073AC4ED080A04EE040A56
:1045300003EE030A00EEA00AFFF7F8FDD4ED050A2A
:1045400060EE800AC4ED050A94ED061A61EE001AC9
:10455000C4ED061A94ED071A21EE001A84ED071A2D
:1045600094ED082A22EE000A84ED080A21EE800A62
:1045700000EEC10AF8EE000A20EE200A00F00AF868
:1045800084ED090ABDEC048B10BD0000580000202A
:104590006F12033AB5EEC00A10B5F1EE10FA2DED28
:1045A000028B04D2BFEE008AB1EE400A01E0B7EE02
:1045B000008A4FF480610848FFF772FD00EE100A90
:1045C000DFED060AB8EE400A28EE000ABDEC028BC9
:1045D00020EE200A10BD0000C8480008DB0FC93AD1
:1045E000B5EEC00A10B5F1EE10FA2DED028B04D233
:1045F000BFEE008AB1EE400A01E0B7EE008A4FF448
:1046000080610848FFF74CFD00EE100ADFED060A56
:10461000B8EE400A28EE000ABDEC028B20EE200A1C
:1046200010BD0000C8580008DB0FC93A10B52DEDC9
:10463000028BF0EE608AB0EE408AF5EEC08AF1EEB1
:1046400010FA0CD1B5EEC08AF1EE10FA04DB9FED42
:10465000130ABDEC028B10BD9FED110AF9E788EE3D
:10466000280AFFF7BDFFF5EEC08AF1EE10FAF0D28E
:10467000B5EEC08ADFED0B0AF1EE10FA02DD30EE86
:10468000200AE6E7B5EEC08AF1EE10FA02D230EE6B
:10469000600ADEE79FED040ADBE70000DB0FC93F9D
:1046A000DB0FC9BFDB0F4940DB0F49C02DE9F041EB
:1046B00015461C460E4607460022FDF746FA45F011
:1046C000800000F037F814B1002000F033F800202B
:1046D00000F030F80446012231463846FDF735FA3D
:1046E0002046BDE8F0812DE9F04117461E460C46F4
:1046F00005460022FDF729FA384600F01BF830463F
:1047000000F018F821462846BDE8F0410122FDF7E7
:104710001CBA000010B5FDF71DFA05494A68821A57
:104720000A2A04D34860BDE81040FCF7A9B910BDBF
:104730005000002001B582B04FF0FF3000900123FF
:1047400001AA02A90248FDF7AFFE9DF804000EBDC4
:10475000EC00002010B5FBF783FF70B1FCF722F8E6
:1047600058B1FCF74DF9002808D0FBF78DFF002861
:1047700004D0BDE81040FCF79FB9002010BD000038
:104780007FB5054603A902A8FFF7A4FC144C01A9B4
:1047900068462571FFF79EFCA0789DED000AB0B138
:1047A000DDED020A30EE600AD4ED020A30EE200A96
:1047B00084ED020A9DED010ADDED030A30EE600A88
:1047C000D4ED030A30EE200A84ED030A7FBD84EDA8
:1047D000020A9DED010A012084ED030AA0707FBD4D
:1047E0002800002010B5402205490648FEF767F86A
:1047F0000448C06B0068016821F00801016010BD29
:10480000640300204C020020DFED090A094901E0A1
:1048100030EE600A10EE100A8842F9DC064900BF4B
:1048200010EE100A884202D930EE200AF8E77047ED
:10483000DB0FC940DB0F4940DB0F49C0144890ED46
:104840000F0A4178B1EE400A61B1D0ED030A9FED45
:10485000111A70EE600A90ED020A00EE810A80EDF6
:10486000020A7047D0ED040A30EE800A80ED040A97
:104870008188491C89B28180B1F57A7FF1D3012109
:10488000DFED050A80EE201A80ED031A41707047B3
:10489000580000206F12833A00007A444FF04070B5
:1048A000E1EE100A70470006101600061016000010
:1048B00000000000000001020304060708090000D0
:1048C0000000010203040000000000008010C93A4B
:1048D0008010493B60CC963B8010C93BA054FB3B09
:1048E00060CC163C70EE2F3C8010493C5E2E623C42
:1048F0006E507B3C3F398A3C47CA963C3659A33CB4
:104900003EEAAF3C467BBC3C350AC93C3D9BD53CAE
:104910002C2AE23C34BBEE3C234AFB3C89EC033DB1
:1049200001340A3D787B103DF0C2163D670A1D3DFB
:10493000DF51233D5699293DC2DF2F3D3927363DB2
:10494000A46D3C3D0FB4423D87FB483DF2414F3DD5
:104950005D88553DC8CE5B3D2714623D925A683D47
:10496000F19F6E3D5CE6743DBB2B7B3D8DB8803D79
:104970003CDB833D65FD863D14208A3D3E428D3DF6
:10498000ED64903D1687933D3FA9963DE2CA993D5F
:104990000BED9C3DAE0EA03D5130A33DF451A63D24
:1049A0009773A93D3A95AC3D56B6AF3DF9D7B23DA8
:1049B00016F9B53DAC19B93DC93ABC3D605BBF3D88
:1049C000F67BC23D8D9CC53D23BDC83DBADDCB3DC8
:1049D000CAFDCE3DDA1DD23DEA3DD53D745DD83DE0
:1049E000FE7CDB3D889CDE3D12BCE13D9CDBE43D72
:1049F000A0FAE73DA419EB3DA838EE3D2657F13D5E
:104A0000A375F43D2194F73D9EB2FA3D96D0FD3D4D
:104A10004777003E4206023EFB94033EB323053E29
:104A20006CB2063E2541083E9ACF093E0F5E0B3E12
:104A300042EC0C3E747A0E3EA708103ED996113E09
:104A4000C824133EB7B2143E6440163E53CE173E00
:104A5000FF5B193E68E91A3ED1761C3E3A041E3EC1
:104A600060911F3E861E213EACAB223E8F38243E15
:104A700072C5253E5452273EF4DE283E946B2A3EF2
:104A8000F0F72B3E4D842D3EAA102F3EC39C303EA6
:104A9000DD28323EB3B4333E8940353E60CC363EED
:104AA000F357383E86E3393ED66E3B3E27FA3C3E0E
:104AB00034853E3E4110403E4E9B413E1826433ECB
:104AC0009FB0443E693B463EACC5473E3350493EED
:104AD00034DA4A3E77644C3E78EE4D3E36784F3EAF
:104AE000F301513E6E8B523EE814543E629E553E99
:104AF0009A27573E8EB0583E82395A3E76C25B3E68
:104B0000274B5D3E95D35E3E035C603E71E4613EA3
:104B10009C6C633E84F4643E6C7C663E1004683E8C
:104B2000B58B693E16136B3E789A6C3E96216E3EAD
:104B3000B5A86F3E902F713E6BB6723E043D743E39
:104B400059C3753EAE49773EC0CF783ED2557A3EC6
:104B5000A1DB7B3E70617D3EFBE67E3E2236803EE1
:104B6000C6F8803E49BB813ECC7D823E2D40833ECF
:104B70006D02843EACC4843ECB86853EE948863EC9
:104B8000E50A873EC0CC873E9B8E883E5550893EC5
:104B9000ED118A3E84D38A3EFB948B3E71568C3E47
:104BA000C6178D3EF9D88D3E2C9A8E3E3E5B8F3EC9
:104BB0002E1C903E1EDD903EED9D913E9A5E923EF3
:104BC000251F933EB1DF933E3CA0943E8560953E09
:104BD000CD20963EF4E0963E1BA1973E2061983E84
:104BE0000421993EC6E0993E88A09A3E28609B3EEB
:104BF000A71F9C3E26DF9C3E849E9D3EC05D9E3E40
:104C0000DA1C9F3EF5DB9F3EED9AA03EC559A13EC2
:104C10007A18A23E30D7A23EC495A33E3754A43E94
:104C2000A912A53ED9D0A53E088FA63E164DA73E97
:104C3000240BA83EEFC8A83EBA86A93E6344AA3E0C
:104C40000C02AB3E72BFAB3ED97CAC3E1D3AAD3ED2
:104C500040F7AD3E42B4AE3E4371AF3E022EB03E91
:104C6000C0EAB03E5DA7B13EFA63B23E5320B33E08
:104C7000ADDCB33EE598B43EFC54B53EF110B63E13
:104C8000C4CCB63E7688B73E2844B83EB9FFB83E9D
:104C900028BBB93E7576BA3EA131BB3EABECBB3EFC
:104CA000B5A7BC3E7C62BD3E431DBE3EE9D7BE3EBD
:104CB0006C92BF3ECF4CC03E1007C13E51C1C13EB9
:104CC0004E7BC23E4C35C33E07EFC33EC1A8C43E37
:104CD0005A62C53ED21BC63E28D5C63E5C8EC73E34
:104CE0006F47C83E8200C93E52B9C93E0072CA3EF3
:104CF000AE2ACB3E3BE3CB3E849BCC3ECE53CD3E57
:104D0000F60BCE3EDBC3CE3EC07BCF3E8333D03EE0
:104D100025EBD03EA5A2D13E045AD23E4111D33E4E
:104D20005CC8D33E567FD43E5036D53E07EDD53EC7
:104D30009CA3D63E105AD73E6210D83E93C6D83EAA
:104D4000C47CD93EB132DA3E7DE8DA3E289EDB3EB5
:104D5000B153DC3E3909DD3E7FBEDD3EA373DE3E4E
:104D6000A628DF3E87DDDF3E4792E03EE546E13E96
:104D700061FBE13EBCAFE23EF563E33E0D18E43E6D
:104D800003CCE43ED87FE53E6A33E63EFBE6E63EF2
:104D90006B9AE73E984DE83EC500E93EAFB3E93E69
:104DA0007766EA3E3F19EB3EC5CBEB3E287EEC3EF4
:104DB0006A30ED3E8BE2ED3E6894EE3E4546EF3EB6
:104DC00001F8EF3E7AA9F03EF35AF13E280CF23E8C
:104DD0003CBDF23E2F6EF33E001FF43EAFCFF43EDB
:104DE0003D80F53E8830F63ED2E0F63EDA90F73E62
:104DF000C040F83E84F0F83E27A0F93EA94FFA3EA5
:104E0000E7FEFA3E25AEFB3E205DFC3EFA0BFD3E82
:104E1000B2BAFD3E4969FE3EBE17FF3EEFC5FF3EFA
:104E2000003A003FF790003FDEE7003FB43E013F0D
:104E30007995013F1CEC013FAF42023F3199023F9F
:104E4000A2EF023FF145033F419C033F6FF2033F56
:104E50008C48043F999E043F84F4043F5E4A053F1A
:104E600027A0053FE0F5053F884B063F0EA1063F12
:104E700083F6063FE84B073F3CA1073F6FF6073F2D
:104E8000904B083FA1A0083FA1F5083F804A093F89
:104E90004D9F093F0AF4093FA6480A3F419D0A3F3A
:104EA000BBF10A3F24460B3F6B9A0B3FA2EE0B3F30
:104EB000C8420C3FDD960C3FD1EA0C3FB43E0D3F9B
:104EC00086920D3F36E60D3FD6390E3F658D0E3F7B
:104ED000E3E00E3F40340F3F8B870F3FB6DA0F3FC2
:104EE000CF2D103FD880103FD0D3103FA626113FC2
:104EF0006C79113F21CC113FB41E123F3771123F24
:104F000098C3123FE815133F2768133F56BA133F63
:104F1000630C143F5F5E143F3AB0143F0402153F28
:104F2000BD53153F55A5153FDCF6153F4148163FCB
:104F3000A699163FD9EA163F0C3C173F1E8D173F26
:104F40000DDE173FEC2E183FBB7F183F78D0183F7F
:104F50001421193F8F71193FF8C1193F51121A3F9F
:104F600099621A3FC0B21A3FC5021B3FB9521B3F9C
:104F70009CA21B3F5EF21B3F0F421C3F9F911C3FB8
:104F80001EE11C3F8C301D3FD87F1D3F03CF1D3FCE
:104F90001D1E1E3F266D1E3F0EBC1E3FE50A1F3F15
:104FA0009B591F3F3FA81F3FC2F61F3F3545203F7B
:104FB0009693203FD6E1203FF52F213F027E213FEF
:104FC000FFCB213FDB19223F9467223F3DB5223FB3
:104FD000D602233F4C50233FA19D233FE6EA233FC7
:104FE0001938243F2B85243F2DD2243F0C1F253F09
:104FF000CA6B253F78B8253F0305263F7E51263FE3
:10500000E99D263F31EA263F5936273F6F82273FE9
:1050100064CE273F481A283F0A66283FABB1283F95
:105020003BFD283FBB48293F1894293F55DF293FC6
:10503000802A2A3F8A752A3F83C02A3F5B0B2B3F79
:1050400021562B3FC7A02B3F4AEB2B3FBD352C3FB2
:105050000F802C3F4FCA2C3F6E142D3F6C5E2D3FAE
:1050600058A82D3F24F22D3FDE3B2E3F77852E3F63
:10507000FFCE2E3F55182F3FAA612F3FCEAA2F3FBC
:10508000E0F32F3FE23C303FC285303F81CE303FDE
:105090001E17313FAB5F313F15A8313F6FF0313FF5
:1050A000A838323FD080323FC5C8323FAA10333FC4
:1050B0007D58333F30A0333FC0E7333F302F343F7C
:1050C0008E76343FCBBD343FF704353F014C353F3E
:1050D000EA92353FB2D9353F6820363FFD66363F0C
:1050E00082AD363FE4F3363F263A373F4580373FBF
:1050F00054C6373F410C383F1E52383FC897383F9F
:1051000061DD383FD922393F4068393F86AD393FAC
:10511000AAF2393FBD373A3F9E7C3A3F6EC13A3FD3
:105120002D063B3FBA4A3B3F368F3B3F91D33B3F37
:10513000DB173C3F035C3C3F0AA03C3FEFE33C3FB6
:10514000B3273D3F666B3D3FF7AE3D3F67F23D3FC6
:10515000C6353E3F03793E3F1FBC3E3F19FF3E3FF1
:1051600003423F3FBA843F3F60C73F3FF609403F9D
:10517000594C403FAC8E403FDDD0403FEC12413FA8
:10518000DA54413FB796413F73D8413F0D1A423F31
:10519000855B423FED9C423F22DE423F471F433F3B
:1051A0004A60433F3CA1433FFCE1433FAB22443FC5
:1051B0003963443FA5A3443FEFE3443F2924453FDF
:1051C0004164453F27A4453FFCE3453FC023463F9C
:1051D0005263463FD3A2463F22E2463F6021473F0B
:1051E0008D60473F889F473F61DE473F2A1D483F0C
:1051F000D15B483F569A483FBAD8483FFD16493FD1
:105200001D55493F2D93493F0BD1493FD80E4A3F89
:10521000834C4A3F0D8A4A3F86C74A3FCD044B3FE5
:10522000F2414B3F067F4B3FF9BB4B3FCBF84B3F27
:105230007A354C3F08724C3F75AE4C3FD1EA4C3F3B
:10524000FA264D3F13634D3F0A9F4D3FCFDA4D3F46
:1052500083164E3F15524E3F978D4E3FE7C84E3F47
:1052600014044F3F313F4F3F1C7A4F3FF6B44F3F3E
:10527000AEEF4F3F352A503FAA64503FFE9E503F4D
:1052800030D9503F5113513F404D513F0E87513F50
:10529000CAC0513F55FA513FCE33523F166D523F6F
:1052A0004CA6523F61DF523F4418533F1651533FC3
:1052B000C689533F55C2533FC2FA533F0D33543F43
:1052C000386B543F40A3543F38DB543FFD12553FE9
:1052D000A14A553F3482553F95B9553FD4F0553FCB
:1052E0000228563FFF5E563FEA95563FA3CC563FF5
:1052F0004B03573FC139573F2670573F6AA6573F68
:105300007BDC573F7B12583F5A48583F077E583F37
:10531000A2B3583F1DE9583F641E593F9C53593F63
:10532000B188593F94BD593F67F2593F18275A3FFA
:10533000A75B5A3F04905A3F50C45A3F7BF85A3FEC
:10534000732C5B3F5B605B3F21945B3FB4C75B3F6B
:1053500037FB5B3F882E5C3FC8615C3FD5945C3F68
:10536000D2C75C3F9CFA5C3F562D5D3FDD5F5D3FE1
:1053700053925D3F97C45D3FBAF65D3FBB285E3FE9
:10538000AB5A5E3F698C5E3F06BE5E3F80EF5E3F7C
:10539000DA205F3F11525F3F27835F3F1CB45F3FBE
:1053A000EFE45F3F9015603F2046603F8E76603FA0
:1053B000CAA6603FF5D6603FEE06613FD636613F34
:1053C0008C66613F2096613F93C5613FE4F4613F85
:1053D0001424623F2253623F0E82623FD9B0623F83
:1053E00083DF623FFA0D633F603C633F946A633F33
:1053F000A698633FA8C6633F77F4633F2522643FC6
:10540000B14F643F1C7D643F54AA643F7BD7643F27
:105410007104653F5531653F075E653F988A653F7A
:1054200017B7653F65E3653F800F663F8A3B663F80
:105430007367663F2993663FCFBE663F42EA663F89
:105440009415673FC440673FD36B673FC096673F83
:105450008BC1673F25EC673FAD16683F0341683F4E
:10546000386B683F4A95683F3CBF683F0CE9683F2E
:10547000A912693F363C693F9065693FC98E693F13
:10548000E1B7693FD6E0693FAB096A3F4D326A3FF9
:10549000DE5A6A3F3C836A3F7AAB6A3F95D36A3FE4
:1054A0008FFB6A3F57236B3F0E4B6B3F93726B3FF3
:1054B000F6996B3F37C16B3F57E86B3F560F6C3F18
:1054C00022366C3FCD5C6C3F66836C3FBDA96C3F60
:1054D00003D06C3F27F66C3F191C6D3FEA416D3FCE
:1054E000A9676D3F268D6D3F92B26D3FDCD76D3F52
:1054F000F4FC6D3FEA216E3FBF466E3F726B6E3F1C
:10550000F38F6E3F63B46E3FA1D86E3FBDFC6E3F1C
:10551000B8206F3F80446F3F38686F3FBD8B6F3F4F
:1055200021AF6F3F52D26F3F73F56F3F6118703FED
:105530003F3B703FD95D703F6380703FCBA2703FAF
:1055400000C5703F14E7703F0709713FD82A713FCB
:10555000774C713FF46D713F508F713F8AB0713F4E
:10556000A2D1713F88F2713F4D13723FF033723F09
:105570007154723FC174723FFF94723F0BB5723F1A
:10558000E5D4723FAEF4723F4414733FB933733FB6
:105590000D53733F3F72733F3F91733F1DB0733F95
:1055A000D9CE733F74ED733FDD0B743F242A743FF3
:1055B0004948743F4D66743F1F84743FCFA1743FC8
:1055C0005DBF743FCADC743F05FA743F2F17753F07
:1055D0001634753FEC50753F8F6D753F228A753FCD
:1055E00083A6753FB1C2753FCEDE753FB9FA753FF0
:1055F0007216763F1A32763F904D763FE468763FDA
:105600001684763F279F763F06BA763FC3D4763F0F
:105610005FEF763FC809773F1024773F363E773FEC
:105620003A58773F0D72773FBD8B773F4CA5773F58
:10563000BABE773FF5D7773F0FF1773F070A783F3C
:10564000CD22783F713B783FF453783F556C783FDB
:105650008484783F919C783F7CB4783F36CC783F07
:10566000CEE3783F44FB783F9912793FBB29793FDD
:10567000BC40793F9B57793F486E793FE484793F3E
:105680003D9B793F85B1793F9BC7793F90DD793F5D
:1056900062F3793F03097A3F821E7A3FDF337A3F14
:1056A0000A497A3F245E7A3FFC727A3FC2877A3F8A
:1056B000569C7A3FC9B07A3F19C57A3F38D97A3FAC
:1056C00035ED7A3F11017B3FBA147B3F41287B3F88
:1056D000A73B7B3FEC4E7B3FFE617B3FEF747B3F04
:1056E000AD877B3F5B9A7B3FC5AC7B3F1FBF7B3F5A
:1056F00046D17B3F4CE37B3F30F57B3FE2067C3F6E
:1057000083187C3FE1297C3F2E3B7C3F494C7C3F0A
:10571000425D7C3F096E7C3FAE7E7C3F328F7C3F9A
:10572000849F7C3FC4AF7C3FC2BF7C3FAFCF7C3FF8
:105730006ADF7C3F03EF7C3F7AFE7C3FBF0D7D3FFD
:10574000E31C7D3FD42B7D3FB43A7D3F52497D3FE2
:10575000DE577D3F38667D3F71747D3F88827D3F97
:105760006D907D3F309E7D3FD2AB7D3F41B97D3F07
:105770008FC67D3FAAD37D3FB5E07D3F8DED7D3F58
:1057800033FA7D3FC8067E3F2B137E3F5C1F7E3F72
:105790006B2B7E3F58377E3F24437E3FBE4E7E3F7D
:1057A000365A7E3F8C657E3FB0707E3FB37B7E3F36
:1057B00083867E3F43917E3FD09B7E3F2BA67E3FDC
:1057C00064B07E3F7CBA7E3F72C47E3F36CE7E3F61
:1057D000D8D77E3F48E17E3F96EA7E3FC3F37E3FC7
:1057E000CEFC7E3FA7057F3F5E0E7F3FE3167F3FE7
:1057F000471F7F3F89277F3F982F7F3F86377F3F17
:10580000533F7F3FED467F3F664E7F3FBD557F3F15
:10581000E25C7F3FE5637F3FC66A7F3F76717F3FF3
:1058200003787F3F6F7E7F3FA9847F3FC28A7F3F9F
:10583000B8907F3F7D967F3F209C7F3F90A17F3F28
:10584000DFA67F3F0CAC7F3F07B17F3FF2B57F3FC4
:1058500099BA7F3F2FBF7F3F93C37F3FC5C77F3F2D
:10586000E6CB7F3FD5CF7F3F91D37F3F3DD77F3F73
:10587000B6DA7F3FFDDD7F3F22E17F3F26E47F3FB9
:1058800008E77F3FB8E97F3F46EC7F3FA2EE7F3FCE
:10589000DCF07F3FF5F27F3FEDF47F3FB2F67F3FD4
:1058A00044F87F3FC6F97F3F16FB7F3F33FC7F3FC5
:1058B0003FFD7F3F19FE7F3FC1FE7F3F47FF7F3F98
:1058C000ACFF7F3FEFFF7F3F000000008010C93A30
:1058D0008010493B60CC963B8010C93BA054FB3BF9
:1058E00060CC163C70EE2F3C8010493CC136623CC7
:1058F000D1587B3C713D8A3C91D0963C9961A33C48
:10590000BAF4AF3CDB87BC3CFC1AC93C1DAED53CAD
:105910003E41E23C5FD4EE3C7F67FB3C5DFE033DD5
:10592000ED470A3D8A92103D27DD163DC4271D3DF7
:105930006D73233D0ABE293DB309303D5C55363DAC
:1059400006A13C3DAFEC423D6539493D1A864F3DCD
:10595000D0D2553D861F5C3D486D623DFEB9683D25
:10596000C0076F3D8F56753D51A47B3D90F9803D3A
:10597000F720843DE448873DD2708A3DBF988D3D35
:10598000ADC0903D21E9933D9411973D8E3A9A3DEB
:1059900088639D3D828CA03D03B6A33D83DFA63D79
:1059A0000309AA3D0933AD3D105DB03D1687B33DF7
:1059B000A3B1B63DB5DCB93DC807BD3DDB32C03D46
:1059C000745EC33D0D8AC63DA6B5C93DC6E1CC3D5A
:1059D0006B0ED03D103BD33D3C68D63D6895D93D1C
:1059E00094C2DC3D45F0DF3D7E1EE33DB64CE63D16
:1059F000747BE93D32AAEC3D77D9EF3DBC08F33D1D
:105A00008638F63D5168F93DA298FC3D79C9FF3DC5
:105A1000287D013ED715033E86AE043E7847063EFC
:105A2000ACE0073EE179093E59130B3E15AD0C3E43
:105A3000D0460E3ECEE00F3E0F7B113E5115133E79
:105A4000D5AF143E9D4A163E64E5173E6F80193E61
:105A5000BD1B1B3E0BB71C3EDF521E3EB3EE1F3E6E
:105A6000CA8A213EE126233E3BC3243ED95F263E1F
:105A7000B9FC273EDD99293E00372B3EAAD42C3EA7
:105A800054722E3E4110303E2EAE313EA14C333E7C
:105A900014EB343E0D8A363E0729383E43C8393E62
:105AA000C3673B3E85073D3E48A73E3E9147403E8B
:105AB0001DE8413EA988433E7829453ECDCA463E71
:105AC000226C483EBB0D4A3E96AF4B3EF8514D3ED0
:105AD0005AF44E3EFF96503EE739523E12DD533E99
