:020000040800F2
:10000000180B00203902000855390008A3350008F4
:1000100065380008750F0008214400080000000042
:10002000000000000000000000000000293E000861
:10003000C515000800000000453B0008453E0008CB
:10004000530200085302000853020008530200083C
:10005000530200085302000853020008530200082C
:100060005302000853020008E51500085302000877
:10007000530200085302000853020008530200080C
:100080005302000853020008530200089D0F0008A5
:10009000790F0008850F0008910F0008EB15000884
:1000A00053020008530200085302000853020008DC
:1000B00053020008530200085302000853020008CC
:1000C000530200085302000853020008E53C0008F0
:1000D00053020008530200085302000853020008AC
:1000E000530200085302000853020008530200089C
:1000F000530200085302000853020008530200088C
:10010000530200085302000853020008530200087B
:10011000530200085302000853020008530200086B
:10012000ED14000809150008530200081515000811
:10013000530200085302000853020008530200084B
:10014000530200085302000853020008530200083B
:100150005302000853020008530200081544000827
:10016000530200085302000853020008530200081B
:100170005302000853020008530200080000000068
:10018000530200085302000800F002F800F044F89F
:100190000AA090E8000C82448344AAF10107DA45E2
:1001A00001D100F039F8AFF2090EBAE80F0013F0F0
:1001B000010F18BFFB1A43F00103184774780000C1
:1001C00094780000103A24BF78C878C1FAD8520752
:1001D00024BF30C830C144BF04680C6070470000C1
:1001E0000023002400250026103A28BF78C1FBD840
:1001F000520728BF30C148BF0B607047752900F017
:10020000F780782900F03081002070471FB505F095
:10021000DBFB1FBD10B510BD00F0D2FA1146FFF791
:10022000F5FF04F04FFB00F0F0FA03B4FFF7F2FF24
:1002300003BC00F0F3FA0000094880470948004772
:10024000FEE7FEE7FEE7FEE7FEE7FEE7FEE7FEE786
:10025000FEE7FEE704480549054A064B70470000E3
:10026000DD3E00088901000818050020180B002059
:10027000180700201807002053EA020C00F06980DC
:100280002DE9F04B4FF00006002B1FBFB3FA83F5AA
:1002900003FA05F424FA05F65E4012BF1643B2FADB
:1002A00082F502FA05F4C5F120051EBF22FA05FC0D
:1002B00044EA0C04203556EA044C4FEA144418BFB3
:1002C000641C4FF000084FF00009904271EB030CE2
:1002D00039D3002919BFB1FA81F701FA07F6B0FA4C
:1002E00080F700FA07F6C7F120071EBF20FA07FCC7
:1002F00046EA0C062037B6FBF4FCA7EB0507103FD7
:1003000007F01F0BCBF120060CFA0BFB2CFA06F6BC
:1003100044BFB3460026202FA4BF5E464FF0000B1B
:100320005BEA060C08BF4FF0010B19EB0B09ABFBA6
:10033000027C48EB0608C01B06FB02CC0BFB03CC7F
:1003400071EB0C01C1E70B46024641464846BDE849
:10035000F08B13B54FF000004FF00001AFF30080B9
:10036000BDE81C40704700000FB47CB50C0009AA22
:10037000009001D02044401E084B7B446946019008
:10038000089800F0F4F905461CB10020694600F019
:1003900001FA28467CBC5DF814FB00002104000033
:1003A00070B5044685690068C10601D5302600E0B5
:1003B0002026C00707D070BDD4E901213046904700
:1003C000206A401C20626D1EF6D570BD70B50446D3
:1003D00085690078C00707D170BDD4E901212020CC
:1003E0009047206A401C20626D1EF6D570BD00004B
:1003F0002DE9F0410646002410687529314616A5FE
:1004000010D0AFF30080002802DA404213A507E0C5
:1004100031688A0701D512A502E0490704D511A564
:10042000012401E0AFF3008000210A2206F1240735
:1004300009E0B0FBF2FCB0FBF2F302FB1C00303031
:1004400078541846491C0028F3D123462A463046E2
:10045000BDE8F04100F02DB9000000002D000000C3
:100460002B0000002000000070B504460D46214618
:100470001068AFF300802188090502D50F4A7A443D
:1004800002E00E4A7A440E32002104F1240305E012
:1004900000F00F060009965D5E54491C0028F7D154
:1004A00020780023000704D5702D02D009B1022363
:1004B00011322046BDE8704000F0FBB872750000B4
:1004C0002DE9F05F894604464FF0000ADFF874B169
:1004D000FB44C0F820A02046E1688847002874D07B
:1004E000252806D0D4E901219047206A401C2062CB
:1004F000F1E700265F462046E16888472028054648
:1005000007DB312D05D2781910F8200C08B106430D
:10051000F1E7B00701D526F00406C4F81CA00027B7
:10052000C4F818A02A2D09D0284604F069F938B378
:1005300004EB8708303DC8F8185019E059F8041B3F
:10054000204604EB87029161E1688847012F054648
:1005500018D1E069002820DA26F020061DE0D8F83E
:10056000180000EB800005EB40003038C8F8180098
:100570002046E1688847054604F042F90028EED19C
:10058000012F0AD02E2D08D12046E16888477F1C14
:100590000546022F46F02006C4DBA069002803DAD6
:1005A000404246F00106A061F00701D026F0100697
:1005B0006C2D0BD0682D09D04C2D39D06A2D35D03B
:1005C000742D35D07A2D33D016E038E0E1682F460F
:1005D00020468847B842054609D16C2F26D04FF4F3
:1005E0008060E168064320468847054604E06C2F9A
:1005F0001AD04FF4807006430DB3A5F141001928BD
:1006000002D8203546F400664A4629462046266030
:100610004E46FFF7F3FD80B101280BD0F61D26F002
:10062000070000F1080956E74020E4E78020D8E7FA
:100630000020D6E706F104094DE7284652E7206A74
:10064000BDE8F09F487500004FF0000200B513466A
:1006500094469646203922BFA0E80C50A0E80C50E2
:10066000B1F12001BFF4F7AF090728BFA0E80C5093
:1006700048BF0CC05DF804EB890028BF40F8042B8C
:1006800008BF704748BF20F8022B11F0804F18BFF9
:1006900000F8012B704770477047704710B500F0A5
:1006A00087F8006810BD10B5044600F081F80460BA
:1006B00010BD2DE9F0470D4699469246044600F1DB
:1006C00024080168880604D5E06921F01001216042
:1006D00000E00120A84201DD471B00E00027A169DE
:1006E0007A1902EB0900081AA0612078C00602D42A
:1006F0002046FFF755FE002608E0D4E901211AF84C
:1007000006009047206A401C761C20624E45F4DBB0
:100710002078C0060AD52046FFF742FE06E0D4E95D
:10072000012130209047206A401C2062381EA7F12A
:100730000107F4DC07E0D4E9012118F8050090472F
:10074000206A401C2062281EA5F10105F3DC20462A
:10075000FFF73CFE2078000602D50220BDE8F087B6
:100760000120FBE701694A1C02610878704700B567
:100770008FB0CDE901310021059105497944CDE9DA
:10078000031011466846FFF79BFE0FB000BD000046
:10079000E5FFFFFF0A6802F8010B0A607047D1E924
:1007A00000239A4202D2531C0B6010707047000065
:1007B00000487047B804002000487047B804002083
:1007C0007546FFF7F9FFAE4605006946534620F02F
:1007D0000700854618B020B5FFF73CFDBDE8204076
:1007E0004FF000064FF000074FF000084FF0000BED
:1007F00021F00701AC46ACE8C009ACE8C009ACE8A0
:10080000C009ACE8C0098D46704710B50446AFF387
:1008100000802046BDE81040FFF707BD01491820C1
:10082000ABBEFEE726000200704700002DE9F05F36
:10083000F848F94AF94BC06CF74CF84D0068DFF8FE
:10084000D8C3DFF8D8E3DFF8D093DFF8D0A3F349BB
:10085000483A6033183418354FF400774FF4002BC2
:10086000AEF1100EA9F130090AF1780A604531D9CC
:10087000E94E543E34E008271FE0A8421DD0484509
:100880001BD0504519D0DFF8908308F1300840455F
:1008900013D0E24F3037B8420BD0DF4F183FB84289
:1008A00007D0DE4F9037B84203D0DB4F4837B8420D
:1008B00001D15F4601E04FF000773E426FD1D64E46
:1008C0004FF4802CB7154FF0807BB0424CD9D24EFC
:1008D000543E4FE0D14EA836B04203D9CE4E583EDA
:1008E000366805E0CD4E4836B0427646F8D976688F
:1008F0008842C0D09042BED09842BCD0A042BCD169
:10090000B9E704271EE0A8421CD048451AD050453C
:1009100018D0DFF8048308F13008404512D0BF4FEB
:100920003037B8420BD0BC4F183FB84207D0BB4F4E
:100930009037B84203D0B84F4837B84201D1674624
:1009400000E05F463E4248D1DFF8CCC24FF480372A
:100950004FF4800B604557D9AF4E543E36688842FD
:100960005BD106F0010637E0AC4EA836B04203D9A1
:10097000A94E583E366805E0A84E4836B042764645
:10098000F8D976688842BCD09042BAD09842B8D0A4
:10099000A042B8D1B5E7A0424BD101271BE01CE033
:1009A000402718E0DFF8748208F13008404512D083
:1009B000DFF86482A8F1180840450CD0DFF85C82AB
:1009C00008F19008404506D0DFF84C8208F148084D
:1009D000404500D05F463E40C6B304F023FF8D4C37
:1009E000E06C04F05FFAA06C04F05CFA012211469E
:1009F0008B4801F08AFD012210218A4801F085FD13
:100A00008949002088708BE1844EA836B04209D90C
:100A1000814E583E36688842BFD09042BDD0984241
:100A2000BBD0B8E77D4E4836B0427646F2D97668FC
:100A3000F1E7A842B4D04845B2D05045B0D0DFF875
:100A4000D88108F130084045ACD1A9E7FFE7724EE4
:100A50004FF400684FF4001C4FF0006BB0421FD9F8
:100A60006D4E543E22E0A0422FD1202608E06A4E6F
:100A70003036B04230D1464602E0664600E05E467F
:100A800037427DD0644EB04257D9884205D090425B
:100A900003D0984201D0A0422FD14FF0200849E066
:100AA0005E4EA836B04203D95B4E583E376805E02B
:100AB0005A4E4836B0427646F8D977688842D4D044
:100AC0009042D2D09842D0D0CDE7A842D3D048456A
:100AD000D1D05045CFD0CAE7504E3036B042CCD0FE
:100AE0004D4E183EB042C8D04C4E9036B042C4D0A5
:100AF000494E4836B042C2D1BFE7A8421AD0484555
:100B000018D0504516D044493031884212D043495C
:100B1000303188420BD040491839884207D03F49CC
:100B20009031884203D03C494831884201D1E046A7
:100B300000E0D84638484C382FE0384EA836B0424E
:100B40002ED9884205D0904203D0984201D0A042CD
:100B500002D14FF020081EE0A8421CD048451AD010
:100B6000504518D02C493031884214D02B493031AF
:100B700088420DD028491839884209D0274900E019
:100B8000CEE09031884203D023494831884201D1D8
:100B9000E04600E0D84620485038C0F8008062E0C7
:100BA0001E4E4836B0422AD9884205D0904203D022
:100BB000984201D0A04202D14FF020081CE0A84288
:100BC0001AD0484518D0504516D0134930318842C4
:100BD00012D01249303188420BD00F49183988425F
:100BE00007D00E499031884203D00B4948318842E2
:100BF00001D1E04600E0D846CEF80C8033E08842D0
:100C000005D0904203D0984201D0A0420ED14FF0BF
:100C1000200826E02C0100205864024010600240A9
:100C2000000402400000024058000020A84218D0F2
:100C3000484516D0504514D03B49884211D03B4915
:100C400088420BD038494839884207D0374960314B
:100C5000884203D034491831884201D1E04600E08F
:100C6000D846CEF80880324CA078012803D0A0786E
:100C7000022816D054E0012211462E4801F045FC0E
:100C800003F0FEFE002210212B4801F03EFC022062
:100C9000A070274908225C31A1F1080004F08EFD04
:100CA0003EE001221021244801F02FFC20485C3056
:100CB000B0F9021000EE101AF8EEC00AB0EE080A01
:100CC00020EE801ADFED1D0A61EE201A9FED1C1A3E
:100CD00061EE811AC4ED0A1AB0F9041001EE901AFF
:100CE000F8EEE11A61EE801A61EEA01A61EE811A47
:100CF000C4ED0B1AB0F9060001EE900AF8EEE11A05
:100D000021EE800A20EE200A20EE010A84ED0C0A72
:100D100004F02CFE03F02EFF0020A07000F01AFB60
:100D20000120BDE8F09F000088640240406002405E
:100D30005800002000040240000002400AE81C4164
:100D400000000038014880787047000058000020FB
:100D500010B52021034801F0D3FB012800D000206A
:100D600010BD000000080240014890ED090A7047DC
:100D7000580000200148406D704700002C01002001
:100D8000014890F8510070472C010020014890ED77
:100D9000020A70475800002070B56B4D01221021E7
:100DA000284601F0B2FB694E01221146304601F09F
:100DB000ACFB0A2001F072FA012300221021284620
:100DC00004F02CF8012001F069FAB6237E221021EC
:100DD000284604F040F8502001F060FA0123002278
:100DE0001021284604F01AF8012001F057FA0123D7
:100DF00000221021284604F011F8554C1E2801D07D
:100E0000012099E004237D221021284604F023F8D4
:100E1000012001F043FA00237C221021284604F02F
:100E20001AF8012001F03AFAAB234022102128469B
:100E300004F011F8012001F031FA002341221021C1
:100E4000284604F008F8012001F028FA082353226C
:100E50001021284603F0FFFF012001F01FFA0423B0
:100E600058221021284603F0F6FF012001F016FA5F
:100E7000012341221021284603F0D0FF08B10320AE
:100E80005AE0B623142201213546304603F0E3FF31
:100E9000502001F003FA00231A460121284603F0EE
:100EA000BDFF012001F0FAF900231A46012128466E
:100EB00003F0B4FF0F2801D002203DE000230F22F1
:100EC0000121284603F0C7FF012001F0E7F9822342
:100ED00010220121284603F0BEFF012001F0DEF9B7
:100EE000002311220121284603F0B5FF012001F063
:100EF000D5F9802315220121284603F0ACFF0120FB
:100F000001F0CCF9002316220121284603F0A3FFAB
:100F1000012001F0C3F9012318221946284603F0E5
:100F20009AFF012001F0BAF900230F22012128467F
:100F300003F074FF10B10420207070BD0020A07079
:100F400004F014FC002070BD0000024000040240C8
:100F500058000020014840787047000058000020E9
:100F600003489FED020A80ED020A7047000000006E
:100F700058000020FEE70000014800F058BD0000C6
:100F800004010020014800F052BD000004010020CF
:100F9000014800F04CBD000004010020014800F0B1
:100FA00046BD00000401002010B5322002F03AFED8
:100FB00058B1322002F01EFE38B102F02DFE20B1F1
:100FC00002F012FE08B1012010BD002010BD00008B
:100FD00010B5094C607838B1E07828B1FFF7BAFF56
:100FE00010B1207910B104E0002010BD012004F000
:100FF0005FFC012010BD00002800002010B5054C4A
:10100000606A20B101F086FA616A401A10BD4FF0A3
:10101000FF3010BD2800002070B59FED2F1AB1EEF3
:10102000040A2DED028B9FED2D8A2D48F0EE480A23
:1010300002F05AFD2A489FED2B1AF0EE480AB1EE55
:10104000040A243002F050FDF9EE080AB1EE080A55
:10105000234802F065FD2248F9EE080AB1EE080ABD
:10106000243002F05DFDB0EE480A1D4802F0B6FCE7
:101070001B48B0EE480A243002F0B0FC18490024A6
:10108000483119484C700861143101254D700861D0
:1010900002F06EFD1248483002F065FD10485C30E9
:1010A00002F061FD114880ED028A80ED038A80ED37
:1010B000048A80ED058A80ED068A80ED078A046245
:1010C00004708470C470047144718471446245700A
:1010D000BDEC028B70BD00005C8F423E0000000042
:1010E00034030020CDCCCC3D04010020280000209A
:1010F00010B5064C606A38B101F00CFA616A401A0A
:101100000A2801D8012010BD002010BD28000020B1
:1011100001484079704700002800002070B5804CDD
:101120002DED068B82B0607800281BD060790028F6
:1011300018D0FFF739FF60B1FFF7DAFF48B1694611
:1011400001A803F07DFBA0780126DFED768A78B157
:101150001BE0FFF729FF48B15FF0020003F03EF902
:1011600000F08CF902B0BDEC068B70BD0120F5E7F4
:101170009DED010A84ED020A9DED000A84ED030A4B
:10118000C4ED048AC4ED058AA67003F08DF9054606
:101190000078E0B32869D0B3642003F09BF9B0B3C2
:1011A000207818B12869216A88424CD0B5F902002C
:1011B00000EE100AB8EEC00ADFED5B0AB5F90400D4
:1011C00030EE209A00EE100AB8EEC00ADFED570AA2
:1011D00030EE208A9FED56AAF0EE4A0A9FED550A9E
:1011E00003F0ACF9F0EE409A9FED530AF0EE4A0A94
:1011F00039EE400A03F0A2F939EEC09A9FED4FAAEA
:10120000F0EE4A0A9FED4E0A03F098F900E01AE06A
:10121000F0EE409A9FED4B0AF0EE4A0A38EE400A93
:1012200003F08CF9DDED010A39EEC00A70EE890A8F
:10123000C4ED020ADDED000A30EE800A84ED030AF7
:1012400028692062267094ED020ADDED010A30EE75
:10125000600A04F071FBB0EE408A94ED030ADDED04
:10126000000A30EE600A04F067FB94ED041AF0EE19
:10127000400ADFED351A38EE410A344800EE211AF3
:1012800084ED041A94ED050A70EEC00A00EEA10A7E
:1012900084ED050AB1EE410A02F0A4FBB0EE409ADB
:1012A00094ED050A2948B1EE400A243002F09AFB79
:1012B000B0EE408A02F08CFCD4ED070A30EE600AF2
:1012C00004F03AFBB5EEC08AF1EE10FA04DD10EE40
:1012D000100AB0F17C5F0BDAF0EE480AF5EEC00AB6
:1012E000F1EE10FA10D210EE100AB0F13F4F0BD30E
:1012F0009DED000A154884ED030AB0EE688A84ED7E
:10130000058A243002F012FCDFED118A29EE280A4A
:1013100002F08CFD28EE280A02F08EFD22E7000084
:10132000280000200000000000608B4300208A435A
:101330006FC8724474F5BBC25D5DBA43A50F3644F5
:10134000603041C1832990439A99993E340300202B
:10135000EBC9184110B5034C0120A07101F0DAF877
:10136000606210BD280000201FB51E4C6078A8B335
:10137000FFF7F0FD90B301A9684603F061FAFFF7AB
:10138000EFFDFFF7F1FC84ED060A02F021FC84ED8D
:10139000070A0120E07003A902A803F051FA20799E
:1013A000C8B1A078B8B19DED020ADDED000A30EEBB
:1013B000600AD4ED020A30EE200A84ED020A9DEDA7
:1013C000030ADDED010A30EE600AD4ED030A30EEC7
:1013D000200A84ED030A012004B010BDFFE70020BD
:1013E000FAE700002800002010B5322002F01AFCB5
:1013F00010B102F011FC10B9084802F0B4FB322021
:1014000002F0F8FB18B102F0EFFB002805D1034809
:10141000BDE81040143002F0A6BB10BD7C030020D4
:101420001CB5134C607808B3E078F8B1FFF7BCFD49
:10143000E0B101A9684603F003FA9DED000A0E48E9
:1014400084ED020A9DED010A84ED030A9FED090A6D
:1014500084ED040A84ED050A02F068FB0648243096
:1014600002F064FB0120A07060711CBD00201CBD57
:1014700028000020000000003403002010B5104CAC
:101480002DED028B6078002816D000209FED0D8A8C
:101490006071B0EE480A02F0C9FCB0EE480A02F0F2
:1014A000CBFC094802F042FB0748243002F03EFB27
:1014B00084ED048A84ED058ABDEC028B10BD00002A
:1014C000280000200000000034030020064988792D
:1014D000002808D0EFF3108072B600228A7100B99C
:1014E00062B6FFF71BBE70472800002010B5FFF75B
:1014F0009DF9002804D1BDE81040024800F05CBD11
:1015000010BD0000E4010020014800F055BD0000BE
:10151000D4020020014800F04FBD000084010020EB
:1015200001681823CAB2103AB2FBF3F2054B6FF30D
:101530000901032A9B5CC36500D9091D8165084622
:1015400070470000D259000810B5014600208B6991
:101550008A6A4FF0C07453B1B3F5005F15D072B111
:10156000012A0CD0022A0AD0032A09D104E01AB1B8
:10157000012A06D0022A03D1C96AC90100D5012077
:1015800010BDC96AA142FAD010BD002AF7D0012AC5
:10159000F2D0022AF3D0032AF3D010BD30B504688C
:1015A000256825F480252560046863608368402BE6
:1015B000036803D099600068C26030BD9A6000681B
:1015C000C16030BD70470000034804490068B0FBAB
:1015D000F1F00349086070470C00002040420F0002
:1015E000C0000020102000F087BE202000F084BE44
:1015F00072B6FEE700F08EBF2DE9F0414FF0E02516
:101600006F69DFF83880D8F8000008B9FFF7DCFF11
:1016100000F080FF0446AE6900F07CFF8442F7D101
:10162000D8F80000B91BB1FBF0F004EB4401C1EBAA
:10163000C41100EBC100BDE8F0810000C000002033
:1016400001480078704700005000002010B5FFF7F7
:10165000E3FCFFF713FFFFF79FFB054C08B10420E5
:1016600003E000F057FF60600120207010BD000013
:101670005000002070B5FFF729FF234C0225207889
:10168000012820D0022802D0032825D11BE0FFF733
:101690008BFC28B1FFF72CFD10B1FFF739FDD8B94D
:1016A000FFF782FC58B1FFF723FD50B15FF0030054
:1016B00002F094FEFFF7E2FE032020700CE0012010
:1016C000F6E70220F4E703F0DDFBFFF743FC18B177
:1016D00004F0D8F800B1257002F0E6FE2178022966
:1016E00003D0607802280CD008E0007848B164206C
:1016F00002F0F0FE28B1012002F0C4FE20786070F4
:1017000070BD0020F8E700005000002090F8202075
:10171000012A07D0022A05D0416A41F480214162A2
:1017200001207047006842690A4342610020704707
:10173000F0B590F820500468A468012D05D0022D62
:1017400003D0416A41F4802157E014F0406F01D189
:10175000E5004FD5C4F301640125A5401D608D68E7
:101760004FF4C0739DB1CE6835434E6845EAC60557
:10177000066803EB0417F5514FF4C275076805EBD3
:1017800004150E697E51097D012905D009E00E88F6
:10179000CD6845EA4655EBE701684E5946F4807638
:1017A0004E511179D579567941EA056195792D0423
:1017B00045EA062529434FF4C676056806EB04166C
:1017C000A9511178D57841EA0561957852782D04B0
:1017D00045EA022211434FF4C475026805EB041573
:1017E0005151006803EB0411425842F0010242508B
:1017F0000020F0BD416A41F4001141620120F0BDBA
:1018000010B590F82020012A07D0022A05D0416A9D
:1018100041F480214162012010BD3B48D0F80022F4
:1018200042F00102C0F80022D0F8002222F47C52DB
:10183000C0F80022D0F800224B6A42EA0322C0F826
:1018400000220A7D02F01F0301229A40D0F81C32C8
:101850009343C0F81C32CB69B3B9D0F80C32934330
:10186000C0F80C328C894B6864F31F434C6900EB61
:10187000C404C4F840320C890B6864F31F434C69FC
:1018800000EBC404C4F84432CB69012B16D1D0F864
:101890000C321343C0F80C320C884B6864F31F43BE
:1018A0004C6900EBC404C4F840320C89CB6864F383
:1018B0001F434C6900EBC404C4F844328B69002B0D
:1018C000D0F804320ED01343C0F804320B69002B59
:1018D000D0F8143208D01343C0F81432096A012931
:1018E00004D008E09343EFE79343F5E7D0F81C12E8
:1018F0001143C0F81C12D0F8001221F00101C0F809
:101900000012002010BD000000640040704770B558
:1019100090F82040012C05D0022C03D0416A41F4FC
:10192000802128E0046809B32469A40720D04FF47B
:10193000D874056804EB01142D5915F00405956061
:1019400005682D591AD0ED08556005682C5904F02A
:101950000204D4604FF4DA74056804EB01142E59C4
:1019600006F00F06082E0CD308250DE0E468DCE72E
:10197000416A41F400114162012070BD6D0D156096
:10198000E3E72D5905F00F05156105682D59C5F3DD
:101990000725956105682C59240C54614FF4DC72BD
:1019A000046802EB0112A4581C700468A458240AAD
:1019B0005C700468A458240C9C700468A258120E31
:1019C000DA704FF4DE72046802EB0112A4581C7145
:1019D0000468A458240A5C710468A458240C9C71FF
:1019E0000468A258120EDA71006829B1016941F049
:1019F00020010161002070BDC16841F02001C1607B
:101A0000F8E70246002092F82010012901D00229AF
:101A10000CD111688A68520100D501208A68120130
:101A200000D5401C8968C90000D5401C70472DE9CD
:101A3000F05F0546006800244669D0F80490876886
:101A4000D0F80CB0D0F810A0D0F81880F10748D02A
:101A5000F90714D001218160B80703D5284600F0AA
:101A60004AFA0CE0780702D54FF4006407E0380723
:101A700002D54FF4805402E0284600F03BFAF80506
:101A800016D529684FF480708860B80503D52846BC
:101A900000F033FA0CE0780502D544F4005407E076
:101AA000380502D544F4804402E0284600F024FAC8
:101AB000F80316D529684FF480308860B80303D541
:101AC000284600F01CFA0CE0780302D544F40044E8
:101AD00007E0380302D544F4803402E0284600F0E1
:101AE0000DFA300707D55FEACB6004D529681020CE
:101AF00044F40074C86070074FF0080707D55FEA28
:101B00000B7004D52868C760284600F06FF9B0074D
:101B100006D52868C068800702D0284600F068F91A
:101B2000700607D55FEACA6004D52968102044F41E
:101B300080640861B00607D55FEA0A7004D528689A
:101B40000761284600F0A6F9F00606D52868006966
:101B5000800702D0284600F09EF9B00308D55FEA5E
:101B6000C96005D5296810204860284600F094F91E
:101B7000F00307D55FEA097004D528684760284656
:101B800000F0BEF9300446D55FEA497040D5F00553
:101B900004D55FEAC87001D044F00104B00504D553
:101BA0005FEA887001D544F00204700504D55FEA4D
:101BB000487001D544F00404300529D518F0700FA1
:101BC00026D008F07000402815D006DC102809D077
:101BD00020280AD0302816D10AE050280ED06028DC
:101BE00011D10EE044F008040DE044F010040AE0C6
:101BF00044F0200407E044F0400404E044F0800492
:101C000001E044F480742868816921F070018161E9
:101C1000296804204860002C05D0686A2043686267
:101C20002846FFF773FEBDE8F09F70B5040003D0AF
:101C300094F8200010B104E0012070BD204600F0AF
:101C400081F82068016841F00101016000F062FC48
:101C50000546052604E000F05DFC401B0A2811D86B
:101C600020684068C007F6D02068016821F00201B2
:101C7000016000F04FFC05460BE000F04BFC401B00
:101C80000A2806D9606A40F40030606284F8206057
:101C9000D2E7206840688007EFD4207E01282068C2
:101CA00001683DD021F080010160607E012820683C
:101CB000016838D021F040010160A07E0128206831
:101CC000016833D021F020010160E07E0128206806
:101CD00001682ED041F010010160207F01282068AA
:101CE000016829D021F008010160607F0128206887
:101CF000016824D021F004010160D4E90201084305
:101D0000D4E90412114308436168491E084321685D
:101D1000C86100206062012084F82000002070BDAE
:101D200041F08001C0E741F04001C5E741F02001EA
:101D3000CAE721F01001CFE741F00801D4E741F0F4
:101D40000401D9E710B586B0044614216846FEF7B1
:101D50007BFC2349206888423FD122480021026849
:101D600042F000720260006800F0007005901D48AB
:101D70001038026842F0080202600068022200F097
:101D8000080005900320CDE90210CDE900020920EA
:101D900004906946144800F0BBFA00221146132053
:101DA00000F026FC132000F015FC00221146142040
:101DB00000F01EFC142000F00DFC0022114615203E
:101DC00000F016FC152000F005FC0022114616203C
:101DD00000F00EFC162000F0FDFB06B010BD000068
:101DE0000064004040380240000C02407047000090
:101DF00030B5244989B0884235D16B4602AA00210A
:101E0000FFF785FD00282ED1049800282BD10598D6
:101E1000002828D10698082825D102984FF4A062FE
:101E2000904203D0A0F5A06101391CD1BDF8061085
:101E3000DFED150A00EE101A9FED141A144CB8EEDF
:101E4000400A0125904260EE200A80EE810A0CD102
:101E500084ED020A9DF8000000F00100A07000F07F
:101E600059FB2061257009B030BD84ED030A9DF84F
:101E7000000000F00100E07000F04CFB6061657054
:101E8000F1E7000004010020DB0FC94000FF7F479D
:101E900010000020704770477047000070B504467E
:101EA00090F82000012804D0606A40F400206062AD
:101EB00018E0022084F820002068016821F0010168
:101EC000016000F027FB05460EE000BF00F022FB9A
:101ED000401B0A2808D9606A40F40030606205207F
:101EE00084F82000012070BD20684068C007EDD153
:101EF000606270BD704770477047704770477047A9
:101F000070472DE9F0410446876D00F003FB06465B
:101F100094F835000025022806D08020606584F8FA
:101F200034500120BDE8F0812068016821F01601DD
:101F300001602068416921F080014161206C08B98D
:101F4000A06C20B12068016821F0080101602068C0
:101F5000016821F0010101600CE000F0DBFA801B58
:101F6000052807D920206065032084F8350084F80F
:101F70003450D7E720680068C007EED194F85C10B1
:101F80003F208840B860012084F8350084F8345040
:101F90000020C7E790F83510022903D08021416561
:101FA00001207047052180F835100068016821F094
:101FB00001010160002070472DE9F84304464FF00D
:101FC0000009CDF8009063484FF41651A56D0068E4
:101FD000B0FBF1F72E6894F85C10082000FA01F1CC
:101FE00031420FD021680A6852070BD50A6822F0E7
:101FF00004020A6094F85C108840A860606D40F0AC
:102000000100606594F85C104FF0010808FA01F0D7
:10201000304208D021684969090604D5A860606D7E
:1020200040F00200606594F85C1004208840304263
:1020300008D021680968890704D5A860606D40F060
:102040000400606594F85C1010208840304218D07D
:1020500021680968090714D5A86020680168490348
:1020600004D50068000308D5A16C07E00168C90524
:1020700003D4016821F008010160216C09B12046F8
:10208000884794F85C1020208840304231D0216885
:102090000968C9062DD5A86094F835000528206880
:1020A000016806D0490347D5006800031DD4616C60
:1020B0001CE021F0160101602068416921F08001D7
:1020C0004161206C08B9A06C20B12068016821F042
:1020D0000801016094F85C103F208840A86084F8F3
:1020E000358084F83490216D1FE0E16B09B1204602
:1020F0008847606D00282BD0606DC00714D0052084
:1021000084F835002068016821F001010160009821
:10211000401C0090B84203D820680068C007F6D180
:1021200084F8358084F83490E16C002910D001B037
:102130002046BDE8F04308470168C905D5D40168C9
:1021400021F01001016084F8358084F83490CCE7E8
:10215000BDE8F8830C0000202DE9F041044600F0B2
:10216000D9F906465CB1022084F83500002584F8D0
:1021700034502068016821F0010101600DE0012068
:10218000BDE8F08100F0C6F9801B052805D92020A4
:102190006065032084F83500F2E720680068C00716
:1021A000F0D12268116820480140D4E901031843A6
:1021B000D4E903363343184363691843A3691843CA
:1021C000E3691843236A18430843616A042903D169
:1021D000D4E90B1319430843106020684069666A0C
:1021E00020F0070130460E43012704280CD1A06AD5
:1021F0000643E06A40B12046FFF7A6F920B140202F
:10220000606584F83570BAE7206846612046FFF7BC
:1022100087F994F85C203F2191408160656584F8DE
:1022200035700020ACE700003F8010F02DE9F04150
:102230000446866D90F83400002501280DD0012059
:1022400084F8340094F835700020012F07D084F80A
:10225000340002252846BDE8F0810220FBE7022772
:1022600084F8357060652046FFF798F994F85C10A3
:102270003F208840B0602068016841F0160101608D
:10228000206C20B12068016841F0080101602068DD
:10229000016841F001010160DCE7000070B504460F
:1022A00000F038F90546601C02D004480078044468
:1022B00000F030F9401BA042FAD370BD00000020AE
:1022C00010B5202813D10A4CA07800280FD1002285
:1022D0000121084800F019F90120A07004F14C0117
:1022E000BDE810400722A1F1080003F067BA10BD55
:1022F0005800002000040240044910B50A68024258
:1023000002D00860FFF7DCFF10BD0000143C014064
:102310002DE9F84FDFF8BCA10022012503264FF07C
:102320000F090AF1040BAAF1040E00BF0B6805FAAD
:1023300002F42340A34270D10F7907F00307012F65
:1023400001D0022F16D187684FEA420806FA08FC2E
:1023500027EA0C07D1F80CC00CFA08FC4CEA070C71
:10236000C0F808C04768A7430C79C4F30014944030
:102370003C4344600C79E443A4070AD0C4684FEAA4
:10238000420C06FA0CF7BC438F6807FA0CF7274398
:10239000C7600C7904F00304022C12D1D40800EBBE
:1023A000840CDCF820405707FF0E09FA07F824EAEE
:1023B0000804D1F8108008FA07F848EA0408CCF8B5
:1023C000208004684FEA420C06FA0CF7BC430F79F0
:1023D00007F0030707FA0CF7274307604C6814F46B
:1023E000403F70D03C4C276847F480472760246802
:1023F00022F0030704F480440094384C07EB040CEB
:10240000DCF8084897074FEA177809FA08F7BC4341
:10241000334FB84202D1002724E054E0314FB84294
:1024200001D101271EE0304FB84201D1022719E047
:102430002E4FB84201D1032714E02D4FB84201D1ED
:1024400004270FE02B4FB84201D105270AE02A4F9D
:10245000B84201D1062705E0284FB84201D107272D
:1024600000E0082707FA08F72743CCF80878DAF8DD
:1024700000405746D1F804C09C435FEACC2C00D5FD
:102480001C433C60DBF800405F46D1F804C09C432D
:102490005FEA8C2C00D51C433C60DEF80040774698
:1024A000D1F804C09C435FEA8C3C00D51C433C60DF
:1024B000084F083F3C68D1F804C09C435FEACC3C1D
:1024C00000D51C433C60521C102AFFF42FAFBDE81E
:1024D000F88F0000083C01404438024000300140C1
:1024E000000002400004024000080240000C0240CC
:1024F000001002400014024000180240001C02407C
:102500000069084000D0012070470AB1816170471E
:102510000904FBE7014880687047000000000020C4
:1025200002488168027811448160704700000020F1
:102530000B4810B5016841F400710160016841F475
:1025400080610160016841F480710160032000F046
:102550006FF80F2000F006F800F024F8002010BDFE
:10256000003C024070B50D4D04464FF47A71287856
:10257000B1FBF0F00A490968B1FBF0F000F06AFD28
:1025800048B9102C07D200222146501E00F030F826
:1025900000206C6070BD012070BD000000000020B4
:1025A0000C0000200A4808B5016841F48041016030
:1025B000006800F4804000900548001F016841F069
:1025C00080510160006800F08050009008BD00005C
:1025D00044380240002809DB00F01F02012191402D
:1025E0004009800000F1E020C0F8001170470000B1
:1025F000F0B40E4B1B680C46C3F30223C3F107056E
:10260000042D00D90425191D072901D2002300E05B
:10261000DB1E012606FA05F1491E214099409E4025
:10262000761E16403143F0BC01F077BF0CED00E0A0
:10263000064900F0070208684FF6FF03184040EA19
:102640000220034A10430860704700000CED00E0D0
:102650000000FA052DE9F0470E46050065D0DFF8C9
:102660001481D8F80000F7B200F00700B04207D29A
:1026700088F80070D8F8000000F00700B04254D18C
:1026800028683D4C810712D5400703D5206840F4E7
:10269000E05020602878000703D5206840F46040AF
:1026A00020602068A96820F0F000084320602878A6
:1026B000C0072DD0304968680839012812D0022897
:1026C00013D0032811D00968890700292DDA216861
:1026D00021F0030101432160FFF71CFF814641F215
:1026E000883A0EE009688903EFE709688901ECE799
:1026F000FFF710FFA0EB0901514502D90320BDE807
:10270000F0872068696800F00C00B0EB810FEFD112
:10271000D8F80010404601F00701B14207D9077010
:10272000006800F00700B04201D00120E7E72878F8
:10273000400705D52068E96820F4E0500843206090
:102740002878000706D52068296920F4604040EA0F
:10275000C100206000F038F82168084AC1F3031175
:10276000515CC8400649086006480068FFF7FAFE59
:102770000020C4E7003C024008380240DA59000853
:102780000C00002004000020044805490068096886
:10279000044AC1F38221515CC84070470C000020FC
:1027A00008380240EA5900080448054900680968E9
:1027B000044AC1F34231515CC84070470C0000200C
:1027C00008380240EA590008154810B5006810F0B2
:1027D0000C02144813D01449042A0FD0082A0ED131
:1027E0000F4C241F2268236802F03F025B0207D5CA
:1027F0002068C0F38810A0FB010106E0084610BD68
:102800002168C1F38811A1FB00010023FDF734FD0D
:102810002168C1F30141491C4900B0FBF1F010BD32
:10282000083802400024F400001BB7002DE9F84FDF
:1028300004006ED02078DFF84C93C007A9F104059E
:102840004AD009F104000168C1F38101012908D0CF
:102850000068C0F3810002280AD1D9F800004002C4
:1028600006D52868800337D560680028E1D033E0BA
:102870006068B0F5803F10D0B0F5A02F286810D068
:1028800020F480302860286820F480202860606868
:10289000A8B1FFF73FFE06460DE0286840F48030FF
:1028A000F4E740F480202860F7E700BFFFF732FE2E
:1028B000801B642873D828688003F7D50CE0FFF7E5
:1028C00029FE064605E000BFFFF724FE801B6428B2
:1028D000F0D828688003F7D42078DFF8AC8280072E
:1028E0004FF0000A3ED5A748001D016811F00C0FFB
:1028F00008D00068C0F3810002280BD1D9F800008D
:10290000400207D42868800716D5E068012800D166
:1029100012E033E1E068B8B10120C8F80000FFF729
:10292000F9FD064605E000BFFFF7F4FD801B022815
:10293000C0D828688007F7D52868216920F0F800FA
:1029400040EAC10028600DE0C8F800A0FFF7E2FDF2
:10295000064604E0FFF7DEFD801B02281FD828682A
:102960008007F7D42078000722D5864F8748616911
:10297000703771B101210160FFF7CCFD064604E01C
:10298000FFF7C8FD801B022809D838688007F7D5F3
:102990000EE0C0F800A0FFF7BDFD064605E082E0AE
:1029A000FFF7B8FD801B02287DD838688007F7D470
:1029B0002078400768D5DFF8CCB100270BF13C0B3D
:1029C000DBF80000C0000BD4DBF8001041F08051B0
:1029D000CBF80010DBF80000012700F080500090D9
:1029E0006B4E3068C00510D4306840F480703060A1
:1029F000FFF790FD009005E0FFF78CFD0099401A6D
:102A0000022850D83068C005F6D55E4EA0686C36F6
:102A100001280FD00528306810D020F00100306068
:102A2000306820F004003060A068B8B1FFF772FD94
:102A300000900FE0306840F00100F4E740F004003F
:102A40003060F7E7FFF766FD0099411A41F28830E0
:102A5000814266D830688007F4D50EE0FFF75AFD52
:102A6000009007E0FFF756FD0099411A41F28830C7
:102A7000814256D830688007F4D42FB1DBF80010BB
:102A800021F08051CBF80010A069C8B33D49091D61
:102A90000968C1F3810102294AD00228504607D0B3
:102AA000C8F8600000E03CE0FFF734FD04463BE07E
:102AB0004746C8F86000FFF72DFD064605E000BF59
:102AC000FFF728FD801B02282BD828688001F7D447
:102AD000D4E907010843A16A2E4A490802EB0141E3
:102AE000626A41EA8211084394F82C1040EA0161BD
:102AF000C9F8001001203866FFF70CFD044606E017
:102B00003EE000BFFFF706FD001B022809D8286839
:102B10008001F7D534E000BFFFF7FCFC001B022862
:102B200002D90320BDE8F88F28688001F4D427E09B
:102B30000128F7D0D9F80000E26900F48001914241
:102B40001CD1226A00F03F01914217D147F6C071B3
:102B5000626A0140B1EB821F10D1A26A4FF0FF33CD
:102B600000F4403103EB5202B1EB024F06D194F86E
:102B70002C1000F07060B0EB016F01D00120D1E7A4
:102B80000020CFE70438024000004742800E474251
:102B9000007000400000FFFF7047000038B501687A
:102BA00004464A688868C043430606D5C30704D173
:102BB000D3435B0601D4216C05E0830708D4D343DB
:102BC0001B0605D4616C01B02046BDE830400847C3
:102BD000830603D5430601D5C30551D4D3439B06D1
:102BE0004ED443060AD494F85130032B49D0636D78
:102BF00043F004036365CB688B680093830609D4B4
:102C0000636D43F0010363658B6800930B6823F0E9
:102C100040030B60C00506D4606D40F0080060659D
:102C2000206880680090606D002829D02068416885
:102C300021F0E0014160012084F85100900701D4A7
:102C4000D00722D02068416821F003014160114D76
:102C5000E06C40B10565E06CFFF79CF918B1606D60
:102C600040F040006065A06C002809D00565A06CAC
:102C7000FFF790F9002803D0606D40F040006065D8
:102C800038BDC8688868009038BD2046FFF784FFCB
:102C900038BD0000F13C000870B5040009D0606A3E
:102CA000002540B125616561A56294F8510040B1ED
:102CB0000CE0012070BD6068B0F5827FF4D0E56162
:102CC000F2E784F85050204600F044F8022084F8DF
:102CD00051002068016821F040010160A08821892D
:102CE00000F4827001F404410843A18901F40061F9
:102CF0000843217C01F002010843217D01F001011C
:102D00000843218B01F400710843217F01F0380151
:102D1000084394F8201001F080010843218D01F44C
:102D20000051084321680860A069042101EA1040AD
:102D300094F8241001F010010843216848602068CD
:102D4000C16921F40061C1616565012084F8510009
:102D5000002070BD2DE9F04387B006461421684677
:102D6000FDF772FC3949306888426BD1384800243D
:102D7000016841F480510160006800F480500590C2
:102D800033481438016841F002010160016801F024
:102D900002010591016841F001010160006802250E
:102DA00000F0010005901820CDE9000502AA0327D4
:102DB0004FF0050882E8900169462648FFF7A8FA17
:102DC0008020CDE9000502AA694682E890012248E8
:102DD000FFF79EFA224D21487F06E5E802074020D2
:102DE0004FF48068A5E811014FF4003945F8144903
:102DF0001B48AC61C5E907496C62FFF7ADF908B142
:102E0000FEF7F6FBB564AE63154D144860354838DF
:102E10002860C5E90174C5E903486C61AC61C5E986
:102E2000074928466C62FFF797F908B1FEF7E0FB07
:102E3000F564002211462320AE63FFF7D9FB23205F
:102E4000FFF7C8FB07B0BDE8F08300000030014089
:102E5000443802400004024000000240586402402E
:102E6000840100202DE9FF4F81B01D4693460446A2
:102E70004FF001090E9EFFF74DFB074694F85100F5
:102E80006168012806D0B1F5827F3CD1A168C9BB39
:102E9000042838D10298002871D0BBF1000FFBD074
:102EA000002DF9D094F8500001282CD04FF0010AE1
:102EB00084F850A094F85100042802D0052084F82A
:102EC00051004FF00008C4F85480C4F838B0E587CA
:102ED000A58702992163E586A586C4F84080C4F8D9
:102EE000448020680168490603D4016841F040012C
:102EF0000160E068B0F5006F606808D0F0B3012DA4
:102F000049D081E0FFE7022005B0BDE8F08F08B1AD
:102F1000012D39D1206B21680088C860206B801C8E
:102F20002063E08E401EE0862EE0206881688907DD
:102F30000FD5E18E69B1B9F1010F0AD1216B098872
:102F4000C160206B801C2063E08E401EE0864FF045
:102F5000000920688168C9070CD0E18F51B1C068B1
:102F6000A16B0880A06B801CA063E08F401EE087EF
:102F70004FF00109FFF7CEFAC01B01E00BE067E05C
:102F8000B04201D3701C50D1E08E0028CDD1E08F2B
:102F90000028CAD13EE0206B216800780873206BBE
:102FA000401C2063E08E401EE0862DE02068816892
:102FB00089070FD5E18E69B1B9F1010F0AD1216BF3
:102FC00009780173206B401C2063E08E401EE08670
:102FD0004FF0000920688168C9070CD0E18F51B11A
:102FE000C068A16B0870A06B401CA063E08F401EFE
:102FF000E0874FF00109FFF78DFAC01BB04202D302
:10300000701C01D011E086B1E08E0028CED1E08F97
:103010000028CBD13A463146204600F071FE50B12F
:103020002020606584F8508012E084F851A084F874
:103030005080032068E7A06818B92068C1688068DC
:10304000009084F851A084F85080606D0028F1D081
:10305000012059E710B5401EB0F1807F01D3012057
:1030600010BD4FF0E02460610F21601701F055FAA8
:103070000020A06107202061002010BD38B5044663
:1030800090F84200202801D0022038BD51B14AB149
:103090000120206300206063204601F0C1F8216B0D
:1030A000012901D0012038BD21680A6849680091D2
:1030B00021680C3151E8002F42F0100241E8002352
:1030C000002BF5D138BD000010B50068054A9042CC
:1030D00006D1054801F020FCBDE8104002F01ABC02
:1030E00010BD000000140140A4030020044A016840
:1030F000914204D1002180F8401002F00BBC7047CF
:1031000000140140F8B5016804460868CA684B69B4
:1031100010F00F0F4FF0000559D003F0010602F434
:103120009077374365D0C10705D0D10503D5616CD1
:1031300041F001016164410705D5D90703D0616CF5
:1031400041F002016164810705D5D90703D0616CA4
:1031500041F004016164010707D502F02001314309
:1031600003D0616C41F008016164616C00293AD0C0
:10317000800604D5900602D5204600F06AFF20683C
:103180004069616CC0F38010090700D460B3204629
:1031900000F02AFF20684069400621D520681430DD
:1031A00050E8001F21F0400140E80012002AF5D14C
:1031B000E06BA8B172490165E06BFEF7EBFE0028F9
:1031C00011D0E06B016D01B0BDE8F0400847830607
:1031D0000FD593060DD52046BDE8F84000F039BF65
:1031E0002046FFF783FFF8BD2046FFF77FFF6564A9
:1031F000F8BD266B2023012E7ED1C6067CD5D606CF
:103200007AD508684868009048694FF00206400681
:103210004DD5E26B106840684FF480770004000CD5
:103220003AD0A18D814237D9E085D069B8422DD0FE
:1032300020680C3050E8001F21F4807140E8001233
:10324000002AF5D12068143050E8001F21F0010158
:1032500040E80012002AF5D12068143050E8001F21
:1032600021F0400140E80012002AF5D184F84230F4
:10327000256320680C3050E8001F21F0100140E861
:103280000012002AF5D1E06BFEF73BFE6663A08DCD
:10329000E18D401A81B206E0A18D8142A8D1D069AA
:1032A000B842A5D166632046FFF70EFFF8BDA08D9A
:1032B000E18D401A81B2E08D0028F7D00029F5D0C9
:1032C00020680C3050E8002F22F4907240E800276C
:1032D000002FF5D12068143050E8002F22F00102B1
:1032E00040E80027002FF5D184F84230256320689C
:1032F0000C3050E8002F00E006E022F0100240E819
:103300000023002BF3D1CDE705062BD5150629D5D3
:1033100094F841002128C9D1A068B0F5805F01D19F
:103320002069B0B1206A411C2162216800784860A0
:10333000E08C401E0004000CE084B7D12068C16816
:1033400021F08001C1602068C16841F04001C16086
:10335000F8BD206A0088C0F308004860206A801C1D
:103360002062E5E74006F3D55006F1D5CA6820464D
:1033700022F04002CA6084F8413000F011F9F8BD33
:10338000ED3E000870B5040004D094F8410000251B
:1033900010B106E0012070BD84F84050204600F0D6
:1033A00023F8242084F841002068C16821F40051EA
:1033B000C160204600F0AEFE2068016921F4904112
:1033C00001612068416921F02A0141612068C168DA
:1033D00041F40051C1606564202084F8410084F804
:1033E00042006563002070BDF0B587B00646142129
:1033F0006846FDF729F93A49384B326800253848C4
:103400001439022403279A422AD1026842F010029A
:103410000260006800F010000590086840F00200AB
:103420000860086800F002000590086840F001009C
:1034300008600868072600F00100059080200496C7
:103440008DE8B10069462748FEF762FF2002049626
:103450008DE8B10069462448FEF75AFF07B0F0BD79
:10346000224B9A42FAD1026842F0200202600068C0
:1034700000F020000590086840F0400008600868EF
:10348000694600F0400005904FF484408DE8B1009B
:10349000082004901648FEF73BFF174C15482060A3
:1034A0008005C4E901054FF48060C4E903506561FB
:1034B000A561E561256220466562FEF74DFE08B113
:1034C000FEF796F8F463002211464720A663FFF743
:1034D0008FF84720FFF77EF8C0E70000001001409A
:1034E0004438024000040240000002400014014041
:1034F0000018024028640240D40200207047704740
:103500002DE9F843044690F84100984616460D46CA
:10351000202802D00220BDE8F88385B17EB10020CA
:103520006064212084F84100FEF7F4FFA684814600
:10353000E684A0682027B0F5805F02D003E0012078
:10354000E9E7206910B12E4600250EE000260CE0C8
:103550008021204600F0B4FEA8B9C6B116F8010BD0
:1035600021684860E08C401EE084E08C4B464FF0C0
:103570000002CDF800800028EAD14FF0400120463B
:1035800000F09EFE40B184F841700320C3E735F897
:10359000020BC0F30800E3E784F841700020BAE7AB
:1035A0007047FEE70F4810B50D49016003214160E7
:1035B00000214FF410228160C0E903124FF4001281
:1035C0004261017641768176C17601774177FEF7D7
:1035D0002CFB002803D0BDE81040FEF709B810BD51
:1035E0000064004004010020114808B5016841F45E
:1035F000800101600068002200F480000090114604
:103600003820FEF7F5FF3820FEF7E4FF00221146D0
:103610003920FEF7EDFF3920FEF7DCFF00221146CE
:103620003B20FEF7E5FFBDE808403B20FEF7D2BF98
:10363000303802402DE9F04F87B014216846FDF77D
:1036400003F855480024016841F002010160016857
:1036500001F002010591016841F04001016001683B
:1036600001F040010591016841F00101016001682C
:1036700001F001010591016841F008010160016854
:1036800001F008010591016841F0800101600168C5
:1036900001F080010591016841F0040101600068BA
:1036A000DFF8F8B000F004000590012240F20111AB
:1036B0005846FEF72AFFDFF8E8A04FF48076002294
:1036C00031465046FEF721FFDFF8D8804FF4E0572F
:1036D000002239464046FEF718FFDFF8CC90012261
:1036E00010214846FEF711FF01250096CDE901544F
:1036F000694658460394FEF70BFE0096CDE9015447
:10370000694650460394FEF703FE0097CDE9015445
:10371000694640460394FEF7FBFDCDE90054694637
:1037200048460294FEF7F4FD1026CDE90065CDE988
:10373000025469464846FEF7EBFD4FF488100096A8
:10374000CDE9010469465046FEF7E2FD20200090D5
:103750004FF40410CDE9010469465046FEF7D8FD48
:10376000CDE902540095694658460195FEF7D0FD13
:10377000002211460A20FEF73BFF0A20FEF72AFF2F
:10378000002211461720FEF733FF1720FEF722FF15
:1037900007B0BDE8F08F000030380240000402405E
:1037A00000080240001C024000000240104810B512
:1037B0000E4901604FF48271416000210222816054
:1037C000C0E9031201224261520282611022C0E963
:1037D0000721416281620A21C162FFF75DFA002878
:1037E00003D0BDE81040FDF703BF10BD003001401D
:1037F0002C0100200C4810B50A4901604FF4E1315A
:103800004160002181600C22C160C0E90412816125
:10381000C161FFF7B7FD002803D0BDE81040FDF7F8
:10382000E7BE10BD00100140440200200C4810B556
:103830000A4901604FF4E1314160002181600C22AE
:10384000C160C0E904128161C161FFF79BFD0028DE
:1038500003D0BDE81040FDF7CBBE10BD0014014001
:103860008C020020FEE70A680260898881800021BE
:103870008160C1604FF47A720161C0E90512C8220B
:1038800002626422C26180F8241080F825108162EF
:10389000C162016380F8341080F83C10704700006A
:1038A0002DE9F0410446FDF7A5FE054694F82500F4
:1038B000A0B3A06A0A30A84240D8A1882068FEF7C9
:1038C0001FFE70B15FF0000694F824000027B0429C
:1038D0001FD046B1FDF78EFEE062A068C8B18047F8
:1038E00017E00126F0E7FDF785FE2063E06800B1F0
:1038F000804784F83470D4E90B01091AA069814229
:1039000005D294F83C00401C84F83C0001E084F8A7
:103910003C7084F8246084F825700FE0FFE7A188EC
:103920002068FEF7EDFD88B15FF0000094F82410E8
:10393000814203D00120A56284F8250094F8241068
:103940002A462046BDE8F04100F005B80120EDE729
:1039500081607047FEE710B5044690F82400012806
:1039600013D194F8340040B3A06BE169101A884277
:103970000BD9FDF73FFEA06394F83400401CC0B2A1
:1039800084F83400616901B1884794F83C0000284C
:1039900012D094F8240000280ED1FDF72BFE216BE5
:1039A000401A216A884207D9216911B194F83C0074
:1039B0008847002084F83C0010BDE06A0028E4D06D
:1039C000A169101A8842E0D9012084F834006169A5
:1039D00001B18847FDF70EFEA063D6E780ED030A2C
:1039E0007047000010B504462DED028BD0ED030AA0
:1039F00030EEC08AFDF700FE22690146801A00EE13
:103A0000100A9FED371AF8EE400A80EE810ADFEDCA
:103A1000350AB0EE601A82B178B1D4ED051A78EEAD
:103A2000610A71EE881A80EE801A21EE800AD4EDC8
:103A3000060AF6EE001A40EE210A94ED012AB5EED0
:103A4000C02AF1EE10FA24D094ED070AD4ED082A2A
:103A5000C0EE021A82EE820AF4EEC01AF1EE10FAFB
:103A600003DD00BFF0EE612A01E0F0EE402A01D252
:103A7000B0EE610AF4EEE20AF1EE10FA02DDF0EEC9
:103A8000620A06E0F4EEC00AF1EE10FA01D2F0EE9E
:103A9000400A94ED000A62EE201A94ED022A20EE0C
:103AA000080A22EE011A30EE210A30EE010A94EDE6
:103AB000071AB4EEC01AF1EE10FA06D394ED081A04
:103AC000B4EEC01AF1EE10FA01DDB0EE410A216148
:103AD00084ED058AC4ED060ABDEC028B10BD000022
:103AE000002474490000000080EC030A00219FEDCF
:103AF000090A80ED030A016180ED050A80ED060ADE
:103B00009FED050A80ED070A9FED040A80ED080A83
:103B10007047000000000000E2A74A4FE2A74ACF2A
:103B200080ED070AC0ED080A7047000000219FEDF4
:103B3000040A016180ED050A80ED060A7047000065
:103B4000000000007047B4EEE00AF1EE10FA02D275
:103B5000B0EE600A7047B4EEC10AF1EE10FAF9DD7A
:103B6000B0EE410A70470022012100F06DB800005C
:103B700000B58BB028216846FCF766FD124900208D
:103B8000087048708870C87001210590CDE9060161
:103B900004900E20CDE9081069460C48FDF730FE70
:103BA00008B1FDF725FD0948FEF778F908B1FDF7E2
:103BB0001FFD02210548FDF7A9FD002801D0FDF7F2
:103BC00017FD0BB000BD0000100000200401002014
:103BD000014890ED030A704710000020014890ED65
:103BE000020A7047100000200148C07870470000AA
:103BF0001000002070B5074C0546607838B1FEF71C
:103C000089FC6169401AA84201D8012070BD0020DA
:103C100070BD00001000002001488078704700004F
:103C20001000002070B5074C0546207838B1FEF72B
:103C300071FC2169401AA84201D8012070BD002002
:103C400070BD00001000002010B50446114888B077
:103C500006AB01704270110A8170012006900020AD
:103C60000290039061780B4A01F5806100916178C0
:103C70008DF8140001F580610191032004906946DC
:103C80002069FDF755FD2069FDF7BBFE0028FAD03D
:103C900008B010BD1400002010B504462DED028BB5
:103CA0009FED0D8ADFED0D0AB0EE481AFFF74BFFCE
:103CB000C0EE080A9FED0A0A0421BDEC028B20EE3B
:103CC000800ABDEEC00A10EE100A02B22046BDE81E
:103CD0001040FFF7B9BF000000007A4400007AC42A
:103CE00000FEFF460148FEF759BF00002C010020EE
:103CF00010B5806B0021C187C186FEF74DFF10BD56
:103D0000F8B515460E460B460092044601220221E4
:103D100000F02CF8A0B9134813490068B0FBF1F08B
:103D20004FF47A71484300906068B0F5827F0DD1FE
:103D30003346002280212046009500F017F870B12C
:103D4000606D40F0200060650320F8BD009830B140
:103D5000401E009020688068C0430006F6D5002011
:103D6000F8BD00000C00002000366E012DE9F8437C
:103D70001E46914688460446089DFEF7CBFB401B35
:103D8000351AFEF7C7FB074626480068C0F3CB305C
:103D900068430AE0701C09D0FEF7BCFBC01BA842B8
:103DA0000FD275B10098B8B3401E009020688168AA
:103DB00038EA010033D000214945EBD10020BDE8AD
:103DC000F8832068416821F0E00141606068B0F547
:103DD000827F0BD1A068B0F5004F02D0B0F5806FA4
:103DE00004D12068016821F040010160A06AB0F5AB
:103DF000005F09D12068016821F40051016020684A
:103E0000016841F400510160012084F85100002054
:103E100084F850000320D2E7FFE70025C6E7012120
:103E2000CAE700000C000020704700000148FFF7BF
:103E300033BF00007C0300200148FFF72DBF0000C6
:103E400090030020FEF76CBB30B593B0302168467C
:103E5000FCF7FAFB14210CA8FCF7F6FB1D48002523
:103E6000016841F080510160006800F080501190BD
:103E70001948016841F4804101600068022400F49F
:103E80008040119001200090000401908001CDE954
:103E9000064006200890A820CDE9090404200B90D4
:103EA0006846FEF7C3FC08B172B6FEE70CA90F2006
:103EB00081E831004FF4A0500F904FF480501090E3
:103EC00005210CA8FEF7C6FB002801D072B6FEE75C
:103ED00013B030BD40380240007000400248016815
:103EE00041F470010160704788ED00E010B5806B0F
:103EF0000021C185FFF7FAF810BD70B5846B20680A
:103F0000406994F84110C0F3C0100025212904D164
:103F100018B1E584204600F08EF82068406994F8D6
:103F20004210C0F38010222904D118B1E585204643
:103F300000F05AF8606C40F0100060642046FFF713
:103F4000D5F870BD10B50146806B096809684FF05F
:103F50000002C9052ED4C28501680C3151E8003F2A
:103F600023F4807341E80034002CF5D1016814314A
:103F700051E8003F23F0010341E80034002CF5D163
:103F80000168143151E8003F23F0400341E8003458
:103F9000002CF5D1202180F84210016B012909D1B4
:103FA00001680C3151E8003F23F0100341E8003470
:103FB000002CF5D14263016B012902D0FFF79EFA74
:103FC00010BD818DFFF780F810BD10B5806B012109
:103FD0004163016B012902D0FFF791FA10BD818D79
:103FE0004908FFF771F810BD01680C3151E8002F46
:103FF00022F4907241E80023002BF5D101681431BE
:1040000051E8002F22F0010241E80023002BF5D1F6
:10401000016B012909D101680C3151E8002F22F010
:10402000100241E80023002BF5D1202180F8421036
:1040300000210163704701680C3151E8002F22F024
:10404000C00241E80023002BF5D1202180F8411067
:10405000704708B590F84210222901D0022008BD0F
:1040600082684FF480539A4201D1016921B1816A7B
:104070009A421BD04AB10AE00268816A5268C2F3D0
:1040800008020A80816A891C08E0026972B102682C
:10409000526802F07F020A70816A491C8162C18DF8
:1040A000491E0904090CC18503D01BE0026852684F
:1040B000F1E70168CA6822F02002CA600168CA6894
:1040C00022F48072CA6001684A6922F001024A61E2
:1040D000202180F8421000214163026B012A03D0A5
:1040E000FFF70CFA002008BD016301680C3151E8AC
:1040F000002F22F0100241E80023002BF5D10168C7
:104100000A68D20602D50A6849680091818DFEF7D7
:10411000DBFFE7E770B5044600680169E26821F457
:104120004051114301612169A068E2690843616956
:10413000114308432168CA6849F20C639A43024359
:10414000CA6020684169A26921F44071114341614C
:1041500031492068884202D03049884202D1FEF7B6
:1041600023FB01E0FEF710FBE2690023192164251F
:104170003226B2F5004F626828D0A0FB0101930FF0
:104180009200FCF779F80146B0FBF5F06FF01802E9
:10419000504301EB800006EB0010B0FBF5F000F09F
:1041A000F002B1FBF5F002EB0012B1FBF5F06FF09D
:1041B0001803584301EB800006EB0010B0FBF5F04C
:1041C00000F00F0021681044886070BDA0FB010161
:1041D00092185B41FCF750F80146B0FBF5F0020184
:1041E000B1FBF5F06FF01803584301EB800006EBCC
:1041F000C000B0FBF5F000F0F80002EB4002B1FBAC
:10420000F5F0584301EB800006EBC000B0FBF5F081
:1042100000F00700D6E70000001001400014014044
:1042200038B58162044682850020134660642222EC
:1042300084F84220E56B1F4AEA63E56B1E4A2A6454
:10424000E56B1E4AEA64E26B10650A462168E06B82
:10425000091DFDF7EBFF30B110206064202084F8C9
:104260004200012038BD2068016840680090206944
:1042700048B120680C3050E8001F41F4807140E8DC
:104280000012002AF5D12068143050E8001F41F0D8
:10429000010140E80012002AF5D12068143050E8EE
:1042A000001F41F0400140E80012002AF5D1002033
:1042B00038BD0000453F0008CB3F0008FB3E00082A
:1042C0002DE9F843984617460D460446089E24E01B
:1042D000701C22D0FEF71EF9A0EB0800B0421AD8DD
:1042E000CEB12068C168490717D5802D15D0402D63
:1042F00013D00168C94309070FD40168002540683D
:1043000000902046FFF770FE0820606484F840505B
:104310000120BDE8F8830320FBE72068006835EA48
:10432000000004D00020B842D2D00020F1E70120E4
:10433000F9E700001FB516480178002926D00022B1
:10434000027001290BD002290CD000F1270116229E
:1043500004B01423BDE810400E48FFF7D1B80C4953
:104360001031F4E7D0E901128378C4688DE81E00AB
:10437000437809A280211848FBF7F6FF002805DBE7
:10438000802800DB7F20144982B2E1E71FBD0000D6
:10439000C400002044020020455849543A494D5574
:1043A0005F4F46464C494E452050484153453D25B8
:1043B00075205350493D256C75204552523D30784B
:1043C0002530386C5820445244593D2575204147CA
:1043D000453D256C750D0A003804002070B50C4C65
:1043E00005462078002811D1022D0ED1FCF7AAFC39
:1043F0006070FCF7C5FC6060FCF7BCFCA060FCF7DB
:10440000A7FCA070FCF7FAFDE060257070BD00000D
:10441000C40000200148FEF775BE00008C02002099
:10442000FEE700001CB50848009001200190002024
:1044300000F028F869460548FFF715FA04490348D3
:10444000FFF786FA1CBD000000000240F8030020C0
:104450005544000810B5FDF7F3F8022809D00548C7
:10446000007820B10020BDE8104000F00BB801201A
:10447000F9E710BDBC0000200148FFF711BA0000A9
:10448000F803002000B101200549087008B101229D
:1044900000E000224FF480710248FEF736B80000B9
:1044A000BC0000200008024000487047E4030020E0
:1044B000064800219FED060A01704180818080ED51
:1044C000020A80ED030A016101F024BAE40300202E
:1044D0000000000010B50446FEF71CF80449096905
:1044E000401AA04201D8012010BD002010BD0000DC
:1044F000E40300204100080218BF04200A0E18BF80
:1045000040F001004FF07F4232EA010108BF40F065
:104510000200012808BF052070470907090E00287E
:1045200004DB00F1E02080F80014704700F00F0079
:1045300000F1E02080F8141D7047000070B54FF0C6
:1045400068422DED048BF0EE408A18EE900AB0EE32
:10455000608A18EE101A02EB4003B3F1654F3CBFBE
:1045600002EB4102B2F1654F7DD200BFC0F3C753E9
:10457000C1F3C7529A1A1B2A09DD10F0004F14BF6D
:104580009FED830A9FED830ABDEC048B70BD12F191
:104590001A0F36DA11F0004F09D010F0004F0CBF9F
:1045A0009FED7D0A9FED7D0ABDEC048B70BD88EE0A
:1045B000889A19EE100AFFF79DFF042808BF00F043
:1045C00017F918EE900AFFF795FF054618EE100A46
:1045D000FFF790FF044619EE100AFFF78BFF042D3A
:1045E00018BF052D08D1042C18BF052C04D10028B4
:1045F00004BF0220FCF757F8B0EE490ABDEC048B6B
:1046000070BD4200B2EB410F3AD910F0004F19BF14
:10461000DFED630A9FED630ADFED630A9FED630A36
:10462000B0EE481A0A46B1EE688A80F00041F0EE1A
:10463000418A10460A1A5200B2F1807F34D24840B3
:1046400010F0004FDFED5A1A9FED5A2A1DBFBEEE43
:10465000001A70EEE10A30EE420AB6EE001A08BF08
:1046600070EEA10A00E040E008BF30EE020AB0EEB2
:10467000682A01EE482A08EE818AC2EE081A15E07F
:1046800011F0004F04BF9FED4C0AF0EE400AD1D06C
:1046900010F0004F19BFDFED490A9FED490ADFED29
:1046A000490A9FED490AC5E7C8EE881A21EEA11A0A
:1046B0009FED462ADFED462A41EE022A9FED452A6C
:1046C00001EE222ADFED442A41EE022A9FED432A21
:1046D000BDEC048B01EE222A21EE811A01EE020AC2
:1046E00030EE210A30EE200A70BD4FF07F42B2EB6F
:1046F000400F28BFB2EB410F09D2F0EE480AB0EEEE
:10470000680ABDEC048BBDE8704000F06DB840EA6B
:1047100001035B0008BF41F0FF410BD0B2EB400F3B
:1047200008BFB2EB410F08D120F0804008EE900A9C
:1047300021F0804108EE101A18E7B2EB400F12BFCB
:104740005FEA410340F0FF4001F000413FF40EAF4B
:10475000B2EB410F12BF5FEA400200F0004041F0AF
:10476000FF413FF403AF4A0092EA40033FF5FEAE3B
:10477000002AACBF9FED1A0A9FED1A0A68EE808AE4
:1047800028EE008A18EE900A18EE101AEEE60000E5
:10479000DB0FC9BFDB0FC93FDB0F4940DB0F49C04F
:1047A0000000C9BF22AAFDB90000C93F22AAFD39F5
:1047B0000060ED3EC30ACE3700000000000049C093
:1047C00022AA7DBA0000494022AA7D3A2DAD65BDDE
:1047D0008FB8D53D0FB511BE61C84C3EA8AAAABE80
:1047E0000000804F0000802F30EE200A704700004C
:1047F0009FED020A20EE000A704700000000001042
:1048000030380A2801D2012070470020704710B5C7
:1048100000220346491E89B20FE05018400803EBFE
:104820008004D4ED000AF4EEC00AF1EE10FA01DDC6
:10483000411EF0E703D2421C92B28A42EDD910BD6C
:1048400070B5144C06462DED028B0D462079B0B1A3
:10485000FFF7BEF9B0EE408AFCF798FA86ED000A41
:10486000FCF782FAD4ED060A70EE608A94ED070A2E
:1048700038EE400A01F060F838EE800A05E0FFF7F4
:10488000ADF986ED000AFFF7A3F985ED000ABDEC4E
:10489000028B70BD2800002010EE100AF6EE000A10
:1048A000074960EE200AA1EB600000EE100A20EE3E
:1048B000801AF7EE080A41EE400A20EE800A70479F
:1048C000DF59375FFDF734FEFFF7BEFAFEF7B2FEA1
:1048D000FEF78AFEFEF766FEFEF7A8FFFEF766FF0C
:1048E000FEF788FFFFF7E4FD6423062207A10948CD
:1048F000FEF706FEFFF796FDFCF7A8FEFCF7BAFEF2
:10490000FFF718FDFFF7B8FDF8E70000424F4F54DE
:104910000D0A00004402002070B505462DED048B01
:1049200084B000200C46ADF8000001900290039086
:1049300002E0521CADF80020BDF80020A24202D2D5
:10494000A85C2428F5D190B24FF0FF36A0422AD2BD
:10495000521CADF8002001AB6A46284600F0D6F89C
:1049600008BBBDF80000A0421DD2295C2C291AD139
:10497000401CADF8000002AB6A462146284600F014
:10498000C5F880B9BDF80000A0420CD2295C2C29E2
:1049900009D1401CADF8000003AB6A462146284609
:1049A00000F0B4F820B1304604B0BDEC048B70BD0B
:1049B000019808B1012200E00022274C22700299E0
:1049C00061800398A080D2B300EE101ADFED230AB5
:1049D0009FED231AB8EEC00ADFED238A30EE200ADD
:1049E00000EE900AF8EEE00A30EE818ADFED1D0A53
:1049F00030EE600AF0EE680A00F0D0F9B0EE409AAE
:104A0000F0EE680A9FED190A00F0C8F939EE400A85
:104A10009FED179A84ED020AF0EE490A9FED150A00
:104A200000F0BCF9F0EE408A9FED130AF0EE490A5F
:104A300038EE400A00F0B2F938EEC00A04E0FFE7B1
:104A40009FED0E0A84ED020A84ED030AFDF762FD74
:104A500020610020A8E70000E403002000608B43F1
:104A600000208A435D5DBA436FC8724474F5BBC2CF
:104A7000A50F3644603041C18329904300000000F7
:104A80001D4931F9010F00EE100A1B48F8EEC00A6B
:104A90009FED1A0A4C3820EE801ADFED190A61EEFC
:104AA000201A9FED181A21EE812ADFED171AC2EEA7
:104AB000212AC0ED0D2AB1F9022002EE102AB8EE2B
:104AC000C22A22EE002A22EE202A22EE012AC2EE7B
:104AD000212AC0ED0E2AB1F9041002EE101AB8EE28
:104AE000C22A22EE000A20EE200A20EE010AC0EEC1
:104AF000210AC0ED0F0A7047A40000200000FA440C
:104B000000000038DB0F4940000034432DE9F0433A
:104B100007461488002501202E464FF0FF3C8C42AA
:104B20000AD217F80480B8F12B0F03D0B8F12D0F7B
:104B300002D16046641CA4B26FF02F098C4210D2DF
:104B400017F80480B8F1300F0BD3B8F1390F08D83B
:104B500005EB850609EB4605641C4544A4B2012615
:104B6000ECE72EB16843186014800020BDE8F083A4
:104B70006046FBE710B5614C2DED048B204694EDAB
:104B80000A0A94ED0D9AD4ED0E8A94ED0F8A90EDF9
:104B90000C1AD0ED0B0AB5EEC00AF1EE10FA09D1ED
:104BA000F5EEC00AF1EE10FA04D1B5EEC01AF1EE3E
:104BB00010FA3BD020EE000A00EEA00A01EE010A36
:104BC000FFF76AFE94ED0B1AD4ED0A0AD4ED052A1C
:104BD00021EE003A94ED0C1A60EE800A94ED074A3B
:104BE00061EE003A94ED061A94ED080A22EE812A4D
:104BF00061EE001AB6EE001A12EEA21A42EEC41AC4
:104C000004EE002A00EE001A63EEA12A40EEC12A4B
:104C100023EE010A60EE820A03EEC20A43EE610A45
:104C200078EEA28A39EE009A38EE208A9FED340A97
:104C300004F11400D4ED083A69EE001A28EE802A37
:104C400068EE002A90EC030A20EEE13A01EE423AC7
:104C500003EEE23A73EE004A20EE213AC4ED054A33
:104C600001EE223A03EEC23A33EE204A20EE023A37
:104C700020EE220A84ED064A00EEE23A00EE820AB5
:104C800003EEA13A01EE610A33EE013A70EE230A17
:104C900024EEA40A84ED073AC4ED080A04EE040ADF
:104CA00003EE030A00EEA00AFFF7F6FDD4ED050AB5
:104CB00060EE800AC4ED050A94ED061A61EE001A52
:104CC000C4ED061A94ED071A21EE001A84ED071AB6
:104CD00094ED082A22EE000A84ED080A21EE800AEB
:104CE00000EEC10AF8EE000A20EE200A00F00AF8F1
:104CF00084ED090ABDEC048B10BD000058000020B3
:104D00006F12033AB5EEC00A10B5F1EE10FA2DEDB0
:104D1000028B04D2BFEE008AB1EE400A01E0B7EE8A
:104D2000008A4FF480610848FFF771FD00EE100A19
:104D3000DFED060AB8EE400A28EE000ABDEC028B51
:104D400020EE200A10BD0000F4590008DB0FC93A1C
:104D5000B5EEC00A10B5F1EE10FA2DED028B04D2BB
:104D6000BFEE008AB1EE400A01E0B7EE008A4FF4D0
:104D700080610848FFF74BFD00EE100ADFED060AE0
:104D8000B8EE400A28EE000ABDEC028B20EE200AA5
:104D900010BD0000F4690008DB0FC93A10B52DED15
:104DA000028BF0EE608AB0EE408AF5EEC08AF1EE3A
:104DB00010FA0CD1B5EEC08AF1EE10FA04DB9FEDCB
:104DC000130ABDEC028B10BD9FED110AF9E788EEC6
:104DD000280AFFF7BDFFF5EEC08AF1EE10FAF0D217
:104DE000B5EEC08ADFED0B0AF1EE10FA02DD30EE0F
:104DF000200AE6E7B5EEC08AF1EE10FA02D230EEF4
:104E0000600ADEE79FED040ADBE70000DB0FC93F25
:104E1000DB0FC9BFDB0F4940DB0F49C02DE9F04173
:104E200015461C460E4607460022FDF76EFB45F070
:104E3000800000F017FD14B1002000F013FD0020E9
:104E400000F010FD0446012231463846FDF75DFBB7
:104E50002046BDE8F0812DE9F04117461E460C467C
:104E600005460022FDF751FB384600F0FBFC3046BA
:104E700000F0F8FC21462846BDE8F0410122FDF78C
:104E800044BB000010B5FDF745FB05494A68821A8E
:104E90000A2A04D34860BDE81040FCF7A5BA10BD4B
:104EA000500000202DE9F04F8346FF49FD4AFE4B9C
:104EB000FC4CFD4DFB4EFC4F0068DFF8E883DFF84B
:104EC000E4C3DFF8E4E3A839483A483B1834903D9E
:104ED000303E303F4FF400694FF4001A0CF1300CB3
:104EE000404534D9884205D0904203D0984201D041
:104EF000A04201D1202025E0A84205D0B04203D035
:104F0000B84201D0604501D148461BE0DFF89883E4
:104F1000A8F17808404511D0DFF88883A8F1180877
:104F200040450BD0DFF88083A8F11808404505D034
:104F3000DFF8708308F14808404501D1504601E090
:104F40004FF00060DFF85C83A8F14C0835E0704555
:104F500036D9884205D0904203D0984201D0A04271
:104F600001D1202025E0A84205D0B04203D0B842AC
:104F700001D0604501D148461BE0DFF82C83A8F141
:104F80007808404511D0DFF81C83A8F11808404587
:104F90000BD0DFF81483A8F11808404505D0DFF8DE
:104FA000048308F14808404501D1504601E04FF024
:104FB0000060DFF8F082A8F15008C8F8000072E045
:104FC000DFF8E482A8F16008404536D9884205D070
:104FD000904203D0984201D0A04201D1202025E088
:104FE000A84205D0B04203D0B84201D0604501D1FB
:104FF00048461BE0DFF8B082A8F17808404511D0A0
:10500000DFF8A082A8F1180840450BD0DFF898829D
:10501000A8F11808404505D0DFF8888208F1480853
:10502000404501D1504601E04FF00060DFF8788242
:10503000A8F1B808C8F80C0035E0884205D09042C5
:1050400003D0984201D0A04201D1202025E0A842FF
:1050500005D0B04203D0B84201D0604501D14846E6
:105060001BE0DFF84482A8F17808404511D0DFF852
:105070003482A8F1180840450BD0DFF82C82A8F143
:105080001808404505D0DFF81C8208F14808404563
:1050900001D1504601E04FF00060DFF80C82A8F12A
:1050A000B808C8F80800DFF8FC81DBF800004FF40E
:1050B00080694FF4801A404534D9884205D0904227
:1050C00003D0984201D0A04201D1102025E0A8428F
:1050D00005D0B04203D0B84201D0604501D1484666
:1050E0001BE0DFF8C481A8F17808404511D0DFF853
:1050F000B481A8F1180840450BD0DFF8AC81A8F1C5
:105100001808404505D0DFF89C8108F14808404563
:1051100001D1504601E04FF08060DFF88881A8F1AE
:105120004C0835E0704536D9884205D0904203D00E
:10513000984201D0A04201D1102025E0A84205D01C
:10514000B04203D0B84201D0604501D148461BE0CF
:10515000DFF85481A8F17808404511D0DFF8448188
:10516000A8F1180840450BD0DFF83C81A8F11808D9
:10517000404505D0DFF82C8108F14808404501D1B1
:10518000504601E04FF08060DFF81881A8F1500828
:10519000C8F8000072E0DFF81081A8F1600840450F
:1051A00036D9884205D0904203D0984201D0A0421F
:1051B00001D1102025E0A84205D0B04203D0B8426A
:1051C00001D0604501D148461BE0DFF8DC80A8F142
:1051D0007808404511D0DFF8CC80A8F11808404588
:1051E0000BD0DFF8C480A8F11808404505D0DFF8DF
:1051F000B48008F14808404501D1504601E04FF025
:105200008060DFF8A480A8F1B808C8F80C0035E089
:10521000884205D0904203D0984201D0A04201D1EB
:10522000102025E0A84205D0B04203D0B84201D0FA
:10523000604501D148461BE0DFF86C80A8F1780892
:10524000404511D0DFF85C80A8F1180840450BD02C
:10525000DFF85480A8F11808404505D0DFF84480F5
:1052600008F14808404501D1504601E04FF0806008
:10527000DFF83480A8F1B808C8F80800DFF8248007
:10528000DBF800004FF400794FF4002A404534D990
:10529000884205D0904203D0984201D0A04205D167
:1052A000082025E058640240B8600240A84205D0BA
:1052B000B04203D0B84201D0604501D1484617E062
:1052C000DFF8A08440450FD0DFF89C8440450BD028
:1052D000DFF8908408F16008404505D0DFF8888445
:1052E00008F16008404501D1504601E04FF00070E0
:1052F000DFF87484A8F1340831E0704532D988426F
:1053000005D0904203D0984201D0A04201D108209C
:1053100021E0A84205D0B04203D0B84201D0604598
:1053200001D1484617E0DFF83C8440450FD0DFF854
:10533000388440450BD0DFF82C8408F160084045E4
:1053400005D0DFF8248408F16008404501D15046BB
:1053500001E04FF00070DFF81084A8F13808C8F8B9
:1053600000006AE0DFF8FC8308F11808404532D9F4
:10537000884205D0904203D0984201D0A04201D18A
:10538000082021E0A84205D0B04203D0B84201D0A5
:10539000604501D1484617E0DFF8C88340450FD08B
:1053A000DFF8C48340450BD0DFF8B88308F160080C
:1053B000404505D0DFF8B08308F16008404501D1D1
:1053C000504601E04FF00070DFF89883A8F14008E4
:1053D000C8F80C0031E0884205D0904203D09842D2
:1053E00001D0A04201D1082021E0A84205D0B0425E
:1053F00003D0B84201D0604501D1484617E0DFF83C
:10540000648340450FD0DFF8608340450BD0DFF860
:10541000548308F16008404505D0DFF84C8308F15B
:105420006008404501D1504601E04FF00070DFF8C0
:105430003483A8F14008C8F80800DFF82C83DBF8B3
:10544000000008F118084FF480794FF4802A404595
:1054500030D9884205D0904203D0984201D0A04272
:1054600001D1042021E0A84205D0B04203D0B842C7
:1054700001D0604501D1484617E0DFF8E882404599
:105480000FD0DFF8E48240450BD0DFF8D88208F176
:105490006008404505D0DFF8D08208F1600840453B
:1054A00001D1504601E04FF08070DFF8BC82A8F1D6
:1054B000340831E0704532D9884205D0904203D09B
:1054C000984201D0A04201D1042021E0A84205D099
:1054D000B04203D0B84201D0604501D1484617E040
:1054E000DFF8808240450FD0DFF87C8240450BD04A
:1054F000DFF8708208F16008404505D0DFF8688267
:1055000008F16008404501D1504601E04FF080703D
:10551000DFF85482A8F13808C8F800006AE0DFF824
:10552000448208F11808404532D9884205D090429B
:1055300003D0984201D0A04201D1042021E0A8422A
:1055400005D0B04203D0B84201D0604501D14846F1
:1055500017E0DFF8108240450FD0DFF80C8240459D
:105560000BD0DFF8008208F16008404505D0DFF875
:10557000F88108F16008404501D1504601E04FF044
:105580008070DFF8E081A8F14008C8F80C0031E035
:10559000884205D0904203D0984201D0A04201D168
:1055A000042021E0A84205D0B04203D0B84201D087
:1055B000604501D1484617E0DFF8A88140450FD08B
:1055C000DFF8A48140450BD0DFF8988108F160082E
:1055D000404505D0DFF8908108F16008404501D1D1
:1055E000504601E04FF08070DFF87881A8F1400864
:1055F000C8F80800DFF87081DBF8000008F118082F
:105600004FF480394FF4800A404527D9884205D0AD
:10561000904203D0984201D0A04201D101201AE06B
:10562000A84205D0B04203D0B84201D0604501D1B4
:10563000402010E04B4988420AD04B49884207D0AD
:1056400048496031884203D047496031884201D1DE
:10565000484600E050464449343928E0704529D98D
:10566000884205D0904203D0984201D0A04201D197
:1056700001201AE0A84205D0B04203D0B84201D0C0
:10568000604501D1402010E0364988420AD03649B1
:10569000884207D033496031884203D032496031B3
:1056A000884201D1484600E050462F493839086009
:1056B000BDE8F08FDFF8AC8008F11808404528D924
:1056C000884205D0904203D0984201D0A04201D137
:1056D00001201AE0A84205D0B04203D0B84201D060
:1056E000604501D1402010E01E4988420AD01E4981
:1056F000884207D01B496031884203D01A49603183
:10570000884201D1484600E0504616494039C860F9
:10571000CEE7884205D0904203D0984201D0A04203
:1057200001D101201AE0A84205D0B04203D0B8420E
:1057300001D0604501D1402010E00A4988420AD0DA
:105740000949884207D007496031884203D0064999
:105750006031884201D1484600E050460149403955
:105760008860A5E7406002404064024010B500F048
:1057700059F8114CE06CFFF795FBA06CFFF792FB1A
:105780002068416841F0030141602068416821F0D0
:10579000E00141602068016841F040010160E06C77
:1057A0000068016841F016010160E06C0068416921
:1057B00041F08001416110BD2C0100202DE9F04134
:1057C00015460E46074600F02DF8154CE06CFFF725
:1057D00069FBA06CFFF766FBE06C0068C660E16CDB
:1057E000206809680C308860A06C0068C760A16CF4
:1057F000206809680C308860E06C00684560A06C27
:1058000000684560E06C0068016841F001010160DA
:10581000A06C0068016841F001010160BDE8F08101
:105820002C0100200E48C16C09680A6822F00102B0
:105830000A60816C09680A6822F001020A60C16C82
:1058400009680A68D207F6D103E00A6822F001026B
:105850000A60816C09680A68D207F6D170470000B7
:105860002C01002001B582B04FF0FF3000900123E1
:1058700001AA02A90248FDF7F5FA9DF804000EBD41
:105880002C01002010B5FBF78FFB70B1FBF730FC4B
:1058900058B1FBF769FD002808D0FBF799FB0028F9
:1058A00004D0BDE81040FBF7BBBD002010BD0000D8
:1058B0007FB5054603A902A8FEF7C2FF144C01A953
:1058C00068462571FEF7BCFFA0789DED000AB0B1D7
:1058D000DDED020A30EE600AD4ED020A30EE200A55
:1058E00084ED020A9DED010ADDED030A30EE600A47
:1058F000D4ED030A30EE200A84ED030A7FBD84ED67
:10590000020A9DED010A012084ED030AA0707FBD0B
:105910002800002010B5402205490648FDF7AEFBDF
:105920000448C06B0068016821F00801016010BDE7
:10593000A40300208C020020DFED090A094901E0E0
:1059400030EE600A10EE100A8842F9DC064900BF0A
:1059500010EE100A884202D930EE200AF8E77047AC
:10596000DB0FC940DB0F4940DB0F49C0134890ED06
:105970000F0A417861B1D0ED030A9FED111A70EE64
:10598000600A90ED020A00EE810A80ED020A70477B
:10599000D0ED040A30EE800A80ED040A8188491CAB
:1059A00089B28180B1F57A7FF1D30121DFED050A5B
:1059B00080EE201A80ED031A4170704758000020D5
:1059C0006F12833A00007A444FF04070E1EE100A03
:1059D00070470006101600061016000000000000B8
:1059E000000001020304060708090000000001028C
:1059F00003040000000000008010C93A8010493BF9
:105A000060CC963B8010C93BA054FB3B60CC163C5D
:105A100070EE2F3C8010493C5E2E623C6E507B3C09
:105A20003F398A3C47CA963C3659A33C3EEAAF3CD4
:105A3000467BBC3C350AC93C3D9BD53C2C2AE23C0C
:105A400034BBEE3C234AFB3C89EC033D01340A3D68
:105A5000787B103DF0C2163D670A1D3DDF51233DA6
:105A60005699293DC2DF2F3D3927363DA46D3C3D77
:105A70000FB4423D87FB483DF2414F3D5D88553DA7
:105A8000C8CE5B3D2714623D925A683DF19F6E3D42
:105A90005CE6743DBB2B7B3D8DB8803D3CDB833D9C
:105AA00065FD863D14208A3D3E428D3DED64903D6E
:105AB0001687933D3FA9963DE2CA993D0BED9C3D6B
:105AC000AE0EA03D5130A33DF451A63D9773A93DC4
:105AD0003A95AC3D56B6AF3DF9D7B23D16F9B53D56
