:020000040800F2
:10000000F80900204D020008DF3500082B330008F6
:10001000DD35000841150008F53F0008000000002C
:10002000000000000000000000000000313A00085D
:100030005517000800000000D53600084D3A0008AA
:1000400067020008670200086702000867020008EC
:1000500067020008670200086702000867020008DC
:1000600067020008670200087517000867020008A9
:1000700067020008670200086702000867020008BC
:100080006702000867020008670200086915000897
:1000900045150008511500085D1500087B1700087C
:1000A000670200086702000867020008670200088C
:1000B000670200086702000867020008670200087C
:1000C0006702000867020008670200089537000809
:1000D000670200086702000867020008670200085C
:1000E000670200086702000867020008670200084C
:1000F000670200086702000867020008670200083C
:10010000670200086702000867020008670200082B
:10011000670200086702000867020008670200081B
:100120008D1600089916000867020008A516000839
:1001300067020008670200086702000867020008FB
:1001400067020008670200086702000867020008EB
:10015000670200086702000867020008E93F00081C
:1001600067020008670200086702000867020008CB
:10017000670200086702000867020008000000002C
:10018000670200086702000800F002F800F04FF86C
:100190000AA090E8000C82448344AAF10107DA45E2
:1001A00001D100F044F8AFF2090EBAE80F0013F0E5
:1001B000010F18BFFB1A43F0010318470C6700003A
:1001C0002C670000103A24BF78C878C1FAD85207CB
:1001D00024BF30C830C144BF04680C6070470000C1
:1001E0000023002400250026103A28BF78C1FBD840
:1001F000520728BF30C148BF0B607047662904F022
:100200000783642900F0D680752900F0D380002090
:1002100070471FB504F0F7FA00F048FC0400002016
:10022000002104F033FAE0601FBD10B510BD00F0EE
:100230003DFD1146FFF7EDFF03F062FF00F05BFDAF
:1002400003B4FFF7F2FF03BC00F09EFD09488047AE
:1002500009480047FEE7FEE7FEE7FEE7FEE7FEE7A8
:10026000FEE7FEE7FEE7FEE704480549054A064BC0
:1002700070470000E53A000889010008F8030020F3
:10028000F8090020F8050020F805002053EA020CC8
:1002900000F069802DE9F04B4FF00006002B1FBFE6
:1002A000B3FA83F503FA05F424FA05F65E4012BFAB
:1002B0001643B2FA82F502FA05F4C5F120051EBF15
:1002C00022FA05FC44EA0C04203556EA044C4FEAB5
:1002D000144418BF641C4FF000084FF0000990420E
:1002E00071EB030C39D3002919BFB1FA81F701FA78
:1002F00007F6B0FA80F700FA07F6C7F120071EBF2D
:1003000020FA07FC46EA0C062037B6FBF4FCA7EB04
:100310000507103F07F01F0BCBF120060CFA0BFB73
:100320002CFA06F644BFB3460026202FA4BF5E4633
:100330004FF0000B5BEA060C08BF4FF0010B19EB06
:100340000B09ABFB027C48EB0608C01B06FB02CC8A
:100350000BFB03CC71EB0C01C1E70B460246414697
:100360004846BDE8F08B13B54FF000004FF0000198
:10037000AFF30080BDE81C40704700000FB47CB5AF
:100380000C0009AA009001D02044401E084B7B4479
:1003900069460190089800F068FB05461CB10020F2
:1003A000694600F075FB28467CBC5DF814FB000034
:1003B000090700002DE9F041064600241068752960
:1003C000314616A510D0AFF30080002802DA404273
:1003D00013A507E031688A0701D512A502E0490795
:1003E00004D511A5012401E0AFF3008000210A2209
:1003F00006F1240709E0B0FBF2FCB0FBF2F302FBCC
:100400001C00303078541846491C0028F3D123468C
:100410002A463046BDE8F04100F0B9B800000000BF
:100420002D0000002B000000200000002DE9F04707
:100430004FF0000A89460446C0F820A02046E16833
:100440008847002876D0252806D0D4E90121904796
:10045000206A401C2062F1E7E168204600258847B9
:10046000C4F81CA006460027C4F818A02A2E09D0FC
:10047000304603F00FFE38B304EB8708303EC8F86F
:10048000186019E059F8041B204604EB87029161BB
:10049000E1688847012F064618D1E069002820DA74
:1004A00025F020051DE0D8F8180000EB800006EBD1
:1004B00040003038C8F818002046E16888470646F2
:1004C00003F0E8FD0028EED1012F0AD02E2E08D12E
:1004D0002046E16888477F1C0646022F45F020052C
:1004E000C4DBA069002803DA404245F00105A061A1
:1004F000E80701D025F01005B6B1A6F14100192892
:1005000002D8203645F400654A463146204625602B
:100510004D46FFF773FE58B1012806D0ED1D25F0BA
:10052000070000F1080989E704E005F1040985E7FF
:1005300030468AE7206ABDE8F0874FF0000200B538
:10054000134694469646203922BFA0E80C50A0E8F6
:100550000C50B1F12001BFF4F7AF090728BFA0E8A4
:100560000C5048BF0CC05DF804EB890028BF40F870
:10057000042B08BF704748BF20F8022B11F0804FB2
:1005800018BF00F8012B70477047704770472DE97E
:10059000F0470D4699469246044600F1240801684A
:1005A000880604D5E06921F01001216000E00120F7
:1005B000A84201DD471B00E00027A1697A1902EB80
:1005C0000900081AA0612078C00602D42046AFF3C3
:1005D0000080002608E0D4E901211AF806009047BF
:1005E000206A401C761C20624E45F4DB2078C00651
:1005F0000AD52046AFF3008006E0D4E9012130207F
:100600009047206A401C2062381EA7F10107F4DCE5
:1006100007E0D4E9012118F805009047206A401C42
:100620002062281EA5F10105F3DC2046AFF300800F
:100630002078000602D50220BDE8F0870120FBE704
:1006400070472DE9FF4F0C461E464FF0FF378BB029
:10065000D2E90001DDF860800A908A46C1F30A55AC
:1006600005B93D46002108464FF00000BAF1000FE1
:1006700000F4400005DA00EB80004FF4400101EA8D
:1006800050004FEA9059B9F1010F00DDB9460A98C0
:1006900050EA4A000ED044F61050A5F2FF3545430B
:1006A0002F14B8F1000F1ED07542291E1EDDC9F1AE
:1006B00000021CE0B8F1010F4FF0000001D0302122
:1006C00003E0F24305E02154401CB042FBDB30461E
:1006D0000022002121540B99C1F80880C1E90020B3
:1006E0000FB0BDE8F08FBD1B6D1CDEE74A4600DA97
:1006F000694206A800F064FA06AB93E8070003AB72
:1007000083E8070050460A9900F045FB8DE8070092
:10071000A0F500501F3800900398002D0ADD42F22A
:100720001F014A460844002303A90390684600F0CD
:10073000AEFD09E0A0F500504A461F38002303A98A
:100740000390684600F0B8FD8DE807000004000C37
:1007500003D04FF0FF30410800E01046B8F1000F21
:1007600003D00022009215461EE0751E05D400F04D
:10077000A1F9303262556D1EF9D5B3460122084306
:1007800002D000227F1C04E02078302801D1002212
:100790007F1E002A099784D01DE0112D07DA00F092
:1007A00089F9303262556D1C50EA0102F5D10843D7
:1007B00002D00098C8B10EE00021681E05E0235C5D
:1007C000625C63542254401E491C8142F7DBAB46F5
:1007D000A81B401E0990002004F80B000B98099AF2
:1007E000C0F80880C0E9002B7AE711264FF0000816
:1007F00057E72DE9F04F88460446D21D22F0070145
:1008000091B0D1E90001CDE90A0103F01BFC0246D9
:100810000B98C00F01D02D2007E02068810701D57B
:100820002B2002E0202101EAC000032A099001D018
:10083000072A05DB03464146204600F081F90BE11B
:100840002078800601D5E06900E00620B8F1650F48
:10085000814606D0B8F1660F18D0B8F1670F70D195
:1008600031E00020B9F1110F009001DB112301E00C
:1008700009F101030AAA01A90CA8FFF7E2FEDDE9CC
:100880000C70002609F10105834647E001204B4624
:1008900000904FF000470AAA01A90CA8FFF7D1FE6B
:1008A000DDE90DB00C995D46002610B909F1010093
:1008B0000D18B9EB050003D4C0F1FF3609F10105AD
:1008C000A5EB09002BE0B9F1010F01DA4FF00109A6
:1008D0000020B9F1110F0090484601DD112300E01E
:1008E00003460AAA01A90CA8FFF7ABFEDDE90C70CC
:1008F0004D4600268346207800070AD4AB4500DA2F
:100900005D4601A8012D04DD411911F8011C3029B3
:1009100007D04F4502DA17F1040F04DA01208246AE
:100920000FE06D1EEEE7002F02DCED1B3E4403E0FE
:10093000781CA84200DD7D1CB81B00F1010A4FF0B5
:1009400000472078000703D4AA4501DB4FF0FF3AA7
:100950000021B7F1004F0DF143088DF8431024D06A
:1009600002202B23002F01DA7F422D230A21021EB1
:10097000A0F1010000DC5FB197FBF1FC97FBF1F205
:1009800001FB1C7C17460CF1300C08F801CDEEE79A
:10099000A8F1010003702188090501D5452100E077
:1009A0006521A0F1010800F8011C09980FA9A1EB2D
:1009B0000807FF1D00B10120411901EBEA70A16990
:1009C0003844081A401EA0612078C00602D4204690
:1009D000AFF30080099828B1D4E901219047206A3B
:1009E000401C20622078C00622D52046AFF300804C
:1009F0001EE0002E04DBB34502DD01A8805D00E0AF
:100A00003020D4E901219047206A401C2062761CE6
:100A1000AAF101005FEA000A0AD100F047F8C068B5
:100A20000168405CD4E901219047206A401C2062A3
:100A3000281EA5F10105DCDC07E0D4E9012118F846
:100A4000010B9047206A401C2062381EA7F1010765
:100A5000F3DC2046AFF30080032011B041E6000034
:100A600001694A1C02610878704700B58FB0CDE972
:100A700001310021059105497944CDE90310114662
:100A80006846FFF7D3FC0FB000BD0000E5FFFFFF95
:100A90000A6802F8010B0A607047D1E900239A4204
:100AA00002D2531C0B601070704700000048704762
:100AB000B403002030B5B0F10A024FEA900E71F194
:100AC00000034EEA817EB0EB0E0061EB91014FEA2C
:100AD000101E4EEA017E10EB0E0041EB11114FEAA1
:100AE000102E4EEA016E10EB0E0041EB11214FEA81
:100AF000104E4EEA014E10EB0E0041EB1141401832
:100B000041F100014FEAD00040EA41704FEAD101C3
:100B100010EB80054FEA810444EA907444EB010431
:100B20006D1944EB0404521BA3414FF0000348BF6E
:100B30000A3200D530BD401C41F1000130BD00003B
:100B40002DE9F0411F46044603260168072A01F4F7
:100B5000006004DB08B116A505E016A503E008B1A6
:100B600015A500E015A521F010002060A069C01EA9
:100B7000A0610FB1401EA0612046AFF300804FB1CD
:100B8000D4E9012138469047206A401C2062C01CED
:100B9000206206E0206AFAE7D4E9012115F8010B8A
:100BA0009047761EF8D22046AFF30080BDE8F08172
:100BB0004E414E006E616E00494E4600696E660001
:100BC0002DE9F047814616468AB0354878440DC86D
:100BD0008DE80D0032487844801C03AC0DC884E8D1
:100BE0000D0041F69B300844372190FBF1F290FB59
:100BF000F1F5A5F1800501FB12041B3C02D564420E
:100C0000012000E00020DFF898A080460027FA4489
:100C1000AAF1BE0A0EE0E0070AD03246684607EBAA
:100C2000470101230AEB810100F046FB8DE8070034
:100C300064107F1C002CEED1194F7F44AE3F19E0A9
:100C4000E80715D007EB04100DF1180A90E80E0024
:100C50008AE80E00C068F04201D198190890324627
:100C6000012306A903A800F027FB03AB83E80700D4
:100C70006D10641C002DE3D14FF00103324669462C
:100C8000B8F1000F03A802D000F001FB01E000F072
:100C900013FBC9E90001C9F808200AB0BDE8F087D4
:100CA000E05C000000487047940300207546FFF7A1
:100CB000F9FFAE4605006946534620F00700854619
:100CC00018B020B5FFF7D0FABDE820404FF000067D
:100CD0004FF000074FF000084FF0000B21F0070124
:100CE000AC46ACE8C009ACE8C009ACE8C009ACE867
:100CF000C0098D46704710B50446AFF3008020460A
:100D0000BDE81040FFF79CBA4FF0013C50F8042BAF
:100D100051F8043B9A4221D1A2EB0C03934313EA0E
:100D2000CC1317D150F8042B51F8043B9A4215D13B
:100D3000A2EB0C03934313EACC130BD150F8042B12
:100D400051F8043B9A4209D1A2EB0C03934313EAF6
:100D5000CC13DBD04FF00000704700BFD01A01BAAF
:100D6000B1FA81F101F0180122FA01F0CB40C1F192
:100D70002001DBB2C0B2C01A2CFA01F3D11A9143A0
:100D800011EAC311E6D1704701491820ABBEFEE756
:100D90002600020070475FEA400C08BF91F0000F88
:100DA0004FEA8C234FEAC12243EA51514FEA1C50CB
:100DB00018BF00F5F0404FEA300018BF41F0004185
:100DC0005FEA6C5C00F02980BCF1FF3F08BF40F097
:100DD00080407047130C06BF12044FF0100C4FF008
:100DE000000C130E04BF12020CF1080C130F04BF09
:100DF00012010CF1040C930F04BF92000CF1020CD1
:100E0000D30F04BF52000CF1010C11464FF0000249
:100E1000A0F11F00A0EB0C00704711F0004F08BFBD
:100E2000704731F000413FF4D5AF0B0C06BF090409
:100E30004FF0100C4FF0000C0B0E04BF09020CF128
:100E4000080C0B0F04BF09010CF1040C8B0F04BF3D
:100E500089000CF1020CCB0F04BF49000CF1010C0E
:100E6000CCF12003A0EB0C0022FA03F302FA0CF2FF
:100E700041EA030100F10100704720F07F4C80EA55
:100E8000030023F07F47ACEB070303F57C5300F02E
:100E9000004003F1FF032DE980494FEA154B09B4E7
:100EA0004FEA144325EA0B4E24EA03480FF20426C6
:100EB00006EB132749083E785FEA320203FB066718
:100EC000C7F5000707FB06F64FEA54374FEAD64648
:100ED00006F1020607FB066CCCF1005C4FEA1C47EA
:100EE0002CEA074C07FB06F40CFB06F504EB154651
:100EF0004FEA961634BF00204FF000404FEAD1373A
:100F000006FB07FC4FEA1C4C0CFB0BF7D21B03FB48
:100F10000CF761EB07010CFB0EF7B0EB074072EB2F
:100F200017420CFB08F734BFA2EB0742B2EB0742B3
:100F300061EB17414FEA0C444FEA910706FB07FCAF
:100F40004FEA1C4C0CFB0BF7B0EBC74072EB57326F
:100F500003FB0CF734BFA2EBC742B2EBC74261EB15
:100F600057310CFB0EF7B0EBC70072EB57720CFB5E
:100F700008F734BFA2EBC702B2EBC70261EB5771AF
:100F8000039F4FEA816141EA921104EBCC044FEADE
:100F9000D1374FEA826206FB07FC42EA90124FEA21
:100FA00080604FEA1C4C0CFB0BF7D21B03FB0CF7C9
:100FB00061EB07010CFB0EF7B0EB074072EB174239
:100FC0000CFB08F734BFA2EB0742B2EB074261EB20
:100FD00017414FEA8C554FEA910704EB9C2406FB1E
:100FE00007FC4FEA1C4C0CFB0BF7B0EBC74072EB55
:100FF000573203FB0CF734BFA2EBC742B2EBC74238
:1010000061EB57310CFB0EF7B0EBC70072EB577278
:101010000CFB08F734BFA2EBC702B2EBC70261EBCF
:10102000577115EB4C254FEA816141EA92114FEA65
:1010300082624FEAD13742EA901206FB07FC44F184
:1010400000044FEA80604FEA1C4C0CFB0BF7D21BEC
:1010500003FB0CF761EB07010CFB0EF7B0EB07404D
:1010600072EB17420CFB08F734BFA2EB0742B2EB5E
:10107000074261EB174115EB1C154FEA813141EA3C
:1010800092414FEA823242EA90424FEA80304FEA80
:101090000C7644F1000448EA03434EEA0B484FF053
:1010A000000EB2EB080C71EB030724BF6246394611
:1010B0004EEB0E0E4FF0000B0018524149414BEB26
:1010C0000B0BB2EB080C71EB03077BF1000B24BF99
:1010D000624639464EEB0E0E4FF0000B001852419F
:1010E00049414BEB0B0BB2EB080C71EB03077BF1A7
:1010F000000B24BF624639464EEB0E0E51EA020742
:1011000018BF46F0010616EB0E7655F1000254F1B9
:10111000000103D5BDE88901BDE80088BDE889016B
:10112000BDE80048B619524141EB0101A3F10103AA
:10113000704780807F7E7D7C7B7A79787776767544
:101140007473727171706F6E6E6D6C6C6B6A6A69BC
:101150006868676666656464636362616160605F56
:101160005F5E5E5D5D5C5C5B5B5A5A5959585857CF
:101170005756565555555454535352525251515037
:1011800050504F4F4F4E4E4D4D4D4C4C4C4B4B4B8A
:101190004A4A4A49494948484847474747464646D0
:1011A000454545444444444343434342424242410B
:1011B0004141002B9C4630D477002BD01CB54FEA20
:1011C000370703B44FF010004FF01001BAF1000FD1
:1011D00006D0BCF1000FDCBF40F0080040F0080171
:1011E0004FF000000FBCBDE810400BF1010BBBF14C
:1011F000010F08BF5FEA170722BF12F1010211F1C8
:1012000001014FF0004143F1000300F0004043EAC8
:1012100000007047F9D35708D0E746EA064613F1B5
:10122000400F4FEA16461FDD13F1200FDFBF1643B4
:101230000A46002120335B42BED0C3F1200746EAB4
:10124000064602FA07F74FEA164646EA0706C3F1D2
:10125000200722FA03F201FA07F721FA03F14FF00F
:10126000000342EA0702A7E746EA020646EA064604
:101270004FEA164646EA0106BCBF46EA0646360C69
:101280004FF000034FF000024FF0000194E72DE90A
:10129000804C9A46934670B491E8380007C831EA0A
:1012A000400C48BF34EA430C03D5FFF7E6FDFFF7D7
:1012B00080FFF0BCBDE8008C2DE9804C9A46934637
:1012C00070B491E8380007C810F0804F08BF13F0E1
:1012D000804F03D100F005F8FFF76BFFF0BCBDE8CD
:1012E000008C20F07F4780EA030023F07F4C07EB5F
:1012F0000C03A3F57C5300F00040A3F1FE0392F031
:10130000000F00F0B38095F0000F00F077802DE91A
:1013100001494FEA11404FEA144621EA004800FB18
:1013200006FC24EA064708FB06F607FB08F800FB64
:1013300007F718EB06484CEB164C4FEA124B18EB2C
:1013400007484FEA15464CEB174022EA0B4E0BFBC1
:1013500006FC25EA06470EFB06F607FB0EFE0BFB16
:1013600007F71EEB064E4CEB164C4FF000061EEB3B
:10137000074E4CEB174B18EB0B0840F1000018EB35
:101380000E0B58EB000840F100008F1A4FF00001DF
:101390003CBFC943661B14BFB5EB040C00213CBF26
:1013A000C943F61B4FEA17444EEA8E0E27EA04455E
:1013B0004FEA1C4704FB07622CEA074C05FB07F7C2
:1013C0000CFB05F604FB0CFC16EB074642EB174240
:1013D00016EB0C4642EB1C421BEB060658EB0202D6
:1013E000414146EA9E0601D5BDE80189B619524140
:1013F00041EB0101A3F10103BDE801894FEA144566
:101400004FEA114724EA054621EA074C05FB07F499
:1014100006FB07F70CFB06F105FB0CFC11EB074183
:1014200044EB17444FEA124711EB0C4144EB1C44C8
:1014300022EA074C05FB07F206FB07F70CFB06F652
:1014400005FB0CFC16EB074642EB174216EB0C466D
:1014500042EB1C456A1854F1000148BF7047B619A9
:10146000524141EB0101A3F10103704795F0000FD8
:1014700037D04FEA11424FEA144721EA024624EAE4
:10148000074C02FB07F106FB07F70CFB06F402FB17
:101490000CFC14EB074441EB17414FEA154714EBE2
:1014A0000C4441EB1C4125EA074C02FB07F506FB07
:1014B00007F70CFB06F602FB0CFC16EB074645EBA8
:1014C000174516EB0C4645EB1C42121951F1000171
:1014D00048BF7047B619524141EB0101A3F1010326
:1014E00070474FEA14454FEA114724EA054621EABE
:1014F000074C05FB07F106FB07F70CFB06F24FF064
:10150000000605FB0CFC12EB074241EB174112EB06
:101510000C4251EB1C4148BF7047921841EB01014E
:10152000A3F1010370470000014890ED090A7047DC
:1015300028000020014890ED020A70472800002092
:10154000FEE70000014800F0C0B900009400002050
:10155000014800F0BAB9000094000020014800F0F2
:10156000B4B9000094000020014800F0AEB90000BA
:101570009400002070B52DED048BFFF7DBFFB0EE7B
:10158000409AFFF7D1FF3C4C9FED3C8AF0EE408A39
:10159000207848B984ED019AC4ED028A84ED038A6B
:1015A00084ED048A0120207002F026FD05460078B3
:1015B00098B1642002F036FD78B195ED020AD4EDC1
:1015C000010A30EE200A84ED010A95ED030AD4EDFC
:1015D000020A30EE200A84ED020A94ED010A30EE90
:1015E000490A03F009F8B0EE409A94ED020A30EE91
:1015F000680A03F001F894ED031AF0EE400ADFEDFB
:10160000201A39EE410A1F4800EE211A84ED031A10
:1016100094ED040A70EEC00A00EEA10A84ED040AFB
:10162000B0EE480A01F0DCFF1648B0EE480A283058
:1016300001F0D6FF94ED030A1248B1EE400A01F022
:10164000D3FFB0EE409A94ED040A0E48B1EE400A82
:10165000283001F0C9FF9FED0C8AF0EE408A29EE98
:10166000080A02F0E7F928EE880ABDEC048BBDE811
:10167000704002F0E5B900001400002000000000F6
:101680009A99993EC8020020EBC91841014800F020
:1016900063BB000074010020014800F05DBB000046
:1016A00064020020014800F057BB00001401002034
:1016B00001681823CAB2103AB2FBF3F2054B6FF37C
:1016C0000901032A9B5CC36500D9091D8165084691
:1016D000704700001448000810B5014600208B69CF
:1016E0008A6A4FF0C07453B1B3F5005F15D072B180
:1016F000012A0CD0022A0AD0032A09D104E01AB127
:10170000012A06D0022A03D1C96AC90100D50120E5
:1017100010BDC96AA142FAD010BD002AF7D0012A33
:10172000F2D0022AF3D0032AF3D010BD30B50468FA
:10173000256825F480252560046863608368402B54
:10174000036803D099600068C26030BD9A60006889
:10175000C16030BD70470000034804490068B0FB19
:10176000F1F00349086070470C00002040420F0070
:101770008C000020102000F081BC202000F07EBCF6
:1017800072B6FEE72DE9F0414FF0E0256F69DFF812
:101790003880D8F8000008B9FFF7DEFF00F078FDC8
:1017A0000446AE6900F074FD8442F7D1D8F8000019
:1017B000B91BB1FBF0F004EB4401C1EBC41100EB29
:1017C000C100BDE8F08100008C000020F0B590F869
:1017D00020500468A468012D05D0022D03D0416A71
:1017E00041F4802157E014F0406F01D1E5004FD55E
:1017F000C4F301640125A5401D608D684FF4C073DA
:101800009DB1CE6835434E6845EAC605066803EBD0
:101810000417F5514FF4C275076805EB04150E69FE
:101820007E51097D012905D009E00E88CD6845EA81
:101830004655EBE701684E5946F480764E511179D2
:10184000D579567941EA056195792D0445EA062551
:1018500029434FF4C676056806EB0416A9511178A2
:10186000D57841EA0561957852782D0445EA02223F
:1018700011434FF4C475026805EB0415515100681B
:1018800003EB0411425842F0010242500020F0BD27
:10189000416A41F4001141620120F0BD70470246E7
:1018A000002092F82010012901D002290CD11168E2
:1018B0008A68520100D501208A68120100D5401CB7
:1018C0008968C90000D5401C70472DE9F05F0546C6
:1018D000006800244669D0F804908768D0F80CB0FE
:1018E000D0F810A0D0F81880F10748D0F90714D02C
:1018F00001218160B80703D5284600F0CBF90CE040
:10190000780702D54FF4006407E0380702D54FF49A
:10191000805402E0284600F0BCF9F80516D5296885
:101920004FF480708860B80503D5284600F0B4F9FC
:101930000CE0780502D544F4005407E0380502D5E0
:1019400044F4804402E0284600F0A5F9F80316D5D7
:1019500029684FF480308860B80303D5284600F02A
:101960009DF90CE0780302D544F4004407E0380305
:1019700002D544F4803402E0284600F08EF93007A6
:1019800007D55FEACB6004D52968102044F40074C1
:10199000C86070074FF0080707D55FEA0B7004D5E1
:1019A0002868C760284600F06FF9B00706D5286898
:1019B000C068800702D0284600F067F9700607D596
:1019C0005FEACA6004D52968102044F48064086185
:1019D000B00607D55FEA0A7004D528680761284673
:1019E00000F054F9F00606D528680069800702D097
:1019F000284600F04CF9B00308D55FEAC96005D568
:101A0000296810204860284600F042F9F00307D505
:101A10005FEA097004D528684760284600F03FF95E
:101A2000300446D55FEA497040D5F00504D55FEA39
:101A3000C87001D044F00104B00504D55FEA887095
:101A400001D544F00204700504D55FEA487001D561
:101A500044F00404300529D518F0700F26D008F0A2
:101A60007000402815D006DC102809D020280AD0A4
:101A7000302816D10AE050280ED0602811D10EE08F
:101A800044F008040DE044F010040AE044F020049F
:101A900007E044F0400404E044F0800401E044F432
:101AA00080742868816921F07001816129680420AF
:101AB0004860002C05D0686A204368622846FFF71A
:101AC000EDFEBDE8F09F70B5040003D094F820004F
:101AD00010B104E0012070BD204600F081F82068BC
:101AE000016841F00101016000F0D2FB05460526C6
:101AF00004E000F0CDFB401B0A2811D820684068A4
:101B0000C007F6D02068016821F00201016000F0F2
:101B1000BFFB05460BE000F0BBFB401B0A2806D9C3
:101B2000606A40F40030606284F82060D2E7206888
:101B300040688007EFD4207E0128206801683DD0EE
:101B400021F080010160607E01282068016838D0A2
:101B500021F040010160A07E01282068016833D097
:101B600021F020010160E07E0128206801682ED06C
:101B700041F010010160207F01282068016829D010
:101B800021F008010160607F01282068016824D0ED
:101B900021F004010160D4E902010843D4E90412F0
:101BA000114308436168491E08432168C861002049
:101BB0006062012084F82000002070BD41F08001A7
:101BC000C0E741F04001C5E741F02001CAE721F03C
:101BD0001001CFE741F00801D4E741F00401D9E753
:101BE00010B586B0044614216846FEF7A6FC2349CA
:101BF000206888423FD122480021026842F00072EA
:101C00000260006800F0007005901D4810380268FE
:101C100042F0080202600068022200F0080005900D
:101C20000320CDE90210CDE90002092004906946A5
:101C3000144800F02FFA00221146132000F096FB02
:101C4000132000F085FB00221146142000F08EFBCB
:101C5000142000F07DFB00221146152000F086FBC9
:101C6000152000F075FB00221146162000F07EFBC7
:101C7000162000F06DFB06B010BD000000640040AF
:101C800040380240000C0240704770477047704770
:101C9000704770477047704770477047704770478C
:101CA0002DE9F0410446876D00F0F2FA064694F8FB
:101CB00035000025022806D08020606584F8345065
:101CC0000120BDE8F0812068016821F01601016063
:101CD0002068416921F080014161206C08B9A06C45
:101CE00020B12068016821F00801016020680168C6
:101CF00021F0010101600CE000F0CAFA801B052808
:101D000007D920206065032084F8350084F834501A
:101D1000D7E720680068C007EED194F85C103F2038
:101D20008840B860012084F8350084F834500020E1
:101D3000C7E790F83510022903D0802141650120C2
:101D40007047052180F835100068016821F0010115
:101D500001600020704700002DE9F84304464FF071
:101D60000009CDF8009063484FF41651A56D006846
:101D7000B0FBF1F72E6894F85C10082000FA01F12E
:101D800031420FD021680A6852070BD50A6822F049
:101D900004020A6094F85C108840A860606D40F00E
:101DA0000100606594F85C104FF0010808FA01F03A
:101DB000304208D021684969090604D5A860606DE1
:101DC00040F00200606594F85C10042088403042C6
:101DD00008D021680968890704D5A860606D40F0C3
:101DE0000400606594F85C1010208840304218D0E0
:101DF00021680968090714D5A860206801684903AB
:101E000004D50068000308D5A16C07E00168C90586
:101E100003D4016821F008010160216C09B120465A
:101E2000884794F85C1020208840304231D02168E7
:101E30000968C9062DD5A86094F8350005282068E2
:101E4000016806D0490347D5006800031DD4616CC2
:101E50001CE021F0160101602068416921F0800139
:101E60004161206C08B9A06C20B12068016821F0A4
:101E70000801016094F85C103F208840A86084F855
:101E8000358084F83490216D1FE0E16B09B1204664
:101E90008847606D00282BD0606DC00714D00520E6
:101EA00084F835002068016821F001010160009884
:101EB000401C0090B84203D820680068C007F6D1E3
:101EC00084F8358084F83490E16C002910D001B09A
:101ED0002046BDE8F04308470168C905D5D401682C
:101EE00021F01001016084F8358084F83490CCE74B
:101EF000BDE8F8830C0000202DE9F041044600F015
:101F0000C7F906465CB1022084F83500002584F844
:101F100034502068016821F0010101600DE00120CA
:101F2000BDE8F08100F0B4F9801B052805D9202018
:101F30006065032084F83500F2E720680068C00778
:101F4000F0D12268116820480140D4E90103184308
:101F5000D4E903363343184363691843A36918432C
:101F6000E3691843236A18430843616A042903D1CB
:101F7000D4E90B1319430843106020684069666A6E
:101F800020F0070130460E43012704280CD1A06A37
:101F90000643E06A40B12046FFF79EFB20B1402097
:101FA000606584F83570BAE7206846612046FFF71F
:101FB0007FFB94F85C203F2191408160656584F847
:101FC00035700020ACE700003F8010F02DE9F041B3
:101FD0000446866D90F83400002501280DD00120BC
:101FE00084F8340094F835700020012F07D084F86D
:101FF000340002252846BDE8F0810220FBE70227D5
:1020000084F8357060652046FFF790FB94F85C100B
:102010003F208840B0602068016841F016010160EF
:10202000206C20B12068016841F00801016020683F
:10203000016841F001010160DCE7000010B52028D3
:1020400014D10B4CA078002810D10022012109489E
:1020500000F018F90120A07004F14C02BDE8104016
:102060000723A2F10801044800F0BCBD10BD000028
:102070002800002000040240BC000020044910B5E4
:102080000A68024202D00860FFF7D8FF10BD0000C6
:10209000143C01402DE9F84FDFF8BCA100220125D6
:1020A00003264FF00F090AF1040BAAF1040E00BF3A
:1020B0000B6805FA02F42340A34270D10F7907F0B0
:1020C0000307012F01D0022F16D187684FEA42087B
:1020D00006FA08FC27EA0C07D1F80CC00CFA08FC39
:1020E0004CEA070CC0F808C04768A7430C79C4F352
:1020F000001494403C4344600C79E443A4070AD0A4
:10210000C4684FEA420C06FA0CF7BC438F6807FA22
:102110000CF72743C7600C7904F00304022C12D19A
:10212000D40800EB840CDCF820405707FF0E09FAB6
:1021300007F824EA0804D1F8108008FA07F848EAFA
:102140000408CCF8208004684FEA420C06FA0CF729
:10215000BC430F7907F0030707FA0CF72743076022
:102160004C6814F4403F70D03C4C276847F48047DB
:102170002760246822F0030704F480440094384C5C
:1021800007EB040CDCF8084897074FEA177809FAC0
:1021900008F7BC43334FB84202D1002724E054E093
:1021A000314FB84201D101271EE0304FB84201D172
:1021B000022719E02E4FB84201D1032714E02D4F1A
:1021C000B84201D104270FE02B4FB84201D10527B7
:1021D0000AE02A4FB84201D1062705E0284FB8424D
:1021E00001D1072700E0082707FA08F72743CCF8B2
:1021F0000878DAF800405746D1F804C09C435FEAFB
:10220000CC2C00D51C433C60DBF800405F46D1F885
:1022100004C09C435FEA8C2C00D51C433C60DEF874
:1022200000407746D1F804C09C435FEA8C3C00D55F
:102230001C433C60084F083F3C68D1F804C09C43F5
:102240005FEACC3C00D51C433C60521C102AFFF4D2
:102250002FAFBDE8F88F0000083C01404438024031
:10226000003001400000024000040240000802402B
:10227000000C02400010024000140240001802400E
:10228000001C02400AB1816170470904FBE70000AD
:102290000148806870470000000000200248816803
:1022A0000278114481607047000000200B4810B58F
:1022B000016841F400710160016841F480610160CE
:1022C000016841F480710160032000F06FF80F2075
:1022D00000F006F800F024F8002010BD003C024099
:1022E00070B50D4D04464FF47A712878B1FBF0F0CB
:1022F0000A490968B1FBF0F000F073FD48B9102CF1
:1023000007D200222146501E00F030F800206C60F9
:1023100070BD012070BD0000000000200C000020F6
:102320000A4808B5016841F480410160006800F482
:10233000804000900548001F016841F08051016015
:10234000006800F08050009008BD00004438024052
:10235000002809DB00F01F020121914040098000A4
:1023600000F1E020C0F8001170470000F0B40E4BFF
:102370001B680C46C3F30223C3F10705042D00D9E3
:102380000425191D072901D2002300E0DB1E0126C8
:1023900006FA05F1491E214099409E40761E1640DE
:1023A0003143F0BC01F066BE0CED00E0064900F0E0
:1023B000070208684FF6FF03184040EA0220034A6C
:1023C00010430860704700000CED00E00000FA05C3
:1023D0002DE9F0470E46050065D0DFF81481D8F8E6
:1023E0000000F7B200F00700B04207D288F8007092
:1023F000D8F8000000F00700B04254D128683D4CE6
:10240000810712D5400703D5206840F4E0502060D2
:102410002878000703D5206840F4604020602068D9
:10242000A96820F0F000084320602878C0072DD06C
:10243000304968680839012812D0022813D00328CF
:1024400011D00968890700292DDA216821F00301DC
:1024500001432160FFF71CFF814641F2883A0EE0FC
:1024600009688903EFE709688901ECE7FFF710FFC6
:10247000A0EB0901514502D90320BDE8F08720688F
:10248000696800F00C00B0EB810FEFD1D8F80010B4
:10249000404601F00701B14207D90770006800F01B
:1024A0000700B04201D00120E7E72878400705D5B2
:1024B0002068E96820F4E05008432060287800078D
:1024C00006D52068296920F4604040EAC1002060F8
:1024D00000F038F82168084AC1F30311515CC84084
:1024E0000649086006480068FFF7FAFE0020C4E7C6
:1024F000003C0240083802401C4800080C00002044
:10250000040000200448054900680968044AC1F332
:102510008221515CC84070470C00002008380240FE
:102520002C4800080448054900680968044AC1F3BA
:102530004231515CC84070470C000020083802400E
:102540002C480008154810B5006810F00C0214481B
:1025500013D01449042A0FD0082A0ED10F4C241F7F
:102560002268236802F03F025B0207D52068C0F3AF
:102570008810A0FB010106E0084610BD2168C1F3E8
:102580008811A1FB00010023FDF780FE2168C1F343
:102590000141491C4900B0FBF1F010BD0838024070
:1025A0000024F400001BB7002DE9F84F04006ED0A2
:1025B0002078DFF84C93C007A9F104054AD009F14F
:1025C00004000168C1F38101012908D00068C0F34B
:1025D000810002280AD1D9F80000400206D52868F7
:1025E000800337D560680028E1D033E06068B0F53B
:1025F000803F10D0B0F5A02F286810D020F4803094
:102600002860286820F4802028606068A8B1FFF75F
:102610003FFE06460DE0286840F48030F4E740F4C1
:1026200080202860F7E700BFFFF732FE801B642898
:1026300073D828688003F7D50CE0FFF729FE06461B
:1026400005E000BFFFF724FE801B6428F0D828684F
:102650008003F7D42078DFF8AC8280074FF0000ABF
:102660003ED5A748001D016811F00C0F08D0006886
:10267000C0F3810002280BD1D9F80000400207D432
:102680002868800716D5E068012800D112E033E100
:10269000E068B8B10120C8F80000FFF7F9FD064670
:1026A00005E000BFFFF7F4FD801B0228C0D82868B2
:1026B0008007F7D52868216920F0F80040EAC100BA
:1026C00028600DE0C8F800A0FFF7E2FD064604E030
:1026D000FFF7DEFD801B02281FD828688007F7D48B
:1026E0002078000722D5864F87486169703771B11D
:1026F00001210160FFF7CCFD064604E0FFF7C8FDAD
:10270000801B022809D838688007F7D50EE0C0F88A
:1027100000A0FFF7BDFD064605E082E0FFF7B8FD2B
:10272000801B02287DD838688007F7D420784007BE
:1027300068D5DFF8CCB100270BF13C0BDBF80000CB
:10274000C0000BD4DBF8001041F08051CBF8001032
:10275000DBF80000012700F0805000906B4E3068DD
:10276000C00510D4306840F480703060FFF790FDF1
:10277000009005E0FFF78CFD0099401A022850D820
:102780003068C005F6D55E4EA0686C3601280FD0C3
:102790000528306810D020F001003060306820F04B
:1027A00004003060A068B8B1FFF772FD00900FE040
:1027B000306840F00100F4E740F004003060F7E7D3
:1027C000FFF766FD0099411A41F28830814266D8D0
:1027D00030688007F4D50EE0FFF75AFD009007E05F
:1027E000FFF756FD0099411A41F28830814256D8D0
:1027F00030688007F4D42FB1DBF8001021F080514D
:10280000CBF80010A069C8B33D49091D0968C1F3A0
:10281000810102294AD00228504607D0C8F860003A
:1028200000E03CE0FFF734FD04463BE04746C8F8D3
:102830006000FFF72DFD064605E000BFFFF728FD0D
:10284000801B02282BD828688001F7D4D4E907011F
:102850000843A16A2E4A490802EB0141626A41EA33
:102860008211084394F82C1040EA0161C9F8001065
:1028700001203866FFF70CFD044606E03EE000BF8D
:10288000FFF706FD001B022809D828688001F7D54C
:1028900034E000BFFFF7FCFC001B022802D9032034
:1028A000BDE8F88F28688001F4D427E00128F7D02C
:1028B000D9F80000E26900F4800191421CD1226A3B
:1028C00000F03F01914217D147F6C071626A0140A2
:1028D000B1EB821F10D1A26A4FF0FF3300F44031F8
:1028E00003EB5202B1EB024F06D194F82C1000F02A
:1028F0007060B0EB016F01D00120D1E70020CFE77D
:102900000438024000004742800E474200700040F9
:102910000000FFFF7047000038B5016804464A68B0
:102920008868C043430606D5C30704D1D3435B067A
:1029300001D4216C05E0830708D4D3431B0605D4DA
:10294000616C01B02046BDE830400847830603D5DE
:10295000430601D5C30551D4D3439B064ED4430649
:102960000AD494F85130032B49D0636D43F004032B
:102970006365CB688B680093830609D4636D43F06D
:10298000010363658B6800930B6823F040030B60C1
:10299000C00506D4606D40F008006065206880685E
:1029A0000090606D002829D02068416821F0E00186
:1029B0004160012084F85100900701D4D00722D053
:1029C0002068416821F003014160114DE06C40B185
:1029D0000565E06CFFF7ADF918B1606D40F040009F
:1029E0006065A06C002809D00565A06CFFF7A1F90F
:1029F000002803D0606D40F04000606538BDC868B5
:102A00008868009038BD2046FFF784FF38BD00007D
:102A1000A137000870B5040009D0606A002540B1F4
:102A200025616561A56294F8510040B10CE0012078
:102A300070BD6068B0F5827FF4D0E561F2E784F89C
:102A40005050204600F044F8022084F851002068DD
:102A5000016821F040010160A088218900F48270A2
:102A600001F404410843A18901F400610843217C79
:102A700001F002010843217D01F001010843218B8F
:102A800001F400710843217F01F03801084394F8F4
:102A9000201001F080010843218D01F4005108430A
:102AA00021680860A069042101EA104094F824100C
:102AB00001F010010843216848602068C16921F4D1
:102AC0000061C1616565012084F85100002070BD7E
:102AD0002DE9F04387B0064614216846FDF72DFD29
:102AE0003949306888426BD138480024016841F484
:102AF00080510160006800F480500590334814381C
:102B0000016841F002010160016801F002010591D4
:102B1000016841F0010101600068022500F0010038
:102B200005901820CDE9000502AA03274FF00508FB
:102B300082E8900169462648FFF7ACFA8020CDE98B
:102B4000000502AA694682E890012248FFF7A2FA2E
:102B5000224D21487F06E5E8020740204FF48068B7
:102B6000A5E811014FF4003945F814491B48AC6140
:102B7000C5E907496C62FFF7BFF908B1FEF700FE2F
:102B8000B564AE63154D1448603548382860C5E912
:102B90000174C5E903486C61AC61C5E90749284681
:102BA0006C62FFF7A9F908B1FEF7EAFDF5640022AF
:102BB00011462320AE63FFF7D9FB2320FFF7C8FBA4
:102BC00007B0BDE8F0830000003001404438024007
:102BD000000402400000024058640240140100203A
:102BE0007047704770B5044690F851006568012839
:102BF00006D0B5F5827F3AD1A568A5BB042836D1A9
:102C000091B38AB383B394F8500001282FD00120E8
:102C100084F8500094F85100042802D0052084F86C
:102C20005100002565652163A386E386A263A3871F
:102C3000E3872564656494F85100042819D0E16C99
:102C4000274808642748E16CC863E16C2648C864DB
:102C5000E06C0565E38F2168A26B0C31E06CFFF737
:102C6000B5F900BB0AE002E0FFE7012070BD0220D9
:102C700070BDE16C1D4808641D48E4E720684168A8
:102C800041F001014160A06C0564A06CC563A06CBB
:102C9000C564A06C0565E38E2268216B0C32A06CC4
:102CA000FFF794F930B1606D40F01000606584F872
:102CB0005050DAE720680168490603D4016841F002
:102CC0004001016084F850502068416841F02001C3
:102CD00041602068416841F002014160002070BD00
:102CE000DD37000851380008B1370008D337000835
:102CF000E737000870B500683249884260D1324C2D
:102D0000A078324D012843D0A078022858D1012262
:102D100010212846FFF7B6FA04F15C00B0F9021062
:102D200000EE101AF8EEC00AB0EE080A20EE801A83
:102D3000DFED270A61EE201A9FED261A61EE811A57
:102D4000C4ED0A1AB0F9041001EE901AF8EEE11A77
:102D500061EE801A61EEA01A61EE811AC4ED0B1AC1
:102D6000B0F9060001EE900AF8EEE11A21EE800AB1
:102D700020EE200A20EE010A84ED0C0A01F056FC38
:102D800001F0D4FA0020A070BDE87040FEF7F2BB5D
:102D9000012211461048FFF775FA01F04DFA0022A2
:102DA00010212846FFF76EFA0220A070064ABDE8FF
:102DB000704008235C32A2F108010848FFF712BFF7
:102DC00070BD0000003001402800002000000240DB
:102DD0000AE81C410000003800040240BC0000204A
:102DE000704710B5401EB0F1807F01D3012010BDA7
:102DF0004FF0E02460610F21601701F03BF90020E3
:102E0000A06107202061002010BD38B5044690F86D
:102E10004200202801D0022038BD51B14AB1012022
:102E2000206300206063204600F0FEFF216B012933
:102E300001D0012038BD21680A68496800912168E5
:102E40000C3151E8002F42F0100241E80023002B22
:102E5000F5D138BD10B50068084A90420DD1084838
:102E600001F070F94FF0FF3340220549054800F0AA
:102E70000BFABDE8104001F0ADBB10BD00140140DD
:102E800040030020D401002070470000F8B501681D
:102E900004460868CA684B6910F00F0F4FF0000530
:102EA00059D003F0010602F49077374365D0C1078B
:102EB00005D0D10503D5616C41F001016164410782
:102EC00005D5D90703D0616C41F002016164810727
:102ED00005D5D90703D0616C41F004016164010795
:102EE00007D502F02001314303D0616C41F00801A5
:102EF0006164616C00293AD0800604D5900602D541
:102F0000204600F0AAFE20684069616CC0F3801082
:102F1000090700D460B3204600F06AFE20684069CB
:102F2000400621D52068143050E8001F21F04001F0
:102F300040E80012002AF5D1E06BA8B172490165A2
:102F4000E06BFEF7F6FE002811D0E06B016D01B0DA
:102F5000BDE8F040084783060FD593060DD52046FF
:102F6000BDE8F84000F079BE2046FFF78DFFF8BDC0
:102F70002046FFF789FF6564F8BD266B2023012EEC
:102F80007ED1C6067CD5D6067AD5086848680090FA
:102F900048694FF0020640064DD5E26B1068406864
:102FA0004FF480770004000C3AD0A18D814237D9CC
:102FB000E085D069B8422DD020680C3050E8001F61
:102FC00021F4807140E80012002AF5D12068143005
:102FD00050E8001F21F0010140E80012002AF5D15D
:102FE0002068143050E8001F21F0400140E8001232
:102FF000002AF5D184F84230256320680C3050E86F
:10300000001F21F0100140E80012002AF5D1E06B0A
:10301000FEF746FE6663A08DE18D401A81B206E0A0
:10302000A18D8142A8D1D069B842A5D1666320465E
:10303000FFF710FFF8BDA08DE18D401A81B2E08D41
:103040000028F7D00029F5D020680C3050E8002F78
:1030500022F4907240E80027002FF5D12068143048
:1030600050E8002F22F0010240E80027002FF5D1A0
:1030700084F84230256320680C3050E8002F00E0CF
:1030800006E022F0100240E80023002BF3D1CDE748
:1030900005062BD5150629D594F841002128C9D15C
:1030A000A068B0F5805F01D12069B0B1206A411CF1
:1030B0002162216800784860E08C401E0004000C0A
:1030C000E084B7D12068C16821F08001C160206828
:1030D000C16841F04001C160F8BD206A0088C0F3BA
:1030E00008004860206A801C2062E5E74006F3D5AE
:1030F0005006F1D5CA68204622F04002CA6084F822
:10310000413000F011F9F8BDF53A000870B504003F
:1031100004D094F84100002510B106E0012070BDF4
:1031200084F84050204600F023F8242084F8410021
:103130002068C16821F40051C160204600F0EEFD16
:103140002068016921F4904101612068416921F002
:103150002A0141612068C16841F40051C160656481
:10316000202084F8410084F842006563002070BD8F
:10317000F0B587B0064614216846FDF7DEF93A49F6
:10318000384B3268002538481439022403279A4204
:103190002AD1026842F010020260006800F01000BC
:1031A0000590086840F002000860086800F002001E
:1031B0000590086840F0010008600868072600F0E4
:1031C00001000590802004968DE8B10069462748EB
:1031D000FEF760FF200204968DE8B100694624489E
:1031E000FEF758FF07B0F0BD224B9A42FAD10268B1
:1031F00042F020020260006800F02000059008689C
:1032000040F0400008600868694600F04000059002
:103210004FF484408DE8B100082004901648FEF772
:1032200039FF174C154820608005C4E901054FF4AB
:103230008060C4E903506561A561E56125622046AF
:103240006562FEF759FE08B1FEF79AFAF4630022B0
:1032500011464720A663FFF789F84720FFF778F863
:10326000C0E7000000100140443802400004024062
:10327000000002400014014000180240286402408F
:1032800064020020704770472DE9F843044690F827
:103290004100984616460D46202802D00220BDE87F
:1032A000F88385B17EB100206064212084F841005C
:1032B000FEF7EEFFA6848146E684A0682027B0F5DD
:1032C000805F02D003E00120E9E7206910B12E46BB
:1032D00000250EE000260CE08021204600F0F4FDE1
:1032E000A8B9C6B116F8010B21684860E08C401EF1
:1032F000E084E08C4B464FF00002CDF800800028BF
:10330000EAD14FF04001204600F0DEFD40B184F8E4
:1033100041700320C3E735F8020BC0F30800E3E770
:1033200084F841700020BAE77047FEE70F4810B5F7
:103330000D4901600321416000214FF4102281609A
:10334000C0E903124FF400124261017641768176A2
:10335000C17601774177FEF7B6FB002803D0BDE8C0
:103360001040FEF70DBA10BD00640040940000202C
:10337000114808B5016841F480010160006800222D
:1033800000F48000009011463820FEF7EFFF38204F
:10339000FEF7DEFF002211463920FEF7E7FF392055
:1033A000FEF7D6FF002211463B20FEF7DFFFBDE807
:1033B00008403B20FEF7CCBF303802402DE9F04FEB
:1033C00087B014216846FDF7B8F851480024016819
:1033D00041F002010160016801F0020105910168FC
:1033E00041F040010160016801F040010591016870
:1033F00041F001010160016801F0010105910168DE
:1034000041F008010160016801F0080105910168BF
:1034100041F080010160016801F0800105910168BF
:1034200041F0040101600068DFF8E8B000F004003A
:103430000590012240F201115846FEF723FFDFF804
:10344000D8A04FF48076002231465046FEF71AFF8E
:10345000DFF8C8804FF4E057002239464046FEF7B7
:1034600011FFDFF8BC90012210214846FEF70AFF49
:1034700001250096CDE90154694658460394FEF7AC
:1034800009FE0096CDE90154694650460394FEF7C3
:1034900001FE0097CDE90154694640460394FEF7CA
:1034A000F9FD1026CDE90065CDE90254694648468C
:1034B000FEF7F0FD4FF488100096CDE9010469464F
:1034C0005046FEF7E7FD202000904FF40410CDE9B0
:1034D000010469465046FEF7DDFDCDE90254009532
:1034E000694658460195FEF7D5FD002211460A208F
:1034F000FEF73CFF0A20FEF72BFF002211461720A3
:10350000FEF734FF1720FEF723FF07B0BDE8F08F6A
:10351000303802400004024000080240001C024013
:1035200000000240104810B50E4901604FF482714E
:103530004160002102228160C0E903120122426140
:10354000520282611022C0E90721416281620A2190
:10355000C162FFF75FFA002803D0BDE81040FEF714
:103560000FB910BD00300140BC0000200C4810B560
:103570000A4901604FF4E1314160002181600C2271
:10358000C160C0E904128161C161FFF7BFFD00287D
:1035900003D0BDE81040FEF7F3B810BD00100140A5
:1035A000D40100200C4810B50A4901604FF4E13104
:1035B0004160002181600C22C160C0E90412816178
:1035C000C161FFF7A3FD002803D0BDE81040FEF75E
:1035D000D7B810BD001401401C020020FEE7FEE732
:1035E00080ED030A704700002DE9F04104462DEDFF
:1035F000028BD0ED030A30EEC08AFEF7C3F8054611
:10360000D4E904600027AA1B804667EB000110463E
:1036100001F083F800EE100A9FED2C1A56EA080616
:10362000C0EE010A9FED2A0AB0EE401A0FD0D4ED89
:10363000061A38EE611A71EE881A81EE200A61EEE0
:10364000A00A94ED071AF6EE001A00EEA11AD4EDC6
:10365000000AD4ED021A20EE882AD4ED010A60EEA9
:10366000810A21EE800AD4ED081AF4EEE01AF1EE98
:1036700010FA02D2F0EE610A08E0D4ED092AF4EE65
:10368000E02AF1EE10FA01DDF0EE620A72EE200A95
:1036900030EE800AF4EEC01AF1EE10FA02D2B0EE6B
:1036A000610A08E0D4ED090AF4EEC00AF1EE10FA5E
:1036B00001DDB0EE600AC4E9045784ED068A84EDAA
:1036C000071ABDEC028BBDE8F081000000247449AC
:1036D000000000007047B4EEE00AF1EE10FA02D2EA
:1036E000B0EE600A7047B4EEC10AF1EE10FAF9DDEF
:1036F000B0EE410A7047000010B50446114888B08A
:1037000006AB01704270110A817001200690002002
:103710000290039061780B4A01F580610091617815
:103720008DF8140001F58061019103200490694631
:103730002069FEF74BF82069FEF7B1F80028FAD0AF
:1037400008B010BD1000002010B504462DED028B0E
:103750009FED0D8ADFED0D0AB0EE481AFFF7BBFFB3
:10376000C0EE080A9FED0A0A0421BDEC028B20EE90
:10377000800ABDEEC00A10EE100A02B22046BDE873
:103780001040FFF7B9BF000000007A4400007AC47F
:1037900000FEFF460148FFF7BFB80000BC00002054
:1037A00010B5806B0021C187C186FFF7B3F810BD4B
:1037B00010B5806B01684A6822F003024A60416DCF
:1037C00041F010014165012180F85110FFF7A2F886
:1037D00010BD10B5806BFFF704FA10BD10B5806BFB
:1037E000FFF7FEFA10BD70B50546846BFEF750FD7D
:1037F000024628680068C00526D42068416821F088
:1038000020014160A06818B96068B0F5827F16D0C9
:103810002068416821F0010141606421204600F0E8
:1038200044F808B1202060650020E087012084F87A
:103830005100606D40B12046FFF76CF870BD206804
:10384000416821F00301E7E72046FFF7C9F970BDA1
:1038500070B50546846BFEF71BFD024628680068BC
:10386000C0051ED42068416821F020014160642118
:10387000204600F049F818B1606D40F02000606506
:103880002068416821F0030141600020E086E08764
:10389000012084F85100606D18B12046FFF73AF816
:1038A00070BD2046FFF726FA70BDF8B504464068A3
:1038B0004FF48273984221D1A0684FF48065B0F52F
:1038C000004F01D0A8420AD12068066826F04006C1
:1038D00006606068984211D1A068A8420ED000929C
:1038E0000B4600228021204600F044F8002804D036
:1038F000606D40F0200060650320F8BD00920B462B
:1039000000220121EFE70000F8B515460E460B46F0
:10391000009204460122022100F02CF8A0B91348BD
:1039200013490068B0FBF1F04FF47A7148430090FE
:103930006068B0F5827F0DD1334600228021204699
:10394000009500F017F870B1606D40F020006065E0
:103950000320F8BD009830B1401E009020688068B8
:10396000C0430006F6D50020F8BD00000C00002082
:1039700000366E012DE9F8431E46914688460446FE
:10398000089DFEF785FC401B351AFEF781FC0746B3
:1039900026480068C0F3CB3068430AE0701C09D0A9
:1039A000FEF776FCC01BA8420FD275B10098B8B3E1
:1039B000401E00902068816838EA010033D0002161
:1039C0004945EBD10020BDE8F8832068416821F02B
:1039D000E00141606068B0F5827F0BD1A068B0F56E
:1039E000004F02D0B0F5806F04D12068016821F04B
:1039F00040010160A06AB0F5005F09D1206801684C
:103A000021F4005101602068016841F40051016017
:103A1000012084F85100002084F850000320D2E7F0
:103A2000FFE70025C6E70121CAE700000C000020DF
:103A3000704700000148FFF787BE00001803002010
:103A40000148FFF781BE00002C030020FEF726BCD2
:103A500030B593B030216846FCF76FFD14210CA8F7
:103A6000FCF76BFD1D480025016841F080510160A5
:103A7000006800F0805011901948016841F48041BD
:103A800001600068022400F4804011900120009041
:103A9000000401908001CDE9064006200890A8208E
:103AA000CDE9090404200B906846FEF77DFD08B1BE
:103AB00072B6FEE70CA90F2081E831004FF4A05048
:103AC0000F904FF48050109005210CA8FEF780FC59
:103AD000002801D072B6FEE713B030BD4038024076
:103AE000007000400248016841F4700101607047B5
:103AF00088ED00E010B5806B0021C185FFF7C4F9A7
:103B000010BD70B5846B2068406994F84110C0F313
:103B1000C0100025212904D118B1E584204600F009
:103B20008EF82068406994F84210C0F38010222972
:103B300004D118B1E585204600F05AF8606C40F0D9
:103B4000100060642046FFF79FF970BD10B5014674
:103B5000806B096809684FF00002C9052ED4C28540
:103B600001680C3151E8003F23F4807341E80034D0
:103B7000002CF5D10168143151E8003F23F0010316
:103B800041E80034002CF5D10168143151E8003FC0
:103B900023F0400341E80034002CF5D1202180F8C7
:103BA0004210016B012909D101680C3151E8003F35
:103BB00023F0100341E80034002CF5D14263016B7F
:103BC000012902D0FFF75EFB10BD818DFFF742F99E
:103BD00010BD10B5806B01214163016B012902D03A
:103BE000FFF751FB10BD818D4908FFF733F910BD78
:103BF00001680C3151E8002F22F4907241E8002353
:103C0000002BF5D10168143151E8002F22F0010298
:103C100041E80023002BF5D1016B012909D101688E
:103C20000C3151E8002F22F0100241E80023002B54
:103C3000F5D1202180F8421000210163704701680E
:103C40000C3151E8002F22F0C00241E80023002B84
:103C5000F5D1202180F84110704708B590F8421046
:103C6000222901D0022008BD82684FF480539A4275
:103C700001D1016921B1816A9A421BD04AB10AE09F
:103C80000268816A5268C2F308020A80816A891C4C
:103C900008E0026972B10268526802F07F020A709D
:103CA000816A491C8162C18D491E0904090CC185C4
:103CB00003D01BE002685268F1E70168CA6822F08D
:103CC0002002CA600168CA6822F48072CA60016872
:103CD0004A6922F001024A61202180F84210002145
:103CE0004163026B012A03D0FFF7CCFA002008BD24
:103CF000016301680C3151E8002F22F0100241E805
:103D00000023002BF5D101680A68D20602D50A68A3
:103D100049680091818DFFF79DF8E7E770B504468B
:103D200000680169E26821F4405111430161216991
:103D3000A068E26908436169114308432168CA68C1
:103D400049F20C639A430243CA6020684169A26940
:103D500021F440711143416131492068884202D009
:103D60003049884202D1FEF7DDFB01E0FEF7CAFBD5
:103D7000E2690023192164253226B2F5004F6268FA
:103D800028D0A0FB0101930F9200FCF77FFA0146B7
:103D9000B0FBF5F06FF01802504301EB800006EB2A
:103DA0000010B0FBF5F000F0F002B1FBF5F002EB13
:103DB0000012B1FBF5F06FF01803584301EB8000DF
:103DC00006EB0010B0FBF5F000F00F002168104486
:103DD000886070BDA0FB010192185B41FCF756FAA8
:103DE0000146B0FBF5F00201B1FBF5F06FF01803EE
:103DF000584301EB800006EBC000B0FBF5F000F08B
:103E0000F80002EB4002B1FBF5F0584301EB8000F3
:103E100006EBC000B0FBF5F000F00700D6E70000AD
:103E2000001001400014014038B5816204468285CB
:103E3000002013466064222284F84220E56B1F4A6A
:103E4000EA63E56B1E4A2A64E56B1E4AEA64E26B8C
:103E500010650A462168E06B091DFEF7B7F830B11E
:103E600010206064202084F84200012038BD2068C2
:103E7000016840680090206948B120680C3050E823
:103E8000001F41F4807140E80012002AF5D120683B
:103E9000143050E8001F41F0010140E80012002AF0
:103EA000F5D12068143050E8001F41F0400140E88F
:103EB0000012002AF5D1002038BD00004D3B00085B
:103EC000D33B0008033B00082DE9F843984617460A
:103ED0000D460446089E24E0701C22D0FEF7D8F957
:103EE000A0EB0800B0421AD8CEB12068C1684907DB
:103EF00017D5802D15D0402D13D00168C94309076F
:103F00000FD401680025406800902046FFF770FE3E
:103F10000820606484F840500120BDE8F883032045
:103F2000FBE72068006835EA000004D00020B842B2
:103F3000D2D00020F1E70120F9E7000070B5AEB063
:103F400000F05AF804460069002827D014490A688E
:103F5000904223D00860E06800F0B4FB05460E46AE
:103F6000A06800F0AFFB02AA82E86300B4F9041075
:103F7000B4F90200CDE9000123780AA2A02106A825
:103F8000FCF7FCF9002809DBA02800DB9F2082B2A7
:103F90004FF0FF3306A91348FFF776F92EB070BD36
:103FA00090000020766973696F6E3A2076616C69C3
:103FB000643D25752C2065783D25642C2065793D70
:103FC00025642C207961773D252E3466207261644A
:103FD0002C2070697463683D252E346620726164FC
:103FE0000D0A0000D40100200148FEF74FBF000079
:103FF0001C020020FEE700000048704780030020FC
:10400000064800219FED060A01704180818080ED05
:10401000020A80ED030A016100F0DCBA800300208F
:104020000000000010B50446FEF732F904490969A2
:10403000401AA04201D8012010BD002010BD000090
:104040008003002003B401984100009850EAC12089
:1040500018BF04204A0D18BF40F0010040F2FF7263
:10406000B2EB515F08BF40F00200012808BF0520F5
:1040700002B070470907090E002804DB00F1E020B8
:1040800080F80014704700F00F0000F1E02080F885
:10409000141D704730380A2801D2012070470020D3
:1040A000704710B500220346491E89B20FE0501830
:1040B000400803EB8004D4ED000AF4EEC00AF1EEF0
:1040C00010FA01DD411EF0E703D2421C92B28A428F
:1040D000EDD910BD10EE100AF6EE000A074960EEA9
:1040E000200AA1EB600000EE100A20EE801AF7EE25
:1040F000080A41EE400A20EE800A7047DF59375F18
:10410000FEF7D4F8FFF7A4FCFFF758F9FFF730F9F2
:10411000FFF70CF9FFF746FAFFF704FAFFF726FA64
:10412000FFF76EFF6423062203A10548FFF7ACF8F2
:10413000FFF704FFFCE70000424F4F540D0A000058
:10414000D401002070B505462DED028B84B000200F
:104150000C46ADF8000002900390019002E0521C62
:10416000ADF80020BDF80020A24202D2A85C2428AD
:10417000F5D190B24FF0FF36A0422AD2521CADF8D2
:10418000002002AB6A46284600F09CF808BBBDF848
:104190000000A0421DD2295C2C291AD1401CADF888
:1041A000000003AB6A462146284600F08BF880B930
:1041B000BDF80000A0420CD2295C2C2909D1401C7A
:1041C000ADF8000001AB6A462146284600F07AF8B7
:1041D00020B1304604B0BDEC028B70BD029808B12E
:1041E000012100E00021124C217003986080019AA7
:1041F000A280B9B19FED0F8A00EE100AF0EE480AD6
:10420000B8EEC00A00F0A6F984ED020A0198F0EEBB
:10421000480A404200EE100AB8EEC00A00F09AF9CF
:1042200084ED030AFEF734F820610020D2E7000095
:10423000800300203393B7431D4931F9010F00EE8D
:10424000100A1B48F8EEC00A9FED1A0A4C3820EEFF
:10425000801ADFED190A61EE201A9FED181A21EE7F
:10426000812ADFED171AC2EE212AC0ED0D2AB1F91D
:10427000022002EE102AB8EEC22A22EE002A22EE16
:10428000202A22EE012AC2EE212AC0ED0E2AB1F91F
:10429000041002EE101AB8EEC22A22EE000A20EE36
:1042A000200A20EE010AC0EE210AC0ED0F0A704775
:1042B000740000200000FA4400000038DB0F494081
:1042C000000034432DE9F0430746148800250120FF
:1042D0002E464FF0FF3C8C420AD217F80480B8F10A
:1042E0002B0F03D0B8F12D0F02D16046641CA4B28D
:1042F0006FF02F098C4210D217F80480B8F1300FFC
:104300000BD3B8F1390F08D805EB850609EB460544
:10431000641C4544A4B20126ECE72EB16843186042
:1043200014800020BDE8F0836046FBE710B5614CC7
:104330002DED048B204694ED0A0A94ED0D9AD4EDF0
:104340000E8A94ED0F8A90ED0C1AD0ED0B0AB5EEA3
:10435000C00AF1EE10FA09D1F5EEC00AF1EE10FA3A
:1043600004D1B5EEC01AF1EE10FA3BD020EE000AEF
:1043700000EEA00A01EE010AFFF7ACFE94ED0B1A65
:10438000D4ED0A0AD4ED052A21EE003A94ED0C1A78
:1043900060EE800A94ED074A61EE003A94ED061A49
:1043A00094ED080A22EE812A61EE001AB6EE001A98
:1043B00012EEA21A42EEC41A04EE002A00EE001A0F
:1043C00063EEA12A40EEC12A23EE010A60EE820AC2
:1043D00003EEC20A43EE610A78EEA28A39EE009A31
:1043E00038EE208A9FED340A04F11400D4ED083A27
:1043F00069EE001A28EE802A68EE002A90EC030A83
:1044000020EEE13A01EE423A03EEE23A73EE004A60
:1044100020EE213AC4ED054A01EE223A03EEC23AFB
:1044200033EE204A20EE023A20EE220A84ED064ABC
:1044300000EEE23A00EE820A03EEA13A01EE610AD2
:1044400033EE013A70EE230A24EEA40A84ED073A13
:10445000C4ED080A04EE040A03EE030A00EEA00A03
:10446000FFF738FED4ED050A60EE800AC4ED050AB8
:1044700094ED061A61EE001AC4ED061A94ED071ABF
:1044800021EE001A84ED071A94ED082A22EE000AA4
:1044900084ED080A21EE800A00EEC10AF8EE000A57
:1044A00020EE200A00F00AF884ED090ABDEC048B26
:1044B00010BD0000280000206F12033AB5EEC00ABC
:1044C00010B5F1EE10FA2DED028B04D2BFEE008A8A
:1044D000B1EE400A01E0B7EE008A4FF4806108486F
:1044E000FFF7DFFD00EE100ADFED060AB8EE400A26
:1044F00028EE000ABDEC028B20EE200A10BD000061
:1045000034480008DB0FC93AB5EEC00A10B5F1EE29
:1045100010FA2DED028B04D2BFEE008AB1EE400AF4
:1045200001E0B7EE008A4FF480610848FFF7B9FD5B
:1045300000EE100ADFED060AB8EE400A28EE000A87
:10454000BDEC028B20EE200A10BD0000345800089C
:10455000DB0FC93A10B52DED028BF0EE608AB0EE9C
:10456000408AF5EEC08AF1EE10FA0CD1B5EEC08AA1
:10457000F1EE10FA04DB9FED130ABDEC028B10BDC7
:104580009FED110AF9E788EE280AFFF7BDFFF5EE67
:10459000C08AF1EE10FAF0D2B5EEC08ADFED0B0A58
:1045A000F1EE10FA02DD30EE200AE6E7B5EEC08A41
:1045B000F1EE10FA02D230EE600ADEE79FED040A57
:1045C000DBE70000DB0FC93FDB0FC9BFDB0F494052
:1045D000DB0F49C010B5402205490648FEF715FC1F
:1045E0000448C06B0068016821F00801016010BD3B
:1045F000400300201C020020DFED090A094901E008
:1046000030EE600A10EE100A8842F9DC064900BF5D
:1046100010EE100A884202D930EE200AF8E77047FF
:10462000DB0FC940DB0F4940DB0F49C0144890ED58
:104630000F0A4178B1EE400A61B1D0ED030A9FED57
:10464000111A70EE600A90ED020A00EE810A80ED08
:10465000020A7047D0ED040A30EE800A80ED040AA9
:104660008188491C89B28180B1F57A7FF1D301211B
:10467000DFED050A80EE201A80ED031A41707047C5
:10468000280000206F12833A00007A4410B50029F8
:104690000AD00878002807D005487844FCF734FB96
:1046A000002801D0002010BD0248784410BD000051
:1046B0004E220000462200000808A0F500114FEA33
:1046C0003101704743004FEAD30C4FEA3C0C4340A2
:1046D0001FBF40070CF1605113F0FE4F70471CF0F4
:1046E000006F03D100200CF0004170470CF0004334
:1046F00043EA507010B540EACC0000F03EF800BF2D
:10470000000000924FEA0001FFF7D6BF4FF00041D2
:104710004FF00000A1F5002170474FF07E5209E0F4
:1047200011F0004204D54042C1F1000138BF491EDA
:1047300042F07E520B0002F1706212BF20235FEA4A
:1047400000017047B1FA81FCA3EB0C0301FA0CF1F4
:1047500020FA03FC02EBC352C3F1200341EA0C012F
:1047600010FA03FC5CEA416C42EB112018BF5FF0C9
:10477000806C28BF20F0010070470EF1020E2EF071
:10478000030E5EF8044B244204D44FEA4102B2F116
:104790007F4F11D84FEA4003B3F17F4F0CD80ED1B1
:1047A0004FEAD07CB2F17F4F0CEB4C0C0CF1020CB9
:1047B00008BF4CEBD17C04E04FF0080C01E04FEA5D
:1047C000D17C0CEB4C0324FA03F404F00704B4F19D
:1047D000040C06D20EEB840CBDE810404CF0010C2A
:1047E0006047DFE80CF0070802024FF00040A0F538
:1047F000800010BD0846420018BFD2F1807288BF09
:1048000000F0004010BD4FF04070E1EE100A70471C
:10481000FBF7EFBF000610160006101600000000A0
:104820000000000001020304060708090000000060
:1048300001020304000000008010C93A8010493BC7
:1048400060CC963B8010C93BA054FB3B60CC163C2F
:1048500070EE2F3C8010493C5E2E623C6E507B3CDB
:104860003F398A3C47CA963C3659A33C3EEAAF3CA6
:10487000467BBC3C350AC93C3D9BD53C2C2AE23CDE
:1048800034BBEE3C234AFB3C89EC033D01340A3D3A
:10489000787B103DF0C2163D670A1D3DDF51233D78
:1048A0005699293DC2DF2F3D3927363DA46D3C3D49
:1048B0000FB4423D87FB483DF2414F3D5D88553D79
:1048C000C8CE5B3D2714623D925A683DF19F6E3D14
:1048D0005CE6743DBB2B7B3D8DB8803D3CDB833D6E
:1048E00065FD863D14208A3D3E428D3DED64903D40
:1048F0001687933D3FA9963DE2CA993D0BED9C3D3D
:10490000AE0EA03D5130A33DF451A63D9773A93D95
:104910003A95AC3D56B6AF3DF9D7B23D16F9B53D27
:10492000AC19B93DC93ABC3D605BBF3DF67BC23DA9
:104930008D9CC53D23BDC83DBADDCB3DCAFDCE3DF6
:10494000DA1DD23DEA3DD53D745DD83DFE7CDB3DB0
:10495000889CDE3D12BCE13D9CDBE43DA0FAE73DD6
:10496000A419EB3DA838EE3D2657F13DA375F43D63
:104970002194F73D9EB2FA3D96D0FD3D4777003E2B
:104980004206023EFB94033EB323053E6CB2063E54
:104990002541083E9ACF093E0F5E0B3E42EC0C3E8D
:1049A000747A0E3EA708103ED996113EC824133ED5
:1049B000B7B2143E6440163E53CE173EFF5B193E1D
:1049C00068E91A3ED1761C3E3A041E3E60911F3EB5
:1049D000861E213EACAB223E8F38243E72C5253E5A
:1049E0005452273EF4DE283E946B2A3EF0F72B3ECD
:1049F0004D842D3EAA102F3EC39C303EDD28323E12
:104A0000B3B4333E8940353E60CC363EF357383E32
:104A100086E3393ED66E3B3E27FA3C3E34853E3E29
:104A20004110403E4E9B413E1826433E9FB0443EBF
:104A3000693B463EACC5473E3350493E34DA4A3EB8
:104A400077644C3E78EE4D3E36784F3EF301513E52
:104A50006E8B523EE814543E629E553E9A27573E56
:104A60008EB0583E82395A3E76C25B3E274B5D3E41
:104A700095D35E3E035C603E71E4613E9C6C633E98
:104A800084F4643E6C7C663E1004683EB58B693EDF
:104A900016136B3E789A6C3E96216E3EB5A86F3E1B
:104AA000902F713E6BB6723E043D743E59C3753E05
:104AB000AE49773EC0CF783ED2557A3EA1DB7B3EF1
:104AC00070617D3EFBE67E3E2236803EC6F8803E2B
:104AD00049BB813ECC7D823E2D40833E6D02843EAB
:104AE000ACC4843ECB86853EE948863EE50A873ED7
:104AF000C0CC873E9B8E883E5550893EED118A3E44
:104B000084D38A3EFB948B3E71568C3EC6178D3EF5
:104B1000F9D88D3E2C9A8E3E3E5B8F3E2E1C903EE9
:104B20001EDD903EED9D913E9A5E923E251F933E86
:104B3000B1DF933E3CA0943E8560953ECD20963EED
:104B4000F4E0963E1BA1973E2061983E0421993ED9
:104B5000C6E0993E88A09A3E28609B3EA71F9C3ED7
:104B600026DF9C3E849E9D3EC05D9E3EDA1C9F3E9D
:104B7000F5DB9F3EED9AA03EC559A13E7A18A23EB4
:104B800030D7A23EC495A33E3754A43EA912A53EF9
:104B9000D9D0A53E088FA63E164DA73E240BA83EB1
:104BA000EFC8A83EBA86A93E6344AA3E0C02AB3EBB
:104BB00072BFAB3ED97CAC3E1D3AAD3E40F7AD3E38
:104BC00042B4AE3E4371AF3E022EB03EC0EAB03EAC
:104BD0005DA7B13EFA63B23E5320B33EADDCB33EB7
:104BE000E598B43EFC54B53EF110B63EC4CCB63E9A
:104BF0007688B73E2844B83EB9FFB83E28BBB93ED8
:104C00007576BA3EA131BB3EABECBB3EB5A7BC3E10
:104C10007C62BD3E431DBE3EE9D7BE3E6C92BF3EA8
:104C2000CF4CC03E1007C13E51C1C13E4E7BC23E7B
:104C30004C35C33E07EFC33EC1A8C43E5A62C53ED1
:104C4000D21BC63E28D5C63E5C8EC73E6F47C83EC7
:104C50008200C93E52B9C93E0072CA3EAE2ACB3E5E
:104C60003BE3CB3E849BCC3ECE53CD3EF60BCE3EBB
:104C7000DBC3CE3EC07BCF3E8333D03E25EBD03E60
:104C8000A5A2D13E045AD23E4111D33E5CC8D33EC8
:104C9000567FD43E5036D53E07EDD53E9CA3D63E3A
:104CA000105AD73E6210D83E93C6D83EC47CD93E37
:104CB000B132DA3E7DE8DA3E289EDB3EB153DC3E7F
:104CC0003909DD3E7FBEDD3EA373DE3EA628DF3E12
:104CD00087DDDF3E4792E03EE546E13E61FBE13E97
:104CE000BCAFE23EF563E33E0D18E43E03CCE43E88
:104CF000D87FE53E6A33E63EFBE6E63E6B9AE73E4A
:104D0000984DE83EC500E93EAFB3E93E7766EA3E1E
:104D10003F19EB3EC5CBEB3E287EEC3E6A30ED3EC4
:104D20008BE2ED3E6894EE3E4546EF3E01F8EF3EE5
:104D30007AA9F03EF35AF13E280CF23E3CBDF23E19
:104D40002F6EF33E001FF43EAFCFF43E3D80F53EA4
:104D50008830F63ED2E0F63EDA90F73EC040F83EAC
:104D600084F0F83E27A0F93EA94FFA3EE7FEFA3E4E
:104D700025AEFB3E205DFC3EFA0BFD3EB2BAFD3E89
:104D80004969FE3EBE17FF3EEFC5FF3E003A003FB9
:104D9000F790003FDEE7003FB43E013F7995013FC9
:104DA0001CEC013FAF42023F3199023FA2EF023FAC
:104DB000F145033F419C033F6FF2033F8C48043FA2
:104DC000999E043F84F4043F5E4A053F27A0053FB7
:104DD000E0F5053F884B063F0EA1063F83F6063FF0
:104DE000E84B073F3CA1073F6FF6073F904B083F5A
:104DF000A1A0083FA1F5083F804A093F4D9F093F08
:104E00000AF4093FA6480A3F419D0A3FBBF10A3F09
:104E100024460B3F6B9A0B3FA2EE0B3FC8420C3F60
:104E2000DD960C3FD1EA0C3FB43E0D3F86920D3F1C
:104E300036E60D3FD6390E3F658D0E3FE3E00E3F5F
:104E400040340F3F8B870F3FB6DA0F3FCF2D103F17
:104E5000D880103FD0D3103FA626113F6C79113F68
:104E600021CC113FB41E123F3771123F98C3123F3D
:104E7000E815133F2768133F56BA133F630C143FDE
:104E80005F5E143F3AB0143F0402153FBD53153F17
:104E900055A5153FDCF6153F4148163FA699163F2C
:104EA000D9EA163F0C3C173F1E8D173F0DDE173F0A
:104EB000EC2E183FBB7F183F78D0183F1421193FC4
:104EC0008F71193FF8C1193F51121A3F99621A3F69
:104ED000C0B21A3FC5021B3FB9521B3F9CA21B3FE9
:104EE0005EF21B3F0F421C3F9F911C3F1EE11C3F87
:104EF0008C301D3FD87F1D3F03CF1D3F1D1E1E3F21
:104F0000266D1E3F0EBC1E3FE50A1F3F9B591F3FEB
:104F10003FA81F3FC2F61F3F3545203F9693203FD5
:104F2000D6E1203FF52F213F027E213FFFCB213FDD
:104F3000DB19223F9467223F3DB5223FD602233F33
:104F40004C50233FA19D233FE6EA233F1938243FDD
:104F50002B85243F2DD2243F0C1F253FCA6B253FB4
:104F600078B8253F0305263F7E51263FE99D263F21
:104F700031EA263F5936273F6F82273F64CE273FCD
:104F8000481A283F0A66283FABB1283F3BFD283F1F
:104F9000BB48293F1894293F55DF293F802A2A3FE3
:104FA0008A752A3F83C02A3F5B0B2B3F21562B3F3C
:104FB000C7A02B3F4AEB2B3FBD352C3F0F802C3F2A
:104FC0004FCA2C3F6E142D3F6C5E2D3F58A82D3FCD
:104FD00024F22D3FDE3B2E3F77852E3FFFCE2E3F26
:104FE00055182F3FAA612F3FCEAA2F3FE0F32F3F46
:104FF000E23C303FC285303F81CE303F1E17313F0B
:10500000AB5F313F15A8313F6FF0313FA838323FD9
:10501000D080323FC5C8323FAA10333F7D58333F5E
:1050200030A0333FC0E7333F302F343F8E76343FDC
:10503000CBBD343FF704353F014C353FEA92353F55
:10504000B2D9353F6820363FFD66363F82AD363FE8
:10505000E4F3363F263A373F4580373F54C6373F63
:10506000410C383F1E52383FC897383F61DD383F0A
:10507000D922393F4068393F86AD393FAAF2393FDE
:10508000BD373A3F9E7C3A3F6EC13A3F2D063B3FCB
:10509000BA4A3B3F368F3B3F91D33B3FDB173C3F08
:1050A000035C3C3F0AA03C3FEFE33C3FB3273D3F5E
:1050B000666B3D3FF7AE3D3F67F23D3FC6353E3F35
:1050C00003793E3F1FBC3E3F19FF3E3F03423F3F37
:1050D000BA843F3F60C73F3FF609403F594C403FCD
:1050E000AC8E403FDDD0403FEC12413FDA54413FAF
:1050F000B796413F73D8413F0D1A423F855B423F0F
:10510000ED9C423F22DE423F471F433F4A60433F00
:105110003CA1433FFCE1433FAB22443F3963443F62
:10512000A5A3443FEFE3443F2924453F4164453F65
:1051300027A4453FFCE3453FC023463F5263463F1B
:10514000D3A2463F22E2463F6021473F8D60473F62
:10515000889F473F61DE473F2A1D483FD15B483F5C
:10516000569A483FBAD8483FFD16493F1D55493F1A
:105170002D93493F0BD1493FD80E4A3F834C4A3FBC
:105180000D8A4A3F86C74A3FCD044B3FF2414B3F11
:10519000067F4B3FF9BB4B3FCBF84B3F7A354C3F3B
:1051A00008724C3F75AE4C3FD1EA4C3FFA264D3F5A
:1051B00013634D3F0A9F4D3FCFDA4D3F83164E3F5D
:1051C00015524E3F978D4E3FE7C84E3F14044F3F58
:1051D000313F4F3F1C7A4F3FF6B44F3FAEEF4F3F4A
:1051E000352A503FAA64503FFE9E503F30D9503F71
:1051F0005113513F404D513F0E87513FCAC0513F5F
:1052000055FA513FCE33523F166D523F4CA6523F96
:1052100061DF523F4418533F1651533FC689533FF5
:1052200055C2533FC2FA533F0D33543F386B543F7E
:1052300040A3543F38DB543FFD12553FA14A553F30
:105240003482553F95B9553FD4F0553F0228563F1B
:10525000FF5E563FEA95563FA3CC563F4B03573F60
:10526000C139573F2670573F6AA6573F7BDC573FEF
:105270007B12583F5A48583F077E583FA2B3583FC9
:105280001DE9583F641E593F9C53593FB188593F0F
:1052900094BD593F67F2593F18275A3FA75B5A3FC1
:1052A00004905A3F50C45A3F7BF85A3F732C5B3FDF
:1052B0005B605B3F21945B3FB4C75B3F37FB5B3F69
:1052C000882E5C3FC8615C3FD5945C3FD2C75C3F91
:1052D0009CFA5C3F562D5D3FDD5F5D3F53925D3F25
:1052E00097C45D3FBAF65D3FBB285E3FAB5A5E3F59
:1052F000698C5E3F06BE5E3F80EF5E3FDA205F3F17
:1053000011525F3F27835F3F1CB45F3FEFE45F3F75
:105310009015603F2046603F8E76603FCAA6603F92
:10532000F5D6603FEE06613FD636613F8C66613F41
:105330002096613F93C5613FE4F4613F1424623FCE
:105340002253623F0E82623FD9B0623F83DF623FE9
:10535000FA0D633F603C633F946A633FA698633FE6
:10536000A8C6633F77F4633F2522643FB14F643F93
:105370001C7D643F54AA643F7BD7643F7104653F42
:105380005531653F075E653F988A653F17B7653FB2
:1053900065E3653F800F663F8A3B663F7367663F04
:1053A0002993663FCFBE663F42EA663F9415673F4A
:1053B000C440673FD36B673FC096673F8BC1673F71
:1053C00025EC673FAD16683F0341683F386B683F87
:1053D0004A95683F3CBF683F0CE9683FA912693FA6
:1053E000363C693F9065693FC98E693FE1B7693FC7
:1053F000D6E0693FAB096A3F4D326A3FDE5A6A3FE9
:105400003C836A3F7AAB6A3F95D36A3F8FFB6A3F22
:1054100057236B3F0E4B6B3F93726B3FF6996B3F7D
:1054200037C16B3F57E86B3F560F6C3F22366C3FDE
:10543000CD5C6C3F66836C3FBDA96C3F03D06C3F75
:1054400027F66C3F191C6D3FEA416D3FA9676D3F20
:10545000268D6D3F92B26D3FDCD76D3FF4FC6D3F02
:10546000EA216E3FBF466E3F726B6E3FF38F6E3F19
:1054700063B46E3FA1D86E3FBDFC6E3FB8206F3F56
:1054800080446F3F38686F3FBD8B6F3F21AF6F3FE8
:1054900052D26F3F73F56F3F6118703F3F3B703FD3
:1054A000D95D703F6380703FCBA2703F00C5703FF5
:1054B00014E7703F0709713FD82A713F774C713F5D
:1054C000F46D713F508F713F8AB0713FA2D1713F2F
:1054D00088F2713F4D13723FF033723F7154723F47
:1054E000C174723FFF94723F0BB5723FE5D4723FB7
:1054F000AEF4723F4414733FB933733F0D53733F9F
:105500003F72733F3F91733F1DB0733FD9CE733FDE
:1055100074ED733FDD0B743F242A743F4948743F98
:105520004D66743F1F84743FCFA1743F5DBF743FCD
:10553000CADC743F05FA743F2F17753F1634753F68
:10554000EC50753F8F6D753F228A753F83A6753F7E
:10555000B1C2753FCEDE753FB9FA753F7216763F20
:105560001A32763F904D763FE468763F1684763F58
:10557000279F763F06BA763FC3D4763F5FEF763FEC
:10558000C809773F1024773F363E773F3A58773F38
:105590000D72773FBD8B773F4CA5773FBABE773F03
:1055A000F5D7773F0FF1773F070A783FCD22783F55
:1055B000713B783FF453783F556C783F8484783F53
:1055C000919C783F7CB4783F36CC783FCEE3783FEF
:1055D00044FB783F9912793FBB29793FBC40793F22
:1055E0009B57793F486E793FE484793F3D9B793FF3
:1055F00085B1793F9BC7793F90DD793F62F3793F71
:1056000003097A3F821E7A3FDF337A3F0A497A3FA5
:10561000245E7A3FFC727A3FC2877A3F569C7A3F7B
:10562000C9B07A3F19C57A3F38D97A3F35ED7A3F0C
:1056300011017B3FBA147B3F41287B3FA73B7B3F57
:10564000EC4E7B3FFE617B3FEF747B3FAD877B3F42
:105650005B9A7B3FC5AC7B3F1FBF7B3F46D17B3F07
:105660004CE37B3F30F57B3FE2067C3F83187C3F79
:10567000E1297C3F2E3B7C3F494C7C3F425D7C3F97
:10568000096E7C3FAE7E7C3F328F7C3F849F7C3FA7
:10569000C4AF7C3FC2BF7C3FAFCF7C3F6ADF7C3F63
:1056A00003EF7C3F7AFE7C3FBF0D7D3FE31C7D3FD7
:1056B000D42B7D3FB43A7D3F52497D3FDE577D3F3D
:1056C00038667D3F71747D3F88827D3F6D907D3F60
:1056D000309E7D3FD2AB7D3F41B97D3F8FC67D3F40
:1056E000AAD37D3FB5E07D3F8DED7D3F33FA7D3F11
:1056F000C8067E3F2B137E3F5C1F7E3F6B2B7E3F99
:1057000058377E3F24437E3FBE4E7E3F365A7E3F13
:105710008C657E3FB0707E3FB37B7E3F83867E3F4D
:1057200043917E3FD09B7E3F2BA67E3F64B07E3F61
:105730007CBA7E3F72C47E3F36CE7E3FD8D77E3F56
:1057400048E17E3F96EA7E3FC3F37E3FCEFC7E3F3C
:10575000A7057F3F5E0E7F3FE3167F3F471F7F3FDA
:1057600089277F3F982F7F3F86377F3F533F7F3F7B
:10577000ED467F3F664E7F3FBD557F3FE25C7F3FFA
:10578000E5637F3FC66A7F3F76717F3F03787F3F47
:105790006F7E7F3FA9847F3FC28A7F3FB8907F3F63
:1057A0007D967F3F209C7F3F90A17F3FDFA67F3F7C
:1057B0000CAC7F3F07B17F3FF2B57F3F99BA7F3F87
:1057C0002FBF7F3F93C37F3FC5C77F3FE6CB7F3F60
:1057D000D5CF7F3F91D37F3F3DD77F3FB6DA7F3F25
:1057E000FDDD7F3F22E17F3F26E47F3F08E77F3FEB
:1057F000B8E97F3F46EC7F3FA2EE7F3FDCF07F3F82
:10580000F5F27F3FEDF47F3FB2F67F3F44F87F3FF4
:10581000C6F97F3F16FB7F3F33FC7F3F3FFD7F3F55
:1058200019FE7F3FC1FE7F3F47FF7F3FACFF7F3FB9
:10583000EFFF7F3F000000008010C93A8010493B15
:1058400060CC963B8010C93BA054FB3B60CC163C1F
:1058500070EE2F3C8010493CC136623CD1587B3CF5
:10586000713D8A3C91D0963C9961A33CBAF4AF3C1F
:10587000DB87BC3CFC1AC93C1DAED53C3E41E23C3A
:105880005FD4EE3C7F67FB3C5DFE033DED470A3D88
:105890008A92103D27DD163DC4271D3D6D73233DC3
:1058A0000ABE293DB309303D5C55363D06A13C3D5D
:1058B000AFEC423D6539493D1A864F3DD0D2553D4A
:1058C000861F5C3D486D623DFEB9683DC0076F3D77
:1058D0008F56753D51A47B3D90F9803DF720843D66
:1058E000E448873DD2708A3DBF988D3DADC0903D64
:1058F00021E9933D9411973D8E3A9A3D88639D3DF1
:10590000828CA03D03B6A33D83DFA63D0309AA3DDB
:105910000933AD3D105DB03D1687B33DA3B1B63D33
:10592000B5DCB93DC807BD3DDB32C03D745EC33D4B
:105930000D8AC63DA6B5C93DC6E1CC3D6B0ED03D36
:10594000103BD33D3C68D63D6895D93D94C2DC3DC3
:1059500045F0DF3D7E1EE33DB64CE63D747BE93D00
:1059600032AAEC3D77D9EF3DBC08F33D8638F63DD1
:105970005168F93DA298FC3D79C9FF3D287D013E63
:10598000D715033E86AE043E7847063EACE0073EA0
:10599000E179093E59130B3E15AD0C3ED0460E3E43
:1059A000CEE00F3E0F7B113E5115133ED5AF143E96
:1059B0009D4A163E64E5173E6F80193EBD1B1B3E97
:1059C0000BB71C3EDF521E3EB3EE1F3ECA8A213E7D
:1059D000E126233E3BC3243ED95F263EB9FC273E49
:1059E000DD99293E00372B3EAAD42C3E54722E3E20
:1059F0004110303E2EAE313EA14C333E14EB343ECE
:105A00000D8A363E0729383E43C8393EC3673B3EC0
:105A100085073D3E48A73E3E9147403E1DE8413E3A
:105A2000A988433E7829453ECDCA463E226C483E71
:105A3000BB0D4A3E96AF4B3EF8514D3E5AF44E3E9A
:105A4000FF96503EE739523E12DD533E8080553E70
:105A50003124573E69C8583EA06C5A3E1B115C3E2B
:105A60001CB65D3E1D5B5F3E6000613E2BA6623E44
:105A7000384C643E88F2653ED998673EAF3F693E38
:105A80000CE76A3E698E6C3E09366E3E2FDE6F3E35
:105A90009886713E012F733E34D8743E6781763EFE
:105AA000DC2A783ED8D4793E177F7B3E99297D3E0B
:105AB0005FD47E3ED53F803E9C15813E85EB813E86
:105AC00090C1823EDD97833E4C6E843EDD44853E30
:105AD000B01B863EA6F2863EBCC9873EF5A0883E36
