:020000040800F2
:10000000600800204102000823310008FB2E000890
:1000100021310008A515000839380008000000004B
:100020000000000000000000000000005132000845
:10003000891600080000000025310008533200082E
:100040005B0200085B0200085B0200085B0200081C
:100050005B0200085B0200085B0200085B0200080C
:100060005B0200085B0200085B0200085B020008FC
:100070005B0200085B0200085B0200085B020008EC
:100080005B0200085B0200085B020008CD15000857
:10009000A9150008B5150008C11500085B02000885
:1000A0005B0200085B0200085B0200085B020008BC
:1000B0005B0200085B0200085B0200085B020008AC
:1000C0005B0200085B0200085B0200085B0200089C
:1000D0005B0200085B0200085B0200085B0200088C
:1000E0005B0200085B0200085B0200085B0200087C
:1000F0005B0200085B0200085B0200085B0200086C
:100100005B0200085B0200085B0200085B0200085B
:100110005B0200085B0200085B0200085B0200084B
:100120005B020008D91500085B0200085B020008AA
:100130005B0200085B0200085B0200085B0200082B
:100140005B0200085B0200085B0200085B0200081B
:100150005B0200085B0200085B0200082D38000803
:100160005B0200085B0200085B0200085B020008FB
:100170005B0200085B0200085B0200080000000050
:100180005B0200085B02000800F002F800F049F88A
:100190000AA090E8000C82448344AAF10107DA45E2
:1001A00001D100F03EF8AFF2090EBAE80F0013F0EB
:1001B000010F18BFFB1A43F001031847C85B00008A
:1001C000E85B0000103A24BF78C878C1FAD852071B
:1001D00024BF30C830C144BF04680C6070470000C1
:1001E0000023002400250026103A28BF78C1FBD840
:1001F000520728BF30C148BF0B607047662903F023
:100200006585002070471FB503F05BFD00F0A4FB7F
:1002100004000020002103F0C7FCE0601FBD10B502
:1002200010BD00F099FC1146FFF7EDFF03F04DFB08
:1002300000F0B7FC03B4FFF7F2FF03BC00F0FAFCD8
:100240000948804709480047FEE7FEE7FEE7FEE76A
:10025000FEE7FEE7FEE7FEE7FEE7FEE704480549A6
:10026000054A064B70470000ED320008890100087E
:10027000600200206008002060040020600400206C
:1002800053EA020C00F069802DE9F04B4FF00006B4
:10029000002B1FBFB3FA83F503FA05F424FA05F621
:1002A0005E4012BF1643B2FA82F502FA05F4C5F1B8
:1002B00020051EBF22FA05FC44EA0C04203556EA4C
:1002C000044C4FEA144418BF641C4FF000084FF070
:1002D0000009904271EB030C39D3002919BFB1FA20
:1002E00081F701FA07F6B0FA80F700FA07F6C7F1CE
:1002F00020071EBF20FA07FC46EA0C062037B6FB93
:10030000F4FCA7EB0507103F07F01F0BCBF120060D
:100310000CFA0BFB2CFA06F644BFB3460026202F3E
:10032000A4BF5E464FF0000B5BEA060C08BF4FF01F
:10033000010B19EB0B09ABFB027C48EB0608C01B59
:1003400006FB02CC0BFB03CC71EB0C01C1E70B46A7
:10035000024641464846BDE8F08B13B54FF0000019
:100360004FF00001AFF30080BDE81C407047000073
:100370000FB41CB5084B06AA7B446946009005984B
:1003800000F0D1FA04460020694600F0DFFA20466A
:100390001CBC5DF814FB0000D10500002DE9F047FE
:1003A0004FF0000A89460446C0F820A02046E168C4
:1003B0008847002876D0252806D0D4E90121904727
:1003C000206A401C2062F1E7E1682046002588474A
:1003D000C4F81CA006460027C4F818A02A2E09D08D
:1003E000304603F052FA38B304EB8708303EC8F8C1
:1003F000186019E059F8041B204604EB870291614C
:10040000E1688847012F064618D1E069002820DA04
:1004100025F020051DE0D8F8180000EB800006EB61
:1004200040003038C8F818002046E1688847064682
:1004300003F02BFA0028EED1012F0AD02E2E08D17E
:100440002046E16888477F1C0646022F45F02005BC
:10045000C4DBA069002803DA404245F00105A06131
:10046000E80701D025F01005B6B1A6F14100192822
:1004700002D8203645F400654A46314620462560BC
:100480004D46FFF7BBFE58B1012806D0ED1D25F003
:10049000070000F1080989E704E005F1040985E790
:1004A00030468AE7206ABDE8F0874FF0000200B5C9
:1004B000134694469646203922BFA0E80C50A0E887
:1004C0000C50B1F12001BFF4F7AF090728BFA0E835
:1004D0000C5048BF0CC05DF804EB890028BF40F801
:1004E000042B08BF704748BF20F8022B11F0804F43
:1004F00018BF00F8012B704770477047704770476E
:100500002DE9FF4F0C461E464FF0FF378BB0D2E966
:100510000001DDF860800A908A46C1F30A5505B9EA
:100520003D46002108464FF00000BAF1000F00F4EC
:10053000400005DA00EB80004FF4400101EA500072
:100540004FEA9059B9F1010F00DDB9460A9850EA17
:100550004A000ED044F61050A5F2FF3545432F1443
:10056000B8F1000F1ED07542291E1EDDC9F1000230
:100570001CE0B8F1010F4FF0000001D0302103E082
:10058000F24305E02154401CB042FBDB3046002220
:10059000002121540B99C1F80880C1E900200FB057
:1005A000BDE8F08FBD1B6D1CDEE74A4600DA6942EC
:1005B00006A800F05BFA06AB93E8070003AB83E8FC
:1005C000070050460A9900F03CFB8DE80700A0F5B3
:1005D00000501F3800900398002D0ADD42F21F01E1
:1005E0004A460844002303A90390684600F0A5FD8D
:1005F00009E0A0F500504A461F38002303A90390E4
:10060000684600F0AFFD8DE807000004000C03D041
:100610004FF0FF30410800E01046B8F1000F03D062
:100620000022009215461EE0751E05D400F098F9D0
:10063000303262556D1EF9D5B3460122084302D00F
:1006400000227F1C04E02078302801D100227F1E88
:10065000002A099784D01DE0112D07DA00F080F9F7
:10066000303262556D1C50EA0102F5D1084302D0C8
:100670000098C8B10EE00021681E05E0235C625CB2
:1006800063542254401E491C8142F7DBAB46A81B31
:10069000401E0990002004F80B000B98099AC0F83E
:1006A0000880C0E9002B7AE711264FF0000857E7D1
:1006B0002DE9F04F88460446D21D22F0070191B083
:1006C000D1E90001CDE90A0103F0B7F802460B9821
:1006D000C00F01D02D2007E02068810701D52B2015
:1006E00002E0202101EAC000032A099001D0072A74
:1006F00005DB03464146204600F078F90BE12078FF
:10070000800601D5E06900E00620B8F1650F81465A
:1007100006D0B8F1660F18D0B8F1670F70D131E08C
:100720000020B9F1110F009001DB112301E009F164
:1007300001030AAA01A90CA8FFF7E2FEDDE90C708B
:10074000002609F10105834647E001204B46009051
:100750004FF000470AAA01A90CA8FFF7D1FEDDE976
:100760000DB00C995D46002610B909F101000D1875
:10077000B9EB050003D4C0F1FF3609F10105A5EB83
:1007800009002BE0B9F1010F01DA4FF00109002057
:10079000B9F1110F0090484601DD112300E0034636
:1007A0000AAA01A90CA8FFF7ABFEDDE90C704D46C3
:1007B00000268346207800070AD4AB4500DA5D4660
:1007C00001A8012D04DD411911F8011C302907D0C1
:1007D0004F4502DA17F1040F04DA012082460FE0D8
:1007E0006D1EEEE7002F02DCED1B3E4403E0781C9B
:1007F000A84200DD7D1CB81B00F1010A4FF0004744
:100800002078000703D4AA4501DB4FF0FF3A00210E
:10081000B7F1004F0DF143088DF8431024D00220AA
:100820002B23002F01DA7F422D230A21021EA0F183
:10083000010000DC5FB197FBF1FC97FBF1F201FBDB
:100840001C7C17460CF1300C08F801CDEEE7A8F13E
:10085000010003702188090501D5452100E06521CB
:10086000A0F1010800F8011C09980FA9A1EB0807E5
:10087000FF1D00B10120411901EBEA70A169384464
:10088000081A401EA0612078C00602D42046AFF3AB
:100890000080099828B1D4E901219047206A401CC2
:1008A00020622078C00622D52046AFF300801EE0EB
:1008B000002E04DBB34502DD01A8805D00E030209E
:1008C000D4E901219047206A401C2062761CAAF1DD
:1008D00001005FEA000A0AD100F03EF8C068016832
:1008E000405CD4E901219047206A401C2062281E08
:1008F000A5F10105DCDC07E0D4E9012118F8010BC2
:100900009047206A401C2062381EA7F10107F3DCE3
:100910002046AFF30080032011B041E601694A1C74
:1009200002610878704700B58FB0CDE90131002130
:10093000059105497944CDE9031011466846FFF752
:100940002DFD0FB000BD0000E5FFFFFF0A6802F8B3
:10095000010B0A6070470000004870471C0200202D
:1009600030B5B0F10A024FEA900E71F100034EEA81
:10097000817EB0EB0E0061EB91014FEA101E4EEA52
:10098000017E10EB0E0041EB11114FEA102E4EEAE2
:10099000016E10EB0E0041EB11214FEA104E4EEAB2
:1009A000014E10EB0E0041EB1141401841F10001E6
:1009B0004FEAD00040EA41704FEAD10110EB8005C8
:1009C0004FEA810444EA907444EB01046D1944EB4E
:1009D0000404521BA3414FF0000348BF0A3200D564
:1009E00030BD401C41F1000130BD00002DE9F04157
:1009F0001F46044603260168072A01F4006004DB51
:100A000008B116A505E016A503E008B115A500E09C
:100A100015A521F010002060A069C01EA0610FB1D3
:100A2000401EA0612046AFF300804FB1D4E9012100
:100A300038469047206A401C2062C01C206206E0B5
:100A4000206AFAE7D4E9012115F8010B9047761ED8
:100A5000F8D22046AFF30080BDE8F0814E414E0051
:100A60006E616E00494E4600696E66002DE9F047E2
:100A7000814616468AB0354878440DC88DE80D0089
:100A800032487844801C03AC0DC884E80D0041F660
:100A90009B300844372190FBF1F290FBF1F5A5F172
:100AA000800501FB12041B3C02D56442012000E0DA
:100AB0000020DFF898A080460027FA44AAF1BE0A79
:100AC0000EE0E0070AD03246684607EB47010123F3
:100AD0000AEB810100F046FB8DE8070064107F1CE3
:100AE000002CEED1194F7F44AE3F19E0E80715D036
:100AF00007EB04100DF1180A90E80E008AE80E00CA
:100B0000C068F04201D1981908903246012306A925
:100B100003A800F027FB03AB83E807006D10641CFB
:100B2000002DE3D14FF0010332466946B8F1000FC2
:100B300003A802D000F001FB01E000F013FBC9E9BB
:100B40000001C9F808200AB0BDE8F087F0520000A3
:100B500000487047FC0100207546FFF7F9FFAE46DC
:100B600005006946534620F00700854618B020B5B9
:100B7000FFF774FBBDE820404FF000064FF0000780
:100B80004FF000084FF0000B21F00701AC46ACE835
:100B9000C009ACE8C009ACE8C009ACE8C0098D46A2
:100BA000704710B50446AFF300802046BDE8104002
:100BB000FFF740BB4FF0013C50F8042B51F8043BC9
:100BC0009A4221D1A2EB0C03934313EACC1317D121
:100BD00050F8042B51F8043B9A4215D1A2EB0C03B8
:100BE000934313EACC130BD150F8042B51F8043B78
:100BF0009A4209D1A2EB0C03934313EACC13DBD046
:100C00004FF00000704700BFD01A01BAB1FA81F16D
:100C100001F0180122FA01F0CB40C1F12001DBB252
:100C2000C0B2C01A2CFA01F3D11A914311EAC311D0
:100C3000E6D1704701491820ABBEFEE7260002004E
:100C400070475FEA400C08BF91F0000F4FEA8C2319
:100C50004FEAC12243EA51514FEA1C5018BF00F538
:100C6000F0404FEA300018BF41F000415FEA6C5C91
:100C700000F02980BCF1FF3F08BF40F08040704782
:100C8000130C06BF12044FF0100C4FF0000C130EA3
:100C900004BF12020CF1080C130F04BF12010CF177
:100CA000040C930F04BF92000CF1020CD30F04BF8D
:100CB00052000CF1010C11464FF00002A0F11F0090
:100CC000A0EB0C00704711F0004F08BF704731F0E7
:100CD00000413FF4D5AF0B0C06BF09044FF0100CD8
:100CE0004FF0000C0B0E04BF09020CF1080C0B0FA7
:100CF00004BF09010CF1040C8B0F04BF89000CF137
:100D0000020CCB0F04BF49000CF1010CCCF1200305
:100D1000A0EB0C0022FA03F302FA0CF241EA030101
:100D200000F10100704720F07F4C80EA030023F0BF
:100D30007F47ACEB070303F57C5300F0004003F161
:100D4000FF032DE980494FEA154B09B44FEA1443DC
:100D500025EA0B4E24EA03480FF2042606EB13277C
:100D600049083E785FEA320203FB0667C7F50007D1
:100D700007FB06F64FEA54374FEAD64606F102065D
:100D800007FB066CCCF1005C4FEA1C472CEA074CD1
:100D900007FB06F40CFB06F504EB15464FEA961626
:100DA00034BF00204FF000404FEAD13706FB07FC6C
:100DB0004FEA1C4C0CFB0BF7D21B03FB0CF761EB4F
:100DC00007010CFB0EF7B0EB074072EB17420CFB70
:100DD00008F734BFA2EB0742B2EB074261EB1741C1
:100DE0004FEA0C444FEA910706FB07FC4FEA1C4C04
:100DF0000CFB0BF7B0EBC74072EB573203FB0CF761
:100E000034BFA2EBC742B2EBC74261EB57310CFBD8
:100E10000EF7B0EBC70072EB57720CFB08F734BF4C
:100E2000A2EBC702B2EBC70261EB5771039F4FEA17
:100E3000816141EA921104EBCC044FEAD1374FEAC9
:100E4000826206FB07FC42EA90124FEA80604FEA9A
:100E50001C4C0CFB0BF7D21B03FB0CF761EB0701DF
:100E60000CFB0EF7B0EB074072EB17420CFB08F7D8
:100E700034BFA2EB0742B2EB074261EB17414FEAE6
:100E80008C554FEA910704EB9C2406FB07FC4FEAC4
:100E90001C4C0CFB0BF7B0EBC74072EB573203FB5B
:100EA0000CF734BFA2EBC742B2EBC74261EB57313C
:100EB0000CFB0EF7B0EBC70072EB57720CFB08F798
:100EC00034BFA2EBC702B2EBC70261EB577115EB5F
:100ED0004C254FEA816141EA92114FEA82624FEA62
:100EE000D13742EA901206FB07FC44F100044FEAB6
:100EF00080604FEA1C4C0CFB0BF7D21B03FB0CF77A
:100F000061EB07010CFB0EF7B0EB074072EB1742E9
:100F10000CFB08F734BFA2EB0742B2EB074261EBD0
:100F2000174115EB1C154FEA813141EA92414FEA16
:100F3000823242EA90424FEA80304FEA0C7644F126
:100F4000000448EA03434EEA0B484FF0000EB2EBB0
:100F5000080C71EB030724BF624639464EEB0E0EB8
:100F60004FF0000B0018524149414BEB0B0BB2EB19
:100F7000080C71EB03077BF1000B24BF6246394676
:100F80004EEB0E0E4FF0000B0018524149414BEB57
:100F90000B0BB2EB080C71EB03077BF1000B24BFCA
:100FA000624639464EEB0E0E51EA020718BF46F074
:100FB000010616EB0E7655F1000254F1000103D53F
:100FC000BDE88901BDE80088BDE88901BDE80048A9
:100FD000B619524141EB0101A3F101037047808032
:100FE0007F7E7D7C7B7A7978777676757473727183
:100FF00071706F6E6E6D6C6C6B6A6A69686867663B
:1010000066656464636362616160605F5F5E5E5DCC
:101010005D5C5C5B5B5A5A59595858575756565540
:1010200055555454535352525251515050504F4FA2
:101030004F4E4E4D4D4D4C4C4C4B4B4B4A4A4A49F2
:101040004949484848474747474646464545454435
:101050004444444343434342424242414141002BC2
:101060009C4630D477002BD01CB54FEA370703B429
:101070004FF010004FF01001BAF1000F06D0BCF194
:10108000000FDCBF40F0080040F008014FF0000006
:101090000FBCBDE810400BF1010BBBF1010F08BF05
:1010A0005FEA170722BF12F1010211F101014FF0AF
:1010B000004143F1000300F0004043EA00007047A4
:1010C000F9D35708D0E746EA064613F1400F4FEA36
:1010D00016461FDD13F1200FDFBF16430A4600211D
:1010E00020335B42BED0C3F1200746EA064602FA2F
:1010F00007F74FEA164646EA0706C3F1200722FA29
:1011000003F201FA07F721FA03F14FF0000342EA74
:101110000702A7E746EA020646EA06464FEA1646EF
:1011200046EA0106BCBF46EA0646360C4FF000030D
:101130004FF000024FF0000194E72DE9804C9A46F1
:10114000934670B491E8380007C831EA400C48BFB4
:1011500034EA430C03D5FFF7E6FDFFF780FFF0BC50
:10116000BDE8008C2DE9804C9A46934670B491E816
:10117000380007C810F0804F08BF13F0804F03D12C
:1011800000F005F8FFF76BFFF0BCBDE8008C20F025
:101190007F4780EA030023F07F4C07EB0C03A3F5A5
:1011A0007C5300F00040A3F1FE0392F0000F00F02A
:1011B000B38095F0000F00F077802DE901494FEAE8
:1011C00011404FEA144621EA004800FB06FC24EADD
:1011D000064708FB06F607FB08F800FB07F718EBC5
:1011E00006484CEB164C4FEA124B18EB07484FEAF7
:1011F00015464CEB174022EA0B4E0BFB06FC25EA8A
:1012000006470EFB06F607FB0EFE0BFB07F71EEB71
:10121000064E4CEB164C4FF000061EEB074E4CEB07
:10122000174B18EB0B0840F1000018EB0E0B58EBB6
:10123000000840F100008F1A4FF000013CBFC94385
:10124000661B14BFB5EB040C00213CBFC943F61B61
:101250004FEA17444EEA8E0E27EA04454FEA1C4730
:1012600004FB07622CEA074C05FB07F70CFB05F6AD
:1012700004FB0CFC16EB074642EB174216EB0C4640
:1012800042EB1C421BEB060658EB0202414146EAC8
:101290009E0601D5BDE80189B619524141EB010115
:1012A000A3F10103BDE801894FEA14454FEA114754
:1012B00024EA054621EA074C05FB07F406FB07F77D
:1012C0000CFB06F105FB0CFC11EB074144EB17444A
:1012D0004FEA124711EB0C4144EB1C4422EA074C45
:1012E00005FB07F206FB07F70CFB06F605FB0CFCFB
:1012F00016EB074642EB174216EB0C4642EB1C4539
:101300006A1854F1000148BF7047B619524141EBC9
:101310000101A3F10103704795F0000F37D04FEAA8
:1013200011424FEA144721EA024624EA074C02FB25
:1013300007F106FB07F70CFB06F402FB0CFC14EBB1
:10134000074441EB17414FEA154714EB0C4441EBBE
:101350001C4125EA074C02FB07F506FB07F70CFBCF
:1013600006F602FB0CFC16EB074645EB174516EBA1
:101370000C4645EB1C42121951F1000148BF704761
:10138000B619524141EB0101A3F1010370474FEA45
:1013900014454FEA114724EA054621EA074C05FBAC
:1013A00007F106FB07F70CFB06F24FF0000605FB02
:1013B0000CFC12EB074241EB174112EB0C4251EBD4
:1013C0001C4148BF7047921841EB0101A3F1010392
:1013D00070470000014890ED020A7047100000209D
:1013E000014890ED030A704710000020014890ED7D
:1013F000040A704710000020014890ED050A70476C
:1014000010000020014890ED060A704710000020EF
:10141000014890ED070A70471000002010B500F059
:10142000EFFD054C6168411A052903D3606000F0A7
:1014300005F8207010BD000010000020F0B5062651
:101440002DED028B85B002AD4E4FCDE90056012344
:1014500012221021384602F061FBBDF9080000EEAF
:10146000100AF8EEC00AB0EE080A20EE801ADFED8E
:10147000460A21EE201A9FED458A454C002321EEB5
:10148000081A0222012184ED021ABDF90A0001EEB8
:10149000100AB8EEC11A21EE001A21EE201A21EE30
:1014A000081A84ED031ABDF90C0001EE100A394840
:1014B000B8EEC11A21EE000A20EE200A20EE080A3A
:1014C00084ED040ACDE9005602F028FBBDF90800BE
:1014D000DFED310A00EE100A9FED301A0123B8EE5D
:1014E000C00A2222102120EE200A20EE080A60EE17
:1014F000011A9FED2B0A81EE802A84ED052ABDF9A1
:101500000A0001EE900AF8EEE11A61EEA01A61EE0F
:10151000881A61EE811A81EE802A84ED062ABDF9CF
:101520000C0001EE900A0220F8EEE11A61EEA00A2A
:1015300060EE880A60EE810A80EE801A84ED071A58
:10154000CDE90050384602F0E9FA9DF808009DF810
:101550000910C00040EA5110B0F5806F01DBA0F522
:10156000006000EE100AB4EE001A0020F8EEC00A87
:10157000B3EE070A00EE810A84ED080A05B0BDEC5F
:10158000028BF0BD000002400AE81C410000003858
:1015900010000020000402400000FA44DB0F494024
:1015A00000003443FEE70000014800F071B800007D
:1015B00038000020014800F06BB80000380000201F
:1015C000014800F065B8000038000020014800F034
:1015D0005FB8000038000020014800F0A1BA000008
:1015E0004801002001681823CAB2103AB2FBF3F296
:1015F000054B6FF30901032A9B5CC36500D9091DE4
:101600008165084670470000D03C000810B50146CF
:1016100000208B698A6A4FF0C07453B1B3F5005F44
:1016200015D072B1012A0CD0022A0AD0032A09D19E
:1016300004E01AB1012A06D0022A03D1C96AC901FD
:1016400000D5012010BDC96AA142FAD010BD002A00
:10165000F7D0012AF2D0022AF3D0032AF3D010BD2A
:1016600030B50468256825F480252560046863602A
:101670008368402B036803D099600068C26030BD66
:101680009A600068C16030BD704772B6FEE770476F
:101690002DE9F05F0546006800244669D0F8049003
:1016A0008768D0F80CB0D0F810A0D0F81880F107F7
:1016B00048D0F90714D001218160B80703D5284626
:1016C00000F0CCF90CE0780702D54FF4006407E095
:1016D000380702D54FF4805402E0284600F0BDF9E7
:1016E000F80516D529684FF480708860B80503D5D1
:1016F000284600F0B5F90CE0780502D544F4005412
:1017000007E0380502D544F4804402E0284600F0A2
:10171000A6F9F80316D529684FF480308860B8031D
:1017200003D5284600F09EF90CE0780302D544F476
:10173000004407E0380302D544F4803402E0284630
:1017400000F08FF9300707D55FEACB6004D5296830
:10175000102044F40074C86070074FF0080707D5E4
:101760005FEA0B7004D52868C760284600F070F95E
:10177000B00706D52868C068800702D0284600F068
:1017800068F9700607D55FEACA6004D52968102099
:1017900044F480640861B00607D55FEA0A7004D596
:1017A00028680761284600F055F9F00606D5286834
:1017B0000069800702D0284600F04DF9B00308D533
:1017C0005FEAC96005D5296810204860284600F006
:1017D00043F9F00307D55FEA097004D5286847602C
:1017E000284600F040F9300446D55FEA497040D5FC
:1017F000F00504D55FEAC87001D044F00104B005DB
:1018000004D55FEA887001D544F00204700504D560
:101810005FEA487001D544F00404300529D518F07A
:10182000700F26D008F07000402815D006DC102874
:1018300009D020280AD0302816D10AE050280ED02E
:10184000602811D10EE044F008040DE044F01004CB
:101850000AE044F0200407E044F0400404E044F0CF
:10186000800401E044F480742868816921F07001EB
:101870008161296804204860002C05D0686A2043F3
:1018800068622846FFF703FFBDE8F09F70B50400CB
:1018900003D094F8200010B104E0012070BD204670
:1018A00000F082F82068016841F00101016000F059
:1018B000A7FB0546052604E000F0A2FB401B0A2812
:1018C00011D820684068C007F6D02068016821F070
:1018D0000201016000F094FB05460BE000F090FB74
:1018E000401B0A2806D9606A40F40030606284F820
:1018F0002060D2E7206840688007EFD4207E01286E
:10190000206801683DD021F080010160607E0128DF
:101910002068016838D021F040010160A07E0128D4
:101920002068016833D021F020010160E07E0128A9
:10193000206801682ED041F010010160207F01284D
:101940002068016829D021F008010160607F01282A
:101950002068016824D021F004010160D4E902016B
:101960000843D4E90412114308436168491E08433F
:101970002168C86100206062012084F820000020F6
:1019800070BD41F08001C0E741F04001C5E741F082
:101990002001CAE721F01001CFE741F00801D4E7A8
:1019A00041F00401D9E7000010B586B004461421C7
:1019B0006846FEF77AFD2349206888423FD12248D5
:1019C0000021026842F000720260006800F00070BE
:1019D00005901D481038026842F008020260006855
:1019E000022200F0080005900320CDE90210CDE9A5
:1019F0000002092004906946144800F003FA00220E
:101A00001146132000F06AFB132000F059FB00225E
:101A10001146142000F062FB142000F051FB00225C
:101A20001146152000F05AFB152000F049FB00225A
:101A30001146162000F052FB162000F041FB06B0C4
:101A400010BD00000064004040380240000C02401D
:101A500070477047704770477047704770477047CE
:101A600070477047704770472DE9F0410446876D15
:101A700000F0C6FA064694F835000025022806D084
:101A80008020606584F834500120BDE8F081206832
:101A9000016821F0160101602068416921F0800190
:101AA0004161206C08B9A06C20B12068016821F068
:101AB000080101602068016821F0010101600CE06B
:101AC00000F09EFA801B052807D9202060650320BE
:101AD00084F8350084F83450D7E720680068C007E0
:101AE000EED194F85C103F208840B860012084F863
:101AF000350084F834500020C7E790F835100229EB
:101B000003D08021416501207047052180F8351000
:101B10000068016821F001010160002070470000A9
:101B20002DE9F84304464FF00009CDF800906348D2
:101B30004FF41651A56D0068B0FBF1F72E6894F8CC
:101B40005C10082000FA01F131420FD021680A68C8
:101B500052070BD50A6822F004020A6094F85C1060
:101B60008840A860606D40F00100606594F85C10EA
:101B70004FF0010808FA01F0304208D021684969A5
:101B8000090604D5A860606D40F00200606594F815
:101B90005C1004208840304208D021680968890719
:101BA00004D5A860606D40F00400606594F85C1096
:101BB00010208840304218D021680968090714D5E0
:101BC000A86020680168490304D50068000308D5AF
:101BD000A16C07E00168C90503D4016821F0080180
:101BE0000160216C09B12046884794F85C102020E0
:101BF0008840304231D021680968C9062DD5A860D7
:101C000094F8350005282068016806D0490347D5B7
:101C1000006800031DD4616C1CE021F01601016016
:101C20002068416921F080014161206C08B9A06CF5
:101C300020B12068016821F00801016094F85C106F
:101C40003F208840A86084F8358084F83490216D66
:101C50001FE0E16B09B120468847606D00282BD05A
:101C6000606DC00714D0052084F835002068016835
:101C700021F0010101600098401C0090B84203D897
:101C800020680068C007F6D184F8358084F8349065
:101C9000E16C002910D001B02046BDE8F0430847B0
:101CA0000168C905D5D4016821F01001016084F8EC
:101CB000358084F83490CCE7BDE8F8830C00002030
:101CC0002DE9F041044600F09BF906465CB1022084
:101CD00084F83500002584F834502068016821F02C
:101CE000010101600DE00120BDE8F08100F088F9FC
:101CF000801B052805D920206065032084F8350065
:101D0000F2E720680068C007F0D122681168204817
:101D10000140D4E901031843D4E90336334318439F
:101D200063691843A3691843E3691843236A184396
:101D30000843616A042903D1D4E90B13194308430A
:101D4000106020684069666A20F0070130460E4343
:101D5000012704280CD1A06A0643E06A40B120465E
:101D6000FFF754FC20B14020606584F83570BAE775
:101D7000206846612046FFF735FC94F85C203F213F
:101D800091408160656584F835700020ACE7000003
:101D90003F8010F02DE9F0410446866D90F8340044
:101DA000002501280DD0012084F8340094F8357006
:101DB0000020012F07D084F8340002252846BDE812
:101DC000F0810220FBE7022784F835706065204629
:101DD000FFF746FC94F85C103F208840B060206814
:101DE000016841F016010160206C20B12068016893
:101DF00041F0080101602068016841F001010160C3
:101E0000DCE700002DE9F84FDFF8BCA10022012536
:101E100003264FF00F090AF1040BAAF1040E00BFCC
:101E20000B6805FA02F42340A34270D10F7907F042
:101E30000307012F01D0022F16D187684FEA42080D
:101E400006FA08FC27EA0C07D1F80CC00CFA08FCCB
:101E50004CEA070CC0F808C04768A7430C79C4F3E4
:101E6000001494403C4344600C79E443A4070AD036
:101E7000C4684FEA420C06FA0CF7BC438F6807FAB5
:101E80000CF72743C7600C7904F00304022C12D12D
:101E9000D40800EB840CDCF820405707FF0E09FA49
:101EA00007F824EA0804D1F8108008FA07F848EA8D
:101EB0000408CCF8208004684FEA420C06FA0CF7BC
:101EC000BC430F7907F0030707FA0CF727430760B5
:101ED0004C6814F4403F70D03C4C276847F480476E
:101EE0002760246822F0030704F480440094384CEF
:101EF00007EB040CDCF8084897074FEA177809FA53
:101F000008F7BC43334FB84202D1002724E054E025
:101F1000314FB84201D101271EE0304FB84201D104
:101F2000022719E02E4FB84201D1032714E02D4FAC
:101F3000B84201D104270FE02B4FB84201D1052749
:101F40000AE02A4FB84201D1062705E0284FB842DF
:101F500001D1072700E0082707FA08F72743CCF844
:101F60000878DAF800405746D1F804C09C435FEA8D
:101F7000CC2C00D51C433C60DBF800405F46D1F818
:101F800004C09C435FEA8C2C00D51C433C60DEF807
:101F900000407746D1F804C09C435FEA8C3C00D5F2
:101FA0001C433C60084F083F3C68D1F804C09C4388
:101FB0005FEACC3C00D51C433C60521C102AFFF465
:101FC0002FAFBDE8F88F0000083C014044380240C4
:101FD00000300140000002400004024000080240BE
:101FE000000C0240001002400014024000180240A1
:101FF000001C02400AB1816170470904FBE7000040
:102000000148806870470000000000200248816895
:102010000278114481607047000000200B4810B521
:10202000016841F400710160016841F48061016060
:10203000016841F480710160032000F06FF80F2007
:1020400000F006F800F024F8002010BD003C02402B
:1020500070B50D4D04464FF47A712878B1FBF0F05D
:102060000A490968B1FBF0F000F0AAFC48B9102C4D
:1020700007D200222146501E00F030F800206C608C
:1020800070BD012070BD0000000000200C00002089
:102090000A4808B5016841F480410160006800F415
:1020A000804000900548001F016841F080510160A8
:1020B000006800F08050009008BD000044380240E5
:1020C000002809DB00F01F02012191404009800037
:1020D00000F1E020C0F8001170470000F0B40E4B92
:1020E0001B680C46C3F30223C3F10705042D00D976
:1020F0000425191D072901D2002300E0DB1E01265B
:1021000006FA05F1491E214099409E40761E164070
:102110003143F0BC01F0A9BB0CED00E0064900F032
:10212000070208684FF6FF03184040EA0220034AFE
:1021300010430860704700000CED00E00000FA0555
:102140002DE9F0470E46050065D0DFF81481D8F878
:102150000000F7B200F00700B04207D288F8007024
:10216000D8F8000000F00700B04254D128683D4C78
:10217000810712D5400703D5206840F4E050206065
:102180002878000703D5206840F46040206020686C
:10219000A96820F0F000084320602878C0072DD0FF
:1021A000304968680839012812D0022813D0032862
:1021B00011D00968890700292DDA216821F003016F
:1021C00001432160FFF71CFF814641F2883A0EE08F
:1021D00009688903EFE709688901ECE7FFF710FF59
:1021E000A0EB0901514502D90320BDE8F087206822
:1021F000696800F00C00B0EB810FEFD1D8F8001047
:10220000404601F00701B14207D90770006800F0AD
:102210000700B04201D00120E7E72878400705D544
:102220002068E96820F4E05008432060287800071F
:1022300006D52068296920F4604040EAC10020608A
:1022400000F038F82168084AC1F30311515CC84016
:102250000649086006480068FFF7FAFE0020C4E758
:10226000003C024008380240D83C00080C00002026
:10227000040000200448054900680968044AC1F3C5
:102280008221515CC84070470C0000200838024091
:10229000E83C00080448054900680968044AC1F39D
:1022A0004231515CC84070470C00002008380240A1
:1022B000E83C0008154810B5006810F00C021448FE
:1022C00013D01449042A0FD0082A0ED10F4C241F12
:1022D0002268236802F03F025B0207D52068C0F342
:1022E0008810A0FB010106E0084610BD2168C1F37B
:1022F0008811A1FB00010023FDF7C2FF2168C1F393
:102300000141491C4900B0FBF1F010BD0838024002
:102310000024F400001BB7002DE9F84F04006ED034
:102320002078DFF84C93C007A9F104054AD009F1E1
:1023300004000168C1F38101012908D00068C0F3DD
:10234000810002280AD1D9F80000400206D5286889
:10235000800337D560680028E1D033E06068B0F5CD
:10236000803F10D0B0F5A02F286810D020F4803026
:102370002860286820F4802028606068A8B1FFF7F2
:102380003FFE06460DE0286840F48030F4E740F454
:1023900080202860F7E700BFFFF732FE801B64282B
:1023A00073D828688003F7D50CE0FFF729FE0646AE
:1023B00005E000BFFFF724FE801B6428F0D82868E2
:1023C0008003F7D42078DFF8AC8280074FF0000A52
:1023D0003ED5A748001D016811F00C0F08D0006819
:1023E000C0F3810002280BD1D9F80000400207D4C5
:1023F0002868800716D5E068012800D112E033E193
:10240000E068B8B10120C8F80000FFF7F9FD064602
:1024100005E000BFFFF7F4FD801B0228C0D8286844
:102420008007F7D52868216920F0F80040EAC1004C
:1024300028600DE0C8F800A0FFF7E2FD064604E0C2
:10244000FFF7DEFD801B02281FD828688007F7D41D
:102450002078000722D5864F87486169703771B1AF
:1024600001210160FFF7CCFD064604E0FFF7C8FD3F
:10247000801B022809D838688007F7D50EE0C0F81D
:1024800000A0FFF7BDFD064605E082E0FFF7B8FDBE
:10249000801B02287DD838688007F7D42078400751
:1024A00068D5DFF8CCB100270BF13C0BDBF800005E
:1024B000C0000BD4DBF8001041F08051CBF80010C5
:1024C000DBF80000012700F0805000906B4E306870
:1024D000C00510D4306840F480703060FFF790FD84
:1024E000009005E0FFF78CFD0099401A022850D8B3
:1024F0003068C005F6D55E4EA0686C3601280FD056
:102500000528306810D020F001003060306820F0DD
:1025100004003060A068B8B1FFF772FD00900FE0D2
:10252000306840F00100F4E740F004003060F7E765
:10253000FFF766FD0099411A41F28830814266D862
:1025400030688007F4D50EE0FFF75AFD009007E0F1
:10255000FFF756FD0099411A41F28830814256D862
:1025600030688007F4D42FB1DBF8001021F08051DF
:10257000CBF80010A069C8B33D49091D0968C1F333
:10258000810102294AD00228504607D0C8F86000CD
:1025900000E03CE0FFF734FD04463BE04746C8F866
:1025A0006000FFF72DFD064605E000BFFFF728FDA0
:1025B000801B02282BD828688001F7D4D4E90701B2
:1025C0000843A16A2E4A490802EB0141626A41EAC6
:1025D0008211084394F82C1040EA0161C9F80010F8
:1025E00001203866FFF70CFD044606E03EE000BF20
:1025F000FFF706FD001B022809D828688001F7D5DF
:1026000034E000BFFFF7FCFC001B022802D90320C6
:10261000BDE8F88F28688001F4D427E00128F7D0BE
:10262000D9F80000E26900F4800191421CD1226ACD
:1026300000F03F01914217D147F6C071626A014034
:10264000B1EB821F10D1A26A4FF0FF3300F440318A
:1026500003EB5202B1EB024F06D194F82C1000F0BC
:102660007060B0EB016F01D00120D1E70020CFE70F
:102670000438024000004742800E4742007000408C
:102680000000FFFF70B5040009D0606A002540B16A
:1026900025616561A56294F8510040B10CE001200C
:1026A00070BD6068B0F5827FF4D0E561F2E784F830
:1026B0005050204600F044F8022084F85100206871
:1026C000016821F040010160A088218900F4827036
:1026D00001F404410843A18901F400610843217C0D
:1026E00001F002010843217D01F001010843218B23
:1026F00001F400710843217F01F03801084394F888
:10270000201001F080010843218D01F4005108439D
:1027100021680860A069042101EA104094F824109F
:1027200001F010010843216848602068C16921F464
:102730000061C1616565012084F85100002070BD11
:10274000F0B587B0044614216846FDF7AEFE1C497B
:102750002068884232D11B480024016841F480512E
:102760000160006800F48050059016481438016834
:1027700041F002010160016801F002010591016868
:1027800041F0010101600068022500F001000590A0
:102790001820CDE9000502AA0326052782E8D0000B
:1027A00069460948FFF72EFB8020CDE9000502AA03
:1027B000694682E8D0000548FFF724FB07B0F0BD6A
:1027C0000030014044380240000402400000024052
:1027D0002DE9FF4F81B01D46934604464FF0010995
:1027E0000E9EFFF70DFC074694F851006168012822
:1027F00006D0B1F5827F3CD1A168C9BB042838D18D
:102800000298002871D0BBF1000FFBD0002DF9D049
:1028100094F8500001282CD04FF0010A84F850A001
:1028200094F85100042802D0052084F851004FF09C
:102830000008C4F85480C4F838B0E587A587029929
:102840002163E586A586C4F84080C4F844802068EA
:102850000168490603D4016841F040010160E06865
:10286000B0F5006F606808D0F0B3012D49D081E069
:10287000FFE7022005B0BDE8F08F08B1012D39D186
:10288000206B21680088C860206B801C2063E08E6C
:10289000401EE0862EE02068816889070FD5E18E12
:1028A00069B1B9F1010F0AD1216B0988C160206BB0
:1028B000801C2063E08E401EE0864FF000092068F7
:1028C0008168C9070CD0E18F51B1C068A16B088045
:1028D000A06B801CA063E08F401EE0874FF00109D1
:1028E000FFF78EFBC01B01E00BE067E0B04201D3B5
:1028F000701C50D1E08E0028CDD1E08F0028CAD1C5
:102900003EE0206B216800780873206B401C206338
:10291000E08E401EE0862DE02068816889070FD593
:10292000E18E69B1B9F1010F0AD1216B0978017308
:10293000206B401C2063E08E401EE0864FF00009B3
:1029400020688168C9070CD0E18F51B1C068A16BC4
:102950000870A06B401CA063E08F401EE0874FF022
:102960000109FFF74DFBC01BB04202D3701C01D020
:1029700011E086B1E08E0028CED1E08F0028CBD1C7
:102980003A463146204600F0CFFB50B1202060652A
:1029900084F8508012E084F851A084F8508003201D
:1029A00068E7A06818B92068C1688068009084F85A
:1029B00051A084F85080606D0028F1D0012059E7C3
:1029C00010B5401EB0F1807F01D3012010BD4FF043
:1029D000E02460610F21601700F047FF0020A06134
:1029E00007202061002010BD38B5044690F8420051
:1029F000202801D0022038BD51B14AB10120206306
:102A000000206063204600F013FE216B012901D0F5
:102A1000012038BD21680A684968009121680C319D
:102A200051E8002F42F0100241E80023002BF5D1BD
:102A300038BD000010B50068054A904206D105482F
:102A400000F058FFBDE8104001F09CB810BD000038
:102A500000140140A801002070470000F8B501688B
:102A600004460868CA684B6910F00F0F4FF0000564
:102A700059D003F0010602F49077374365D0C107BF
:102A800005D0D10503D5616C41F0010161644107B6
:102A900005D5D90703D0616C41F00201616481075B
:102AA00005D5D90703D0616C41F0040161640107C9
:102AB00007D502F02001314303D0616C41F00801D9
:102AC0006164616C00293AD0800604D5900602D575
:102AD000204600F0C6FC20684069616CC0F380109D
:102AE000090700D460B3204600F086FC20684069E6
:102AF000400621D52068143050E8001F21F0400125
:102B000040E80012002AF5D1E06BA8B172490165D6
:102B1000E06BFEF7F2FF002811D0E06B016D01B011
:102B2000BDE8F040084783060FD593060DD5204633
:102B3000BDE8F84000F095BC2046FFF78DFFF8BDDA
:102B40002046FFF789FF6564F8BD266B2023012E20
:102B50007ED1C6067CD5D6067AD50868486800902E
:102B600048694FF0020640064DD5E26B1068406898
:102B70004FF480770004000C3AD0A18D814237D900
:102B8000E085D069B8422DD020680C3050E8001F95
:102B900021F4807140E80012002AF5D12068143039
:102BA00050E8001F21F0010140E80012002AF5D191
:102BB0002068143050E8001F21F0400140E8001266
:102BC000002AF5D184F84230256320680C3050E8A3
:102BD000001F21F0100140E80012002AF5D1E06B3F
:102BE000FEF742FF6663A08DE18D401A81B206E0D8
:102BF000A18D8142A8D1D069B842A5D16663204693
:102C0000FFF718FFF8BDA08DE18D401A81B2E08D6D
:102C10000028F7D00029F5D020680C3050E8002FAC
:102C200022F4907240E80027002FF5D1206814307C
:102C300050E8002F22F0010240E80027002FF5D1D4
:102C400084F84230256320680C3050E8002F00E003
:102C500006E022F0100240E80023002BF3D1CDE77C
:102C600005062BD5150629D594F841002128C9D190
:102C7000A068B0F5805F01D12069B0B1206A411C25
:102C80002162216800784860E08C401E0004000C3E
:102C9000E084B7D12068C16821F08001C16020685C
:102CA000C16841F04001C160F8BD206A0088C0F3EE
:102CB00008004860206A801C2062E5E74006F3D5E2
:102CC0005006F1D5CA68204622F04002CA6084F856
:102CD000413000F011F9F8BDFD32000870B5040074
:102CE00004D094F84100002510B106E0012070BD29
:102CF00084F84050204600F023F8242084F8410056
:102D00002068C16821F40051C160204600F00AFC2F
:102D10002068016921F4904101612068416921F036
:102D20002A0141612068C16841F40051C1606564B5
:102D3000202084F8410084F842006563002070BDC3
:102D4000F0B587B0064614216846FDF7AEFB3A4958
:102D5000384B3268002538481439022403279A4238
:102D60002AD1026842F010020260006800F01000F0
:102D70000590086840F002000860086800F0020052
:102D80000590086840F0010008600868072600F018
:102D900001000590802004968DE8B100694627481F
:102DA000FFF730F8200204968DE8B1006946244808
:102DB000FFF728F807B0F0BD224B9A42FAD102681B
:102DC00042F020020260006800F0200005900868D0
:102DD00040F0400008600868694600F04000059037
:102DE0004FF484408DE8B100082004901648FFF7A6
:102DF00009F8174C154820608005C4E901054FF417
:102E00008060C4E903506561A561E56125622046E3
:102E10006562FEF755FF08B1FEF737FCF463002248
:102E200011464720A663FFF759F94720FFF748F9F5
:102E3000C0E7000000100140443802400004024096
:102E400000000240001401400018024028640240C3
:102E500048010020704770472DE9F843044690F878
:102E60004100984616460D46202802D00220BDE8B3
:102E7000F88385B17EB100206064212084F8410090
:102E8000FFF7BEF8A6848146E684A0682027B0F547
:102E9000805F02D003E00120E9E7206910B12E46EF
:102EA00000250EE000260CE08021204600F010FCFA
:102EB000A8B9C6B116F8010B21684860E08C401E25
:102EC000E084E08C4B464FF00002CDF800800028F3
:102ED000EAD14FF04001204600F0FAFB40B184F8FF
:102EE00041700320C3E735F8020BC0F30800E3E7A5
:102EF00084F841700020BAE77047FEE70F4810B52C
:102F00000D4901600321416000214FF410228160CE
:102F1000C0E903124FF400124261017641768176D6
:102F2000C17601774177FEF7B1FC002803D0BDE8F8
:102F30001040FEF7AABB10BD00640040380000201E
:102F4000094808B5016841F4800101600068002269
:102F500000F48000009011463920FFF7BFF8BDE86B
:102F600008403920FFF7ACB8303802402DE9F04373
:102F700087B014216846FDF798FA374800250168A4
:102F800041F002010160016801F002010591016850
:102F900041F040010160016801F0400105910168C4
:102FA00041F001010160016801F001010591016832
:102FB00041F008010160016801F008010591016814
:102FC00041F080010160016801F080010591016814
:102FD00041F0040101600068DFF8809000F0040017
:102FE0000590012240F201114846FFF703F81C4FFB
:102FF0004FF48076002231463846FEF7FBFFDFF8BB
:103000006480012210214046FEF7F4FF012400965F
:10301000CDE90145694648460395FEF7F3FE009663
:10302000CDE90145694638460395FEF7EBFE1020D1
:10303000CDE9000469464046CDE90245FEF7E2FECF
:103040000094694648460194CDE90245FEF7DAFE50
:1030500007B0BDE8F08300003038024000040240B1
:103060000008024000000240104810B50E490160FF
:103070004FF482714160002102228160C0E9031295
:1030800001224261520282613822C0E90721416275
:1030900081620A21C162FFF7F5FA002803D0BDE87A
:1030A0001040FEF7F2BA10BD003001406000002071
:1030B0000C4810B50A4901604FF4E131416000212C
:1030C00081600C22C160C0E904128161C161FFF717
:1030D00005FE002803D0BDE81040FEF7D6BA10BDAB
:1030E00000100140B80000200C4810B50A490160EA
:1030F0004FF4E1314160002181600C22C160C0E9E0
:1031000004128161C161FFF7E9FD002803D0BDE829
:103110001040FEF7BABA10BD0014014000010020B3
:10312000FEE7FEE770470000F8B515460E460B4671
:10313000009204460122022100F02CF8A0B91348A5
:1031400013490068B0FBF1F04FF47A7148430090E6
:103150006068B0F5827F0DD1334600228021204681
:10316000009500F017F870B1606D40F020006065C8
:103170000320F8BD009830B1401E009020688068A0
:10318000C0430006F6D50020F8BD00000C0000206A
:1031900000366E012DE9F8431E46914688460446E6
:1031A000089DFEF72DFF401B351AFEF729FF074645
:1031B00026480068C0F3CB3068430AE0701C09D091
:1031C000FEF71EFFC01BA8420FD275B10098B8B31E
:1031D000401E00902068816838EA010033D0002149
:1031E0004945EBD10020BDE8F8832068416821F013
:1031F000E00141606068B0F5827F0BD1A068B0F556
:10320000004F02D0B0F5806F04D12068016821F032
:1032100040010160A06AB0F5005F09D12068016833
:1032200021F4005101602068016841F400510160FF
:10323000012084F85100002084F850000320D2E7D8
:10324000FFE70025C6E70121CAE700000C000020C7
:103250007047FEF7DBBE000030B593B03021684602
:10326000FDF723F914210CA8FDF71FF91D480025CF
:10327000016841F080510160006800F080501190B9
:103280001948016841F4804101600068022400F49B
:103290008040119001200090000401908001CDE950
:1032A000064006200890A820CDE9090404200B90D0
:1032B0006846FFF731F808B172B6FEE70CA90F2097
:1032C00081E831004FF4A0500F904FF480501090DF
:1032D00005210CA8FEF734FF002801D072B6FEE7E6
:1032E00013B030BD40380240007000400248016811
:1032F00041F470010160704788ED00E010B5806B0B
:103300000021C185FFF7A8FB10BD70B5846B206854
:10331000406994F84110C0F3C0100025212904D160
:1033200018B1E584204600F08EF82068406994F8D2
:103330004210C0F38010222904D118B1E58520463F
:1033400000F05AF8606C40F0100060642046FFF70F
:1033500083FB70BD10B50146806B096809684FF0AA
:103360000002C9052ED4C28501680C3151E8003F26
:1033700023F4807341E80034002CF5D10168143146
:1033800051E8003F23F0010341E80034002CF5D15F
:103390000168143151E8003F23F0400341E8003454
:1033A000002CF5D1202180F84210016B012909D1B0
:1033B00001680C3151E8003F23F0100341E800346C
:1033C000002CF5D14263016B012902D0FFF742FDC9
:1033D00010BD818DFFF72EFB10BD10B5806B012154
:1033E0004163016B012902D0FFF735FD10BD818DCE
:1033F0004908FFF71FFB10BD01680C3151E8002F91
:1034000022F4907241E80023002BF5D101681431B9
:1034100051E8002F22F0010241E80023002BF5D1F2
:10342000016B012909D101680C3151E8002F22F00C
:10343000100241E80023002BF5D1202180F8421032
:1034400000210163704701680C3151E8002F22F020
:10345000C00241E80023002BF5D1202180F8411063
:10346000704708B590F84210222901D0022008BD0B
:1034700082684FF480539A4201D1016921B1816A77
:103480009A421BD04AB10AE00268816A5268C2F3CC
:1034900008020A80816A891C08E0026972B1026828
:1034A000526802F07F020A70816A491C8162C18DF4
:1034B000491E0904090CC18503D01BE0026852684B
:1034C000F1E70168CA6822F02002CA600168CA6890
:1034D00022F48072CA6001684A6922F001024A61DE
:1034E000202180F8421000214163026B012A03D0A1
:1034F000FFF7B0FC002008BD016301680C3151E802
:10350000002F22F0100241E80023002BF5D10168C2
:103510000A68D20602D50A6849680091818DFFF7D2
:1035200089FAE7E770B5044600680169E26821F4AA
:103530004051114301612169A068E2690843616952
:10354000114308432168CA6849F20C639A43024355
:10355000CA6020684169A26921F440711143416148
:1035600031492068884202D03049884202D1FEF7B2
:1035700091FE01E0FEF77EFEE26900231921642539
:103580003226B2F5004F626828D0A0FB0101930FEC
:103590009200FCF775FE0146B0FBF5F06FF01802E3
:1035A000504301EB800006EB0010B0FBF5F000F09B
:1035B000F002B1FBF5F002EB0012B1FBF5F06FF099
:1035C0001803584301EB800006EB0010B0FBF5F048
:1035D00000F00F0021681044886070BDA0FB01015D
:1035E00092185B41FCF74CFE0146B0FBF5F002017E
:1035F000B1FBF5F06FF01803584301EB800006EBC8
:10360000C000B0FBF5F000F0F80002EB4002B1FBA7
:10361000F5F0584301EB800006EBC000B0FBF5F07D
:1036200000F00700D6E70000001001400014014040
:1036300038B58162044682850020134660642222E8
:1036400084F84220E56B1F4AEA63E56B1E4A2A6450
:10365000E56B1E4AEA64E26B10650A462168E06B7E
:10366000091DFEF797FB30B110206064202084F81C
:103670004200012038BD2068016840680090206940
:1036800048B120680C3050E8001F41F4807140E8D8
:103690000012002AF5D12068143050E8001F41F0D4
:1036A000010140E80012002AF5D12068143050E8EA
:1036B000001F41F0400140E80012002AF5D100202F
:1036C00038BD000055330008DB3300080B33000819
:1036D0002DE9F843984617460D460446089E24E017
:1036E000701C22D0FEF78CFCA0EB0800B0421AD868
:1036F000CEB12068C168490717D5802D15D0402D5F
:1037000013D00168C94309070FD401680025406838
:1037100000902046FFF770FE0820606484F8405057
:103720000120BDE8F8830320FBE72068006835EA44
:10373000000004D00020B842D2D00020F1E70120E0
:10374000F9E700002DE9F04FBDB0FEF759FC274A1C
:103750001168884247D364311160FDF759FE10EEBD
:10376000100A00F03DFA8B468246FDF74BFE10EE44
:10377000100A00F035FA0F460646FDF73DFE10EE42
:10378000100A00F02DFA0D460446FDF72FFE10EE4C
:10379000100A00F025FACDE90001FDF721FE10EE38
:1037A000100A00F01DFA89468046FDF713FE10EE60
:1037B000100A00F015FA41EC100B04A853EC102B82
:1037C00080E8F00CDDE90001CDE9020108A10AA8BA
:1037D000CDE90089FCF7CCFD82B24FF0FF330AA996
:1037E0001148FFF739FB3DB0BDE8F08F34000020F1
:1037F00061783A20252E32662C61793A20252E32C6
:10380000662C617A3A20252E32662C67783A20257C
:103810002E32662C67793A20252E32662C677A3A4A
:1038200020252E32660D0A00B80000200148FFF75F
:1038300015B9000000010020FEE703B40198410023
:10384000009850EAC12018BF04204A0D18BF40F06C
:10385000010040F2FF72B2EB515F08BF40F002007E
:10386000012808BF052002B070470907090E00288B
:1038700004DB00F1E02080F80014704700F00F0036
:1038800000F1E02080F8141D704730380A2801D27A
:10389000012070470020704710B500220346491EE2
:1038A00089B20FE05018400803EB8004D4ED000A01
:1038B000F4EEC00AF1EE10FA01DD411EF0E703D28A
:1038C000421C92B28A42EDD910BDFEF7A7FBFFF76A
:1038D000C3FCFFF74BFBFFF733FBFFF70FFBFFF7D3
:1038E00003FCFFF7C1FBFFF7E3FBFDF797FDFFF7D5
:1038F00029FFFAE770B505462DED028B84B0002054
:103900000C46ADF8000002900390019002E0521CBA
:10391000ADF80020BDF80020A24202D2A85C242805
:10392000F5D190B24FF0FF36A0422AD2521CADF82A
:10393000002002AB6A46284600F056F808BBBDF8E6
:103940000000A0421DD2295C2C291AD1401CADF8E0
:10395000000003AB6A462146284600F045F880B9CE
:10396000BDF80000A0420CD2295C2C2909D1401CD2
:10397000ADF8000001AB6A462146284600F034F855
:1039800020B1304604B0BDEC028B70BD029808B186
:10399000012100E00021124C217003986080019AFF
:1039A000A280B9B19FED0F8A00EE100AF0EE480A2E
:1039B000B8EEC00A00F072F884ED020A0198F0EE49
:1039C000480A404200EE100AB8EEC00A00F066F85D
:1039D00084ED030AFEF714FB20610020D2E700000B
:1039E000E80100203393B7432DE9F04307461488DC
:1039F000002501202E464FF0FF3C8C420AD217F8DA
:103A00000480B8F12B0F03D0B8F12D0F02D160461E
:103A1000641CA4B26FF02F098C4210D217F80480F6
:103A2000B8F1300F0BD3B8F1390F08D805EB850684
:103A300009EB4605641C4544A4B20126ECE72EB10F
:103A40006843186014800020BDE8F0836046FBE7FF
:103A5000B5EEC00A10B5F1EE10FA2DED028B04D2CE
:103A6000BFEE008AB1EE400A01E0B7EE008A4FF4E3
:103A700080610848FFF710FF00EE100ADFED060A2C
:103A8000B8EE400A28EE000ABDEC028B20EE200AB8
:103A900010BD0000F04C0008DB0FC93A10B52DED49
:103AA000028BF0EE608AB0EE408AF5EEC08AF1EE4D
:103AB00010FA0CD1B5EEC08AF1EE10FA04DB9FEDDE
:103AC000130ABDEC028B10BD9FED110AF9E788EED9
:103AD000280AFFF7BDFFF5EEC08AF1EE10FAF0D22A
:103AE000B5EEC08ADFED0B0AF1EE10FA02DD30EE22
:103AF000200AE6E7B5EEC08AF1EE10FA02D230EE07
:103B0000600ADEE79FED040ADBE70000DB0FC93F38
:103B1000DB0FC9BFDB0F4940DB0F49C02DE9F04780
:103B20001746DDE908451E46884681460022FEF715
:103B300061FA47F0800000F015F846B1002000F06F
:103B400011F804E0002000F00DF804F8010B6D1EE0
:103B5000EDB2F7D241464846BDE8F0470122FEF7F4
:103B600049BA000001B582B04FF0FF300090012348
:103B700001AA02A90248FEF72BFE9DF804000EBD23
:103B80006000002010B5402205490648FEF72CFFD2
:103B90000448C06B0068016821F00801016010BD95
:103BA000A80100200001002010B500290AD00878E3
:103BB000002807D005487844FCF7FCFF002801D016
:103BC000002010BD0248784410BD0000EE21000026
:103BD000E62100000808A0F500114FEA3101704706
:103BE00043004FEAD30C4FEA3C0C43401FBF400751
:103BF0000CF1605113F0FE4F70471CF0006F03D1C1
:103C000000200CF0004170470CF0004343EA507074
:103C100010B540EACC0000F00EF800BF00000092A2
:103C20004FEA0001FFF7D6BF4FF000414FF0000010
:103C3000A1F5002170470EF1020E2EF0030E5EF882
:103C4000044B244204D44FEA4102B2F17F4F11D811
:103C50004FEA4003B3F17F4F0CD80ED14FEAD07C2E
:103C6000B2F17F4F0CEB4C0C0CF1020C08BF4CEB8B
:103C7000D17C04E04FF0080C01E04FEAD17C0CEB62
:103C80004C0324FA03F404F00704B4F1040C06D244
:103C90000EEB840CBDE810404CF0010C6047DFE8EF
:103CA0000CF0070802024FF00040A0F5800010BDA4
:103CB0000846420018BFD2F1807288BF00F0004071
:103CC00010BD4FF04070E1EE100A7047FCF7F0BCF9
:103CD000000610160006101600000000000000008C
:103CE00001020304060708090000000001020304A2
:103CF000000000008010C93A8010493B60CC963B20
:103D00008010C93BA054FB3B60CC163C70EE2F3CAE
:103D10008010493C5E2E623C6E507B3C3F398A3CB1
:103D200047CA963C3659A33C3EEAAF3C467BBC3C76
:103D3000350AC93C3D9BD53C2C2AE23C34BBEE3CC9
:103D4000234AFB3C89EC033D01340A3D787B103D5E
:103D5000F0C2163D670A1D3DDF51233D5699293DAE
:103D6000C2DF2F3D3927363DA46D3C3D0FB4423DA7
:103D700087FB483DF2414F3D5D88553DC8CE5B3DD8
:103D80002714623D925A683DF19F6E3D5CE6743D9A
:103D9000BB2B7B3D8DB8803D3CDB833D65FD863D87
:103DA00014208A3D3E428D3DED64903D1687933D43
:103DB0003FA9963DE2CA993D0BED9C3DAE0EA03D5C
:103DC0005130A33DF451A63D9773A93D3A95AC3DC2
:103DD00056B6AF3DF9D7B23D16F9B53DAC19B93D70
:103DE000C93ABC3D605BBF3DF67BC23D8D9CC53D85
:103DF00023BDC83DBADDCB3DCAFDCE3DDA1DD23D67
:103E0000EA3DD53D745DD83DFE7CDB3D889CDE3DC2
:103E100012BCE13D9CDBE43DA0FAE73DA419EB3D7B
:103E2000A838EE3D2657F13DA375F43D2194F73DAA
:103E30009EB2FA3D96D0FD3D4777003E4206023ED7
:103E4000FB94033EB323053E6CB2063E2541083E7B
:103E50009ACF093E0F5E0B3E42EC0C3E747A0E3E4A
:103E6000A708103ED996113EC824133EB7B2143E9F
:103E70006440163E53CE173EFF5B193E68E91A3E7A
:103E8000D1761C3E3A041E3E60911F3E861E213EA6
:103E9000ACAB223E8F38243E72C5253E5452273E9D
:103EA000F4DE283E946B2A3EF0F72B3E4D842D3EE7
:103EB000AA102F3EC39C303EDD28323EB3B4333EC1
:103EC0008940353E60CC363EF357383E86E3393E76
:103ED000D66E3B3E27FA3C3E34853E3E4110403E86
:103EE0004E9B413E1826433E9FB0443E693B463EB2
:103EF000ACC5473E3350493E34DA4A3E77644C3EC7
:103F000078EE4D3E36784F3EF301513E6E8B523E79
:103F1000E814543E629E553E9A27573E8EB0583E56
:103F200082395A3E76C25B3E274B5D3E95D35E3E5C
:103F3000035C603E71E4613E9C6C633E84F4643ECD
:103F40006C7C663E1004683EB58B693E16136B3E72
:103F5000789A6C3E96216E3EB5A86F3E902F713ECA
:103F60006BB6723E043D743E59C3753EAE49773E12
:103F7000C0CF783ED2557A3EA1DB7B3E70617D3E5C
:103F8000FBE67E3E2236803EC6F8803E49BB813E3F
:103F9000CC7D823E2D40833E6D02843EACC4843E87
:103FA000CB86853EE948863EE50A873EC0CC873E03
:103FB0009B8E883E5550893EED118A3E84D38A3EC1
:103FC000FB948B3E71568C3EC6178D3EF9D88D3EC4
:103FD0002C9A8E3E3E5B8F3E2E1C903E1EDD903E08
:103FE000ED9D913E9A5E923E251F933EB1DF933E3A
:103FF0003CA0943E8560953ECD20963EF4E0963EF2
:104000001BA1973E2061983E0421993EC6E0993E4F
:1040100088A09A3E28609B3EA71F9C3E26DF9C3EC0
:10402000849E9D3EC05D9E3EDA1C9F3EF5DB9F3E1A
:10403000ED9AA03EC559A13E7A18A23E30D7A23EC5
:10404000C495A33E3754A43EA912A53ED9D0A53E9F
:10405000088FA63E164DA73E240BA83EEFC8A83EEB
:10406000BA86A93E6344AA3E0C02AB3E72BFAB3E89
:10407000D97CAC3E1D3AAD3E40F7AD3E42B4AE3EBB
:104080004371AF3E022EB03EC0EAB03E5DA7B13EE6
:10409000FA63B23E5320B33EADDCB33EE598B43E86
:1040A000FC54B53EF110B63EC4CCB63E7688B73E61
:1040B0002844B83EB9FFB83E28BBB93E7576BA3E33
:1040C000A131BB3EABECBB3EB5A7BC3E7C62BD3E66
:1040D000431DBE3EE9D7BE3E6C92BF3ECF4CC03EB4
:1040E0001007C13E51C1C13E4E7BC23E4C35C33E5E
:1040F00007EFC33EC1A8C43E5A62C53ED21BC63EAE
:1041000028D5C63E5C8EC73E6F47C83E8200C93E7A
:1041100052B9C93E0072CA3EAE2ACB3E3BE3CB3E0B
:10412000849BCC3ECE53CD3EF60BCE3EDBC3CE3E83
:10413000C07BCF3E8333D03E25EBD03EA5A2D13EFF
:10414000045AD23E4111D33E5CC8D33E567FD43E82
:104150005036D53E07EDD53E9CA3D63E105AD73EED
:104160006210D83E93C6D83EC47CD93EB132DA3E06
:104170007DE8DA3E289EDB3EB153DC3E3909DD3E68
:104180007FBEDD3EA373DE3EA628DF3E87DDDF3E39
:104190004792E03EE546E13E61FBE13EBCAFE23ED8
:1041A000F563E33E0D18E43E03CCE43ED87FE53EE4
:1041B0006A33E63EFBE6E63E6B9AE73E984DE83E04
:1041C000C500E93EAFB3E93E7766EA3E3F19EB3EF4
:1041D000C5CBEB3E287EEC3E6A30ED3E8BE2ED3EF9
:1041E0006894EE3E4546EF3E01F8EF3E7AA9F03E78
:1041F000F35AF13E280CF23E3CBDF23E2F6EF33EE8
:10420000001FF43EAFCFF43E3D80F53E8830F63ED1
:10421000D2E0F63EDA90F73EC040F83E84F0F83E39
:1042200027A0F93EA94FFA3EE7FEFA3E25AEFB3E37
:10423000205DFC3EFA0BFD3EB2BAFD3E4969FE3EF2
:10424000BE17FF3EEFC5FF3E003A003FF790003F2C
:10425000DEE7003FB43E013F7995013F1CEC013F92
:10426000AF42023F3199023FA2EF023FF145033FC7
:10427000419C033F6FF2033F8C48043F999E043FEB
:1042800084F4043F5E4A053F27A0053FE0F5053F63
:10429000884B063F0EA1063F83F6063FE84B073FDB
:1042A0003CA1073F6FF6073F904B083FA1A0083F96
:1042B000A1F5083F804A093F4D9F093F0AF4093F95
:1042C000A6480A3F419D0A3FBBF10A3F24460B3FE7
:1042D0006B9A0B3FA2EE0B3FC8420C3FDD960C3FA2
:1042E000D1EA0C3FB43E0D3F86920D3F36E60D3FBE
:1042F000D6390E3F658D0E3FE3E00E3F40340F3F51
:104300008B870F3FB6DA0F3FCF2D103FD880103F7D
:10431000D0D3103FA626113F6C79113F21CC113F1D
:10432000B41E123F3771123F98C3123FE815133F76
:104330002768133F56BA133F630C143F5F5E143F68
:104340003AB0143F0402153FBD53153F55A5153F24
:10435000DCF6153F4148163FA699163FD9EA163FAD
:104360000C3C173F1E8D173F0DDE173FEC2E183FFC
:10437000BB7F183F78D0183F1421193F8F71193F28
:10438000F8C1193F51121A3F99621A3FC0B21A3F41
:10439000C5021B3FB9521B3F9CA21B3F5EF21B3F55
:1043A0000F421C3F9F911C3F1EE11C3F8C301D3F64
:1043B000D87F1D3F03CF1D3F1D1E1E3F266D1E3F94
:1043C0000EBC1E3FE50A1F3F9B591F3F3FA81F3FE2
:1043D000C2F61F3F3545203F9693203FD6E1203F50
:1043E000F52F213F027E213FFFCB213FDB19223FEA
:1043F0009467223F3DB5223FD602233F4C50233FD6
:10440000A19D233FE6EA233F1938243F2B85243F13
:104410002DD2243F0C1F253FCA6B253F78B8253F7E
:104420000305263F7E51263FE99D263F31EA263F80
:104430005936273F6F82273F64CE273F481A283FCF
:104440000A66283FABB1283F3BFD283FBB48293FC8
:104450001894293F55DF293F802A2A3F8A752A3F31
:1044600083C02A3F5B0B2B3F21562B3FC7A02B3F1E
:104470004AEB2B3FBD352C3F0F802C3F4FCA2C3FC2
:104480006E142D3F6C5E2D3F58A82D3F24F22D3F1A
:10449000DE3B2E3F77852E3FFFCE2E3F55182F3F18
:1044A000AA612F3FCEAA2F3FE0F32F3FE23C303FDF
:1044B000C285303F81CE303F1E17313FAB5F313F69
:1044C00015A8313F6FF0313FA838323FD080323FDE
:1044D000C5C8323FAA10333F7D58333F30A0333F29
:1044E000C0E7333F302F343F8E76343FCBBD343F6F
:1044F000F704353F014C353FEA92353FB2D9353F9D
:104500006820363FFD66363F82AD363FE4F3363FE6
:10451000263A373F4580373F54C6373F410C383F36
:104520001E52383FC897383F61DD383FD922393FA6
:104530004068393F86AD393FAAF2393FBD373A3F2F
:104540009E7C3A3F6EC13A3F2D063B3FBA4A3B3F05
:10455000368F3B3F91D33B3FDB173C3F035C3C3FF7
:104560000AA03C3FEFE33C3FB3273D3F666B3D3F36
:10457000F7AE3D3F67F23D3FC6353E3F03793E3FD4
:104580001FBC3E3F19FF3E3F03423F3FBA843F3FBF
:1045900060C73F3FF609403F594C403FAC8E403F1B
:1045A000DDD0403FEC12413FDA54413FB796413FE6
:1045B00073D8413F0D1A423F855B423FED9C423F1D
:1045C00022DE423F471F433F4A60433F3CA1433FF7
:1045D000FCE1433FAB22443F3963443FA5A3443F42
:1045E000EFE3443F2924453F4164453F27A4453F2D
:1045F000FCE3453FC023463F5263463FD3A2463FBC
:1046000022E2463F6021473F8D60473F889F473FFA
:1046100061DE473F2A1D483FD15B483F569A483FDD
:10462000BAD8483FFD16493F1D55493F2D93493F94
:104630000BD1493FD80E4A3F834C4A3F0D8A4A3F2F
:1046400086C74A3FCD044B3FF2414B3F067F4B3F6D
:10465000F9BB4B3FCBF84B3F7A354C3F08724C3F90
:1046600075AE4C3FD1EA4C3FFA264D3F13634D3FA8
:104670000A9F4D3FCFDA4D3F83164E3F15524E3FB6
:10468000978D4E3FE7C84E3F14044F3F313F4F3F99
:104690001C7A4F3FF6B44F3FAEEF4F3F352A503FA5
:1046A000AA64503FFE9E503F30D9503F5113513FB6
:1046B000404D513F0E87513FCAC0513F55FA513FBF
:1046C000CE33523F166D523F4CA6523F61DF523FF0
:1046D0004418533F1651533FC689533F55C2533F69
:1046E000C2FA533F0D33543F386B543F40A3543FFD
:1046F00038DB543FFD12553FA14A553F3482553FA8
:1047000095B9553FD4F0553F0228563FFF5E563FBE
:10471000EA95563FA3CC563F4B03573FC139573F0D
:104720002670573F6AA6573F7BDC573F7B12583FA6
:104730005A48583F077E583FA2B3583F1DE9583F9B
:10474000641E593F9C53593FB188593F94BD593F0E
:1047500067F2593F18275A3FA75B5A3F04905A3FC8
:1047600050C45A3F7BF85A3F732C5B3F5B605B3F02
:1047700021945B3FB4C75B3F37FB5B3F882E5C3FB8
:10478000C8615C3FD5945C3FD2C75C3F9CFA5C3FFC
:10479000562D5D3FDD5F5D3F53925D3F97C45D3FAA
:1047A000BAF65D3FBB285E3FAB5A5E3F698C5E3F09
:1047B00006BE5E3F80EF5E3FDA205F3F11525F3FF3
:1047C00027835F3F1CB45F3FEFE45F3F9015603F7E
:1047D0002046603F8E76603FCAA6603FF5D6603FB8
:1047E000EE06613FD636613F8C66613F2096613FA1
:1047F00093C5613FE4F4613F1424623F2253623F5A
:104800000E82623FD9B0623F83DF623FFA0D633FA1
:10481000603C633F946A633FA698633FA8C6633FCA
:1048200077F4633F2522643FB14F643F1C7D643FB2
:1048300054AA643F7BD7643F7104653F5531653F9F
:10484000075E653F988A653F17B7653F65E3653F3B
:10485000800F663F8A3B663F7367663F2993663FDA
:10486000CFBE663F42EA663F9415673FC440673F4C
:10487000D36B673FC096673F8BC1673F25EC673FAF
:10488000AD16683F0341683F386B683F4A95683F03
:104890003CBF683F0CE9683FA912693F363C693F5D
:1048A0009065693FC98E693FE1B7693FD6E0693FCE
:1048B000AB096A3F4D326A3FDE5A6A3F3C836A3F2A
:1048C0007AAB6A3F95D36A3F8FFB6A3F57236B3FB2
:1048D0000E4B6B3F93726B3FF6996B3F37C16B3F4B
:1048E00057E86B3F560F6C3F22366C3FCD5C6C3FF8
:1048F00066836C3FBDA96C3F03D06C3F27F66C3FCD
:10490000191C6D3FEA416D3FA9676D3F268D6D3FD4
:1049100092B26D3FDCD76D3FF4FC6D3FEA216E3FF4
:10492000BF466E3F726B6E3FF38F6E3F63B46E3F58
:10493000A1D86E3FBDFC6E3FB8206F3F80446F3FF3
:1049400038686F3FBD8B6F3F21AF6F3F52D26F3FD3
:1049500073F56F3F6118703F3F3B703FD95D703F0B
:104960006380703FCBA2703F00C5703F14E7703F7B
:104970000709713FD82A713F774C713FF46D713F41
:10498000508F713F8AB0713FA2D1713F88F2713F61
:104990004D13723FF033723F7154723FC174723FD6
:1049A000FF94723F0BB5723FE5D4723FAEF4723F95
:1049B0004414733FB933733F0D53733F3F72733FDA
:1049C0003F91733F1DB0733FD9CE733F74ED733F7A
:1049D000DD0B743F242A743F4948743F4D66743F91
:1049E0001F84743FCFA1743F5DBF743FCADC743F26
:1049F00005FA743F2F17753F1634753FEC50753F1D
:104A00008F6D753F228A753F83A6753FB1C2753F92
:104A1000CEDE753FB9FA753F7216763F1A32763F91
:104A2000904D763FE468763F1684763F279F763F29
:104A300006BA763FC3D4763F5FEF763FC809773F2B
:104A40001024773F363E773F3A58773F0D72773FD5
:104A5000BD8B773F4CA5773FBABE773FF5D7773F01
:104A60000FF1773F070A783FCD22783F713B783FBF
:104A7000F453783F556C783F8484783F919C783F1D
:104A80007CB4783F36CC783FCEE3783F44FB783F28
:104A90009912793FBB29793FBC40793F9B57793FB9
:104AA000486E793FE484793F3D9B793F85B1793FFA
:104AB0009BC7793F90DD793F62F3793F03097A3FE5
:104AC000821E7A3FDF337A3F0A497A3F245E7A3F7B
:104AD000FC727A3FC2877A3F569C7A3FC9B07A3FD0
:104AE00019C57A3F38D97A3F35ED7A3F11017B3FBE
:104AF000BA147B3F41287B3FA73B7B3FEC4E7B3F7B
:104B0000FE617B3FEF747B3FAD877B3F5B9A7B3FD2
:104B1000C5AC7B3F1FBF7B3F46D17B3F4CE37B3F18
:104B200030F57B3FE2067C3F83187C3FE1297C3FE8
:104B30002E3B7C3F494C7C3F425D7C3F096E7C3F75
:104B4000AE7E7C3F328F7C3F849F7C3FC4AF7C3FF6
:104B5000C2BF7C3FAFCF7C3F6ADF7C3F03EF7C3F2F
:104B60007AFE7C3FBF0D7D3FE31C7D3FD42B7D3F14
:104B7000B43A7D3F52497D3FDE577D3F38667D3FE9
:104B800071747D3F88827D3F6D907D3F309E7D3F7B
:104B9000D2AB7D3F41B97D3F8FC67D3FAAD37D3FDC
:104BA000B5E07D3F8DED7D3F33FA7D3FC8067E3F0A
:104BB0002B137E3F5C1F7E3F6B2B7E3F58377E3F23
:104BC00024437E3FBE4E7E3F365A7E3F8C657E3FFD
:104BD000B0707E3FB37B7E3F83867E3F43917E3FB6
:104BE000D09B7E3F2BA67E3F64B07E3F7CBA7E3F4B
:104BF00072C47E3F36CE7E3FD8D77E3F48E17E3FAF
:104C000096EA7E3FC3F37E3FCEFC7E3FA7057F3F03
:104C10005E0E7F3FE3167F3F471F7F3F89277F3F21
:104C2000982F7F3F86377F3F533F7F3FED467F3F43
:104C3000664E7F3FBD557F3FE25C7F3FE5637F3F30
:104C4000C66A7F3F76717F3F03787F3F6F7E7F3FED
:104C5000A9847F3FC28A7F3FB8907F3F7D967F3F88
:104C6000209C7F3F90A17F3FDFA67F3F0CAC7F3F22
:104C700007B17F3FF2B57F3F99BA7F3F2FBF7F3F9C
:104C800093C37F3FC5C77F3FE6CB7F3FD5CF7F3FF5
:104C900091D37F3F3DD77F3FB6DA7F3FFDDD7F3F3A
:104CA00022E17F3F26E47F3F08E77F3FB8E97F3F6F
:104CB00046EC7F3FA2EE7F3FDCF07F3FF5F27F3F87
:104CC000EDF47F3FB2F67F3F44F87F3FC6F97F3F68
:104CD00016FB7F3F33FC7F3F3FFD7F3F19FE7F3F49
:104CE000C1FE7F3F47FF7F3FACFF7F3FEFFF7F3F2E
:104CF000000000008010C93A8010493B60CC963B10
:104D00008010C93BA054FB3B60CC163C70EE2F3C9E
:104D10008010493CC136623CD1587B3C713D8A3C95
:104D200091D0963C9961A33CBAF4AF3CDB87BC3C84
:104D3000FC1AC93C1DAED53C3E41E23C5FD4EE3C82
:104D40007F67FB3C5DFE033DED470A3D8A92103DC7
:104D500027DD163DC4271D3D6D73233D0ABE293D49
:104D6000B309303D5C55363D06A13C3DAFEC423DBC
:104D70006539493D1A864F3DD0D2553D861F5C3D71
:104D8000486D623DFEB9683DC0076F3D8F56753D69
:104D900051A47B3D90F9803DF720843DE448873D58
:104DA000D2708A3DBF988D3DADC0903D21E9933DC5
:104DB0009411973D8E3A9A3D88639D3D828CA03D2B
:104DC00003B6A33D83DFA63D0309AA3D0933AD3DEC
:104DD000105DB03D1687B33DA3B1B63DB5DCB93D1E
:104DE000C807BD3DDB32C03D745EC33D0D8AC63D84
:104DF000A6B5C93DC6E1CC3D6B0ED03D103BD33DC1
:104E00003C68D63D6895D93D94C2DC3D45F0DF3D18
:104E10007E1EE33DB64CE63D747BE93D32AAEC3D97
:104E200077D9EF3DBC08F33D8638F63D5168F93D32
:104E3000A298FC3D79C9FF3D287D013ED715033E70
:104E400086AE043E7847063EACE0073EE179093E77
:104E500059130B3E15AD0C3ED0460E3ECEE00F3E34
:104E60000F7B113E5115133ED5AF143E9D4A163EA1
:104E700064E5173E6F80193EBD1B1B3E0BB71C3E01
:104E8000DF521E3EB3EE1F3ECA8A213EE126233E7C
:104E90003BC3243ED95F263EB9FC273EDD99293E1F
:104EA00000372B3EAAD42C3E54722E3E4110303E89
:104EB0002EAE313EA14C333E14EB343E0D8A363ECD
:104EC0000729383E43C8393EC3673B3E85073D3E10
:104ED00048A73E3E9147403E1DE8413EA988433EDB
:104EE0007829453ECDCA463E226C483EBB0D4A3E1F
:104EF00096AF4B3EF8514D3E5AF44E3EFF96503E13
:104F0000E739523E12DD533E8080553E3124573EF4
:104F100069C8583EA06C5A3E1B115C3E1CB65D3EF3
:104F20001D5B5F3E6000613E2BA6623E384C643ED6
:104F300088F2653ED998673EAF3F693E0CE76A3E0E
:104F4000698E6C3E09366E3E2FDE6F3E9886713E4E
:104F5000012F733E34D8743E6781763EDC2A783E5A
:104F6000D8D4793E177F7B3E99297D3E5FD47E3E23
:104F7000D53F803E9C15813E85EB813E90C1823EAF
:104F8000DD97833E4C6E843EDD44853EB01B863EFD
:104F9000A6F2863EBCC9873EF5A0883E7078893E61
:104FA0002F508A3EEE278B3EEFFF8B3E34D88C3E4F
:104FB00079B08D3E01898E3ECC618F3EB83A903EED
:104FC000C713913E18ED913EACC6923E40A0933E71
:104FD0003A7A943E3354953E902E963EEE08973E94
:104FE000B0E3973E73BE983E9A99993EC1749A3E3B
:104FF0004C509B3EFA2B9C3EC8079D3EDAE39D3EFB
:105000002FC09E3EA69C9F3E5F79A03E3B56A13E90
:105010007B33A23EBA10A33E5FEEA33E25CCA43E56
:105020000DAAA53E5988A63EC766A73E7845A83E6C
:105030004A24A93E8203AA3EDAE2AA3E55C2AB3E0A
:1050400034A2AC3E3482AD3E7862AE3EFF42AF3E0B
:10505000C823B03EB404B13EE2E5B13E54C7B23E0F
:1050600009A9B33E008BB43E3B6DB53E984FB63EAA
:105070005932B73E3C15B83E62F8B83ECBDBB93E7C
:1050800098BFBA3E87A3BB3EBA87BC3E0D6CBD3EFF
:10509000C650BE3EC235BF3E001BC03E8200C13E70
:1050A00047E6C13E4FCCC23E9AB2C33E2899C43EA9
:1050B0001B80C53E3067C63E874EC73E4436C83E5D
:1050C000211EC93E6406CA3EE9EECA3EB2D7CB3EB7
:1050D000BEC0CC3E2EAACD3EC093CE3EB77DCF3EC5
:1050E000F167D03E6E52D13E4F3DD23E7428D33E42
:1050F000DB13D43E86FFD43E74EBD53EC7D7D63EF5
:105100007EC4D73E57B1D83E959ED93E158CDA3E27
:10511000FB79DB3E2368DC3EB056DD3E5F45DE3E7C
:105120009434DF3E0B24E03EC713E13EC503E23E6C
:1051300049F4E23EEFE4E33EFAD5E43E69C7E53EDA
:105140001BB9E63E32ABE73E8C9DE83E4B90E93E14
:105150006F83EA3ED576EB3EA16AEC3EAF5EED3E54
:105160002253EE3EFA47EF3E143DF03E9432F13EBC
:105170007828F23E9F1EF33E2B15F43E1C0CF53EA4
:105180007103F63E2BFBF63E28F3F73E89EBF83E23
:1051900050E4F93E7BDDFA3E0AD7FB3EDDD0FC3E13
:1051A00036CBFD3ED2C5FE3ED3C0FF3E2D5E003F56
:1051B00012DC003F295A013F73D8013FEF56023FEE
:1051C0009DD5023F7E54033FA2D3033FE752043FE5
:1051D0005FD2043F1A52053FF6D1053F1552063FF4
:1051E00067D2063FEB52073FA2D3073F9B54083FCD
:1051F000B7D5083F1557093FA5D8093F685A0A3F58
:105200006EDC0A3FA65E0B3F11E10B3FBF630C3F14
:105210009FE60C3FB1690D3F07ED0D3F8F700E3FCC
:105220005AF40E3F57780F3F98FC0F3F0A81103F0A
:10523000AF05113F988A113FC30F123F2195123FCE
:10524000B11A133F94A0133FAB26143FF3AC143FA5
:105250007F33153F4DBA153F5F41163FA3C8163F38
:105260002B50173FF5D7173FF25F183F42E8183F22
:10527000C570193F8BF9193F95821A3FD00B1B3F20
:105280005F951B3F321F1C3F37A91C3F8F331D3FCB
:105290001BBE1D3FE9481E3F0BD41E3F5F5F1F3FF3
:1052A00007EB1F3FE276203F1003213F828F213F13
:1052B000371C223F2EA9223F7A36233FF8C3233FD3
:1052C000CA51243FDFDF243F486E253FE3FC253FE2
:1052D000D28B263F151B273F9BAA273F643A283FC6
:1052E00071CA283FD15A293F85EB293F7C7C2A3F50
:1052F000C70D2B3F569F2B3F27312C3F5DC32C3FC3
:10530000D6552D3F92E82D3FA27B2E3F060F2F3F13
:10531000BEA22F3FB936303F19CB303FBB5F313F84
:10532000A1F4313FEC89323F8A1F333F6CB5333FE4
:10533000A14B343F3BE2343F1879353F4910363FAB
:10534000DFA7363FB83F373FF5D7373F7670383F56
:105350005B09393F94A2393F213C3A3F13D63A3F8B
:1053600058703B3FF20A3C3FDFA53C3F31413D3F97
:10537000D7DC3D3FD1783E3F2F153F3FE2B13F3F65
:10538000F94E403F63EC403F338A413F6728423F3C
:10539000EFC6423FDC65433F1D05443FD3A4443F75
:1053A000DD44453F3BE5453F0E86463F3527473FB9
:1053B000D2C8473FC26A483F170D493FD1AF493F66
:1053C000F0524A3F73F64A3F6B9A4B3FB83E4C3F10
:1053D00069E34C3F90884D3F1B2E4E3F0BD44E3F10
:1053E000707A4F3F2921503F58C8503FFC6F513FC2
:1053F0000518523F72C0523F5569533F9D12543FAA
:105400005ABC543F8C66553F2311563F30BC563F23
:10541000B267573F9813583F05C0583FD76C593F64
:105420001E1A5A3FC9C75A3FFB755B3FA2245C3F17
:10543000BFD35C3F51835D3F59335E3FD6E35E3F50
:10544000D9945F3F4146603F2FF8603FA4AA613F77
:105450007D5D623FDC10633FC1C4633F1C79643FE4
:10546000ED2D653F54E3653F2099663F834F673FCD
:105470005B06683FBABD683F9F75693F0A2E6A3F69
:10548000EBE66A3F62A06B3F4F5A6C3FD3146D3F0F
:10549000CCCF6D3F5D8B6E3F73476F3F2104703FF4
:1054A00044C1703FFE7E713F3E3D723F16FC723F2D
:1054B00073BB733F677B743FE23B753FF4FC753F02
:1054C0009DBE763FCB80773FA243783FFF06793F72
:1054D000F3CA793F7E8F7A3FA0547B3F581A7C3FB6
:1054E000A8E07C3F8FA77D3F1E6F7E3F43377F3F05
:1054F0000000803FB264803FB0C9803F012F813FF0
:105500009F94813F8FFA813FCC60823F65C7823F85
:10551000492E833F8195833F0DFD833FED64843F9A
:1055200021CD843FB135853F8C9E853FC407863FA2
:105530005071863F2FDB863F6B45873F03B0873F27
:10554000EF1A883F3886883FD4F1883FCC5D893F89
:1055500021CA893FD2368A3FDFA38A3F51118B3F50
:10556000177F8B3F39ED8B3FC05B8C3FA3CA8C3FCD
:10557000EB398D3F8FA98D3F98198E3FFC898E3F67
:10558000C6FA8E3FF46B8F3F87DD8F3F7F4F903F92
:10559000DBC1903F9C34913FC1A7913F4C1B923F90
:1055A000438F923F9F03933F6878933F9EED933FD5
:1055B0003963943F40D9943FB54F953F8FC6953F8F
:1055C000DE3D963F9AB5963FC32D973F61A6973F24
:1055D0006D1F983FE598983FD312993F378D993FBB
:1055E00007089A3F56839A3F11FF9A3F427B9B3FA1
:1055F000F0F79B3F0C759C3FA6F29C3FBD709D3F12
:105600004AEF9D3F4C6E9E3FD5ED9E3FD26D9F3F32
:105610004EEE9F3F506FA03FC7F0A03FC572A13F25
:1056200041F5A13F4278A23FC2FBA23FC77FA33F03
:105630005304A43F5D89A43FF50EA53F1495A53FF3
:10564000B91BA63FECA2A63FA62AA73FE6B2A73FFA
:10565000BC3BA83F19C5A83F054FA93F88D9A93F22
:105660009164AA3F30F0AA3F677CAB3F2D09AC3F65
:105670008996AC3F7D24AD3FFFB2AD3F2042AE3FA7
:10568000E1D1AE3F3062AF3F1FF3AF3FAD84B03FDB
:10569000DB16B13FA8A9B13F0C3DB23F20D1B23FCC
:1056A000CB65B33F1EFBB33F1991B43FB327B53F62
:1056B000FDBEB53FEF56B63F89EFB63FCA88B73F4C
:1056C000BC22B83F5EBDB83FB058B93FB2F4B93F55
:1056D0006491BA3FCF2EBB3FEACCBB3FBE6BBC3F11
:1056E0004A0BBD3F8FABBD3F8C4CBE3F4AEEBE3F29
:1056F000C990BF3F0134C03FF9D7C03FBB7CC13F19
:105700003E22C23F82C8C23F8F6FC33F6517C43F6E
:1057100005C0C43F7769C53FB213C63FBEBEC63F92
:10572000946AC73F4417C83FC6C4C83F2173C93FE6
:105730005722CA3F5FD2CA3F4983CB3F0D35CC3F8A
:10574000ABE7CC3F359BCD3F984FCE3FE604CF3FF4
:1057500017BBCF3F3272D03F392AD13F32E3D13F1E
:10576000179DD23FE657D33FA913D43F68D0D43F0B
:10577000198ED53FC74CD63F6F0CD73F14CDD73FBE
:10578000B48ED83F5951D93F0915DA3FB6D9DA3F1F
:105790006F9FDB3F3466DC3F062EDD3FECF6DD3FDE
:1057A000DFC0DE3FE78BDF3F0C58E03F4625E13F9F
:1057B0009DF3E13F11C3E23FAB93E33F6265E43FFA
:1057C0004738E53F520CE63F8BE1E63FF1B7E73F54
:1057D000868FE83F5168E93F5B42EA3F931DEB3F0C
:1057E00012FAEB3FCFD7EC3FCCB6ED3F0F97EE3F31
:1057F0009A78EF3F755BF03F9E3FF13F2025F23FE7
:10580000F20BF33F1BF4F33FA5DDF43F8EC8F53FE9
:10581000D9B4F63F8CA2F73FA791F83F3482F93F05
:105820003274FA3FA167FB3F895CFC3FF452FD3FB5
:10583000D84AFE3F3D44FF3F9B1F0040D89D00409B
:10584000DE1C0140AE9C01404B1D0240B69E024052
:10585000F3200340FDA30340E127044097AC04403C
:105860002732054091B80540DD3F064004C8064098
:105870000D510740FDDA0740D465084091F108401A
:105880003D7E0940D40B0A405F9A0A40D8290B405C
:105890004DBA0B40B64B0C401ADE0C407E710D40E9
:1058A000E6050E404E9B0E40BA310F4032C90F4004
:1058B000B761104048FB1040EE951140A9311240ED
:1058C0007DCE12406A6C1340780B1440A8AB144094
:1058D000F94C154078EF154021931640F8371740E2
:1058E00005DE174049851840C32D194080D719405F
:1058F0007B821A40BA2E1B4044DC1B401E8B1C408E
:10590000473B1D40C4EC1D409D9F1E40D2531F408D
:105910006809204066C02040CD782140A032224056
:10592000E9ED2240ACAA2340E8682440A62825409F
:10593000EEE92540BDAC26401D71274011372840B7
:10594000A4FE2840D2C72940A7922A40245F2B40BA
:10595000512D2C4037FD2C40D5CE2D4034A22E4069
:105960005C772F40514E304018273140B80132400B
:1059700037DE32409DBC3340ED9C3440357F3540AE
:1059800073633640B649374001323840581C3940BD
:10599000C8083A4055F73A4008E83B40E8DA3C404E
:1059A000FFCF3D4054C73E40ECC03F40D3BC4040D9
:1059B00013BB4140B2BB4240B6BE43402FC444403B
:1059C00021CC454095D6464097E3474030F34840C8
:1059D00068054A40501A4B40EC314C40444C4D4015
:1059E0006A694E4065894F4043AC50400FD25140E8
:1059F000CEFA5240962654406D5555405D8756402C
:105A00007BBC5740CFF4584066305A40506F5B40E3
:105A10009AB15C4051F75D4081405F403F8D6040EE
:105A200094DD6140943163404C896440CDE465402D
:105A30002C44674072A76840B60E6A40077A6B40F4
:105A400075E96C40185D6E4002D56F40445171405D
:105A5000EED172401D577440E3E07540506F7740BF
:105A600082027940899A7A4082377C407FD97D4092
:105A700099807F4074968040466F8140CB4A824037
:105A8000132983402D0A844022EE844006D58540A8
:105A9000E4BE8640CDAB8740D09B8840FC8E8940D9
:105AA00064858A40177F8B40267C8C40A47C8D4087
:105AB000A1808E4033888F406C93904062A29140C9
:105AC00024B59240CDCB93406DE694401F0596409F
:105AD000F8279740124F9840817A994061AA9A40DE
